:020000040800F2
:10000000900400200D180008E9170008EB170008FD
:10001000ED170008EF170008F117000800000000B6
:10002000000000000000000000000000F3170008BE
:10003000F517000800000000F7170008F91700087E
:100040001D180008211800082518000829180008A4
:100050002D18000831180008351800083918000854
:100060003D18000841180008451800084918000804
:100070004D180008511800085518000859180008B4
:100080005D18000861180008651800086918000864
:100090006D18000871180008751800087918000814
:1000A0007D180008811800088518000889180008C4
:1000B0008D180008000000000000000091180008E2
:1000C00095180008991800089D180008A118000844
:1000D000A5180008A9180008AD180008B1180008F4
:1000E000B5180008B9180008000000000000000062
:1000F0000000000000000000000000000000000000
:1001000000000000BD18000800000000C118000831
:100110000000000000000000C5180008C918000811
:10012000CD180008D1180008D5180008D918000803
:10013000DD180008000000000000000000000000C2
:10014000E1180008E5180008E918000800000000A0
:10015000ED180008F1180008F5180008F918000853
:10016000FD1800080119000805190008000000002A
:10017000091900080D190008000000000000000027
:100180001119000815190008191900082DE9FC4774
:10019000050066D0DFF8B876DFF8C466BC68D7F82B
:1001A0000C802878C10604F00C0408F0030848D538
:1001B00024B10C2C08BFB8F1010F2CD1386881078D
:1001C00002D5A86900284CD0396808074EBF3968A5
:1001D00071680909286A01F0F001814206D200F035
:1001E000FBFA00283DD100F012FA07E000F00FFA08
:1001F00024B9286A00F0F0FA002832D100F0A3FAFE
:10020000BA6800F096FADFF85006006800F03CFB90
:10021000010016D0F5E1A86928B3396841F0010161
:10022000396000F053FB81463868810707D400F03D
:100230004DFBA0EB09000328F6D30320E1E100F019
:10024000E6F92878C10756D5082C04D00C2C08BF35
:10025000B8F1030F18D1386881034CD568680028BD
:1002600049D10120CDE1386840084000386000F0F5
:100270002DFB814638688107E3D500F027FBA0EB12
:1002800009000328F6D3D8E76868B0F5803F04D1A9
:10029000386840F48030386011E0B0F5A02F38683D
:1002A00006D140F480203860396841F4803105E09F
:1002B00020F480303860396821F480213960686822
:1002C00060B100F003FB81463868810313D400F06D
:1002D000FDFAA0EB09006528F6D3AEE700F0F6FAC8
:1002E00081463868810306D500F0F0FAA0EB0900DA
:1002F0006528F6D3A1E72878810713D5042C04D00C
:100300000C2C08BFB8F1020F22D13868410502D584
:10031000E8680028A5D07868296920F0FE4040EA06
:10032000016078602878010743D568690028706803
:1003300030D040F00100706000F0C8FA804670686C
:10034000810736D400F0C2FA00F05DF9F7D374E704
:10035000E86878B1396841F48071396000F0B6FA24
:10036000804638684105D6D400F0B0FA00F04BF969
:10037000F7D362E7386820F48070386000F0A6FA9E
:10038000804638684105CDD500F0A0FA00F03BF971
:10039000F7D352E740084000706000F097FA8046BB
:1003A0007068810705D500F091FA00F02CF9F7D3B9
:1003B00043E72878410767D5B86DC1004FF00008C2
:1003C0000AD4B86D40F08050B8654FF00108B86DA0
:1003D00000F0805000900098DFF88894D9F8000071
:1003E000C10513D4D9F8000040F48070C9F80000AA
:1003F00000F06CFA8246D9F80000C10506D400F07E
:1004000065FAA0EB0A000328F5D316E7A8680128CF
:1004100004D1306840F00100306010E005283068F9
:1004200006D140F004003060316841F0010105E080
:10043000400840003060316821F004013160A86854
:1004400041F2893960B100F041FA82463068810793
:1004500013D400F03BFAA0EB0A004845F6D3ECE6D3
:1004600000F034FA82463068810706D500F02EFA93
:10047000A0EB0A004845F6D3DFE6B8F1000F03D041
:10048000B86D20F08050B8652878810621D5686A5B
:100490000028B0680ED040F00100B06000F016FAFD
:1004A0008046B068810714D400F010FA00F0ABF871
:1004B000F7D3C2E640084000B06000F007FA80467B
:1004C000B068810705D500F001FA00F09CF8F7D379
:1004D000B3E6A86A002800F09380022871D1F8687A
:1004E000EA6A00F00301914201BF00F070012A6B3B
:1004F000521EB1EB021F1BD16A6B00F4FE41B1EB3F
:10050000022F02BF00F07841AA6BB1EBC26F0FD18E
:10051000EA6B520800F4C001521EB1EB425F07D1F2
:10052000296C490800F0C060491EB0EB416F44D00F
:100530000C2C47D0386841013FF593AE386820F065
:100540008070386000F0C2F904463868810105D532
:1005500000F0BCF9001B0328F7D36EE6F868DFF85B
:100560000813EA6A0840296B1043491E40EA01104B
:10057000EA6B696B520840EA0120296C521E490857
:1005800040EA4250491E40EA4160A96B40EAC1601E
:10059000F860386840F080703860F96841F0807128
:1005A000F96000F093F904463868810128D400F01E
:1005B0008DF9001B0328F7D33FE6386881011FD46B
:1005C000E7E70C2C3FF44DAE386820F080703860BF
:1005D0003968080103D4F96889088900F960F96865
:1005E000DFF888020140F96000F070F904463868CD
:1005F000810105D500F06AF9001B0328F7D31CE63A
:100600000020BDE8F687A0EB080003287047386893
:1006100040F0080038603968286A21F0F001014391
:1006200039607968E86921F47F4141EA0021796005
:1006300070472DE9F0410400884658D0DFF8306259
:10064000306800F00700404509D23168C90848EA1F
:10065000C1013160306800F00700404547D1207883
:10066000DFF8EC51C1072AD56068032802D1296858
:100670008A0108E0022802D129688A0303E00028E1
:10068000296802D18A0702D431E04A052FD5A9682A
:10069000890840EA8100A86000F018F90746A868B8
:1006A000616800F00C00B0EB810F08D000F00EF98B
:1006B000C01B41F289318842F1D3032037E0207812
:1006C000810705D5AA68A06822F0F0020243AA605B
:1006D000316801F0070188450BD23068C00848EA4C
:1006E000C0003060316801F00701414501D00120B0
:1006F0001DE02078410705D5AA68E06822F4E06291
:100700000243AA602178080706D5A968206921F468
:10071000605141EAC001A96000F015F8AA6800F034
:1007200008F8BDE8F0414C48006800F0ADB8BDE8FD
:10073000F0815049C2F30312895C464A01F01F015F
:10074000C8401060704770B5414A4B4B9068D668FE
:100750000025002110F00C0006F00306474C03D0E2
:100760000C2812D1012E1AD115682E0704D43B4D46
:100770002E68C6F3032502E01568C5F30315404E45
:1007800056F8255048B9294624E0042808BF2146D8
:1007900020D008281ED119461CE00C281AD1D06898
:1007A00000F00300022803D0032808BF1D4600E024
:1007B0002546D168D068D268C0F306204543C1F30E
:1007C0000210C2F34161401C491CB5FBF0F0490026
:1007D000B0FBF1F1084670BD7CB52A4E0546306885
:1007E0000024C10002D500F077F80EE0306840F038
:1007F00080503060316801F080510091009800F025
:100800006BF8316821F080513160B0F5007F04D180
:10081000802D0CD9A12D09D304E0802D88BF03249D
:1008200005D801D1022402E0702D00D10124104826
:100830000168C90844EAC1010160006800F00700CE
:10084000A04201D0012076BD002076BD000000004E
:100850000010024088000020840000209410024014
:1008600090100240007000408C809D01FFFFEEFE62
:1008700000200240E816000800127A000024F4006C
:10088000F81600085810024070B50E4E0446307835
:100890000025A0B14FF47A710B4AB1FBF0F110685A
:1008A000B0FBF1F000F08EF848B9102C07D200220E
:1008B00021464FF0FF3000F067F8B46000E00125FA
:1008C000284670BD7C000020880000200148406858
:1008D000704700BF7C000020DFF86C00006800F467
:1008E000C060704710B5DFF86010B0F5007F086891
:1008F00000F4C0601DD1B0F5007F22D00A68DFF897
:100900004C30012060F34A220A6032201C68DFF874
:1009100040204443B4FBF2F0401C00E0401E4A6912
:10092000530501D50028F9D14869410509D50320AF
:1009300010BDB0F5806F04D00A68022060F34A222F
:100940000A60002010BD00000070004088000020F8
:1009500040420F000901020002D42448815470472C
:10096000234B02F00F021A4402F8041C7047214B7B
:1009700019684FF6FF020002114000F4E0600843DE
:100980001D4908431860704770B51A4B1C68C4F3C2
:1009900002230124C3F10705052D2EBF0F2504FAFC
:1009A00005F56D1E1E1D072E34BF0023DB1E2940DA
:1009B000994004FA03F3BDE870405B1E1A401143EE
:1009C000C8E7000010B5401EB0F1807F01D30120C0
:1009D00010BD0A4C60600F214FF0FF30FFF7BAFFE7
:1009E0000021A16007202060002010BD00E400E08D
:1009F00018ED00E00CED00E00000FA0510E000E06A
:100A00002DE9FC47064600243068DFF848730105ED
:100A1000A0461BD5706C58B1B0F5000F03D0B0F5EF
:100A2000400F09D010E03A6842F480323A6004E0A6
:100A3000002100F00EF904463CB9F96F706C21F406
:100A400040010143F96701E00124A04630688103B9
:100A50002AD5F86CC1004FF000090AD4F86C40F0B8
:100A60008050F8644FF00109F86C00F0805000905D
:100A70000098DFF8E452286840F480702860FFF79F
:100A800025FF82462868C10571D4FFF71FFFA0EB40
:100A90000A000328F6D30324A046B9F1000F03D0BF
:100AA000F86C20F08050F8643078C10705D5FA6FF3
:100AB000306A920840EA8202FA673178880705D5E1
:100AC000F96F706A21F00C010143F967317848072A
:100AD00005D5F96FB06A21F030010143F96731782B
:100AE000880605D5F96FF06A21F440610143F96782
:100AF0003168880505D5F96FF06B21F44021014379
:100B0000F9673168480505D5F96F306C21F440115B
:100B10000143F9673178480605D5F96F306B21F448
:100B200040510143F9673178080605D5F96F706BBC
:100B300021F440410143F9673168C80505D5F96FD3
:100B4000B06B21F440310143F9673168080346D5A1
:100B5000F96FB06C21F040610143F967B06CB0F1FE
:100B6000006F34D1386840F48010386037E0002CD2
:100B700092D1DFF8E841206810F440701CBFB16DDD
:100B800088420BD02068216841F48031216020F434
:100B90004070226822F4803222602060C0070FD5A6
:100BA000FFF794FE05462068810709D4FFF78EFE03
:100BB000401B41F289318842F5D34FF003086CE7BE
:100BC0002168B06D21F440710143216065E7B0F107
:100BD000806F04D100F03CF8010018BF80463068F7
:100BE000410316D5FA6FF06C22F040620243FA67B7
:100BF000F06CB0F1006F04D1386840F480103860B8
:100C000007E0B0F1806F04D100F022F8010018BFB6
:100C10008046306841040FD5FA6F306D22F04052A3
:100C20000243FA67316DB1F1805F05D1022100F016
:100C300010F8010018BF80463068010405D5FA6F2E
:100C4000706D22F080420243FA674046BDE8F687A5
:100C50000121301DFFE72DE9F0410546404F28688E
:100C60000C46F968002611F0030F0DD0F96801F069
:100C70000301814237D1B0B3F8686968C0F302104C
:100C8000401C884213D02EE0012804D02BD3032827
:100C900023D01ED327E03A68910724D5FA68696803
:100CA00022F073021043491E40EA0110F8603868D0
:100CB00020F080603860FFF709FE80463868010147
:100CC00013D5FFF703FEA0EB08000328F6D3032695
:100CD0003BE039684A05E1D405E039688A03DDD490
:100CE00039684A03DAD401262FE0A96844B93A6981
:100CF0001C48EB68024042EA012141EAC3610FE06F
:100D0000012C3A6906D12B69174800F031F841EA05
:100D1000435105E06B69154800F02AF841EA436148
:100D20003961386840F080603860FFF7CFFD0446D5
:100D30003868010105D4FFF7C9FD001B0328F7D36C
:100D4000C5E73869A969084338613046BDE8F081D4
:100D5000000000000C1002400070004090100240A3
:100D600000100240FF80FF07FF809FFFFF80FFF918
:100D700002405B0842EA01215B1E704738B586B02D
:100D800000F078F900F00AF91422002101A800F01F
:100D900080F97048704C016841F0010101600268FF
:100DA00002F0010200920099026842F00202026021
:100DB0000022006800F0020000904FF4C551009836
:100DC0004FF0904000F040FA00221821204600F039
:100DD0003BFA4FF4C55100F0D8F84FF0904000F0C6
:100DE00063F9182100F0D1F8204600F05DF95B4C62
:100DF0005B485C49206161610020A06101212062A3
:100E00006062A062E0622063E16104F1100000F022
:100E10002FFA08B100F00FF9002104F1100000F0E2
:100E200081FA08B100F007F9002104F1100000F088
:100E30008EFA08B100F0FFF800F0B4FA732000F069
:100E400062FB0021002000F077FB04F16C0000F051
:100E500064FBA08942F2107190FBF1F00A220A258E
:100E600000F08BF8A0894FF47A7190FBF1F000F05C
:100E700083F8A089642190FBF1F000F07DF8A0894F
:100E800000F078F8A08900F06FF800F07AF8A07808
:100E9000E17841EA0021E1810920002100F04CFBCA
:100EA00004F1700000F039FBE0894FF47A7190FB97
:100EB000F1F000F061F8E089642190FBF1F000F0BE
:100EC0005BF8E08900F056F8E08900F04DF800F09A
:100ED00058F80121002000F02FFB04F1780000F009
:100EE0001CFBE06D00F046F8E06D00F03DF800F00E
:100EF00048F82E2000F007FB206E00F03BF8206E33
:100F000000F032F800F03DF80121092000F014FB58
:100F100004F1740000F001FB606E00F02BF8606ECD
:100F200000F022F800F02DF82E2000F0ECFAA06E70
:100F300000F020F8A06E0A2190FBF1F105FB1105ED
:100F40003035E8B200F0DFFA4FF4FA7000F010FB31
:100F500077E700004C100240000400480000002029
:100F600000540040EC9C90100A2190FBF1F105FB2D
:100F70001100704790FBF5F00A2290FBF2F205FB9E
:100F800012003030C0B200F0BEBA019101220292CC
:100F9000002103910322049201A9704700B5ADB06E
:100FA0004422002105A800F074F8142200216846AC
:100FB00000F06FF85C22002116A800F06AF8012109
:100FC0000B91002260210D910C9201211091119141
:100FD000022228210F92129110200590072202214F
:100FE00013921491159105A8FFF7D0F808B100F0FD
:100FF00022F80F2003210090019100220292039217
:10100000049204216846FFF714FB08B100F013F8BE
:10101000402100221691229216A8FFF7F1FC08B198
:1010200072B6FEE74FF40070FFF75CFC08B172B6D1
:10103000FEE72DB000BD72B6FEE730B501688468EA
:101040004218416802EB5103C90703D54C4401E043
:10105000491C08D19A4218BF12F9011B01D10C306A
:1010600030BD12F8015B002904F8015BF0D4491E81
:10107000F7D5EFE7032010B5FFF779FC0020FFF765
:1010800003FC0024002814BF012400F085FA204648
:1010900010BD10B5044610460A460146204600F031
:1010A000C9FA204610BD00002DE9F84F0027694A13
:1010B000694B4FF00F0805460E4638E0674CA542D5
:1010C00014BF072404248C40654944EA0E0441F807
:1010D0002C40C143D2F800C0746801EA0C0CE40350
:1010E00048BF40EA0C0CC2F800C0D2F804C07468D3
:1010F00001EA0C0CA40348BF40EA0C0CC2F804C07F
:10110000D2F808C0746801EA0C0CE40248BF40EA57
:101110000C0CC2F808C0D2F80CC001EA0C0C7168C3
:10112000890248BF40EA0C0CC2F80CC07F1C316831
:1011300031FA07F000F086800124BC4014EA010077
:10114000F4D04FEA470C032101FA0CF16FEA010ECB
:101150007168012918BF022903D0112918BF12296B
:1011600012D1A968D6F80C900EEA010109FA0CF91F
:1011700049EA0101A960696821EA04047168C1F3C0
:101180000011B9400C436C60E968B4680EEA0101D3
:1011900004FA0CF42143E960B9007468022C18BF0A
:1011A000122C12D1FC0805EB840401F01C09D4F8C0
:1011B00020A008FA09FB2AEA0B0AD6F810B00BFAAD
:1011C00009F949EA0A09C4F820902C680EEA040ECD
:1011D000347904F0030404FA0CF444EA0E0CC5F864
:1011E00000C07468E400A1D5D3F800C01C4C4CF0DA
:1011F000010CC3F800C04FEA970CD3F800E00EF0E2
:10120000010ECDF800E001F00C01DDF800E054F82B
:101210002C4008FA01FE24EA0E0EB5F1904F08BFEB
:1012200000240ED00F4CA54208BF012409D00E4C5B
:10123000A54208BF022404D00C4CA5427FF43EAF67
:10124000032440E7BDE8F18F0AB1816170478162F4
:101250007047000000040140601002400010004888
:10126000080001400004004800080048000C004845
:1012700038B5040001D1012032BD04F14005687881
:1012800020B900212970204600F09CF900F041F8B7
:101290006068216820F0706008612068816821F42E
:1012A00000418160E0680128A0680CBF40F4004064
:1012B00040F4044021688860E068022803D1206877
:1012C0004FF4006141602068416841F0007141F4D1
:1012D000004141602068C16821F40041C16060693B
:1012E0002169A2690143206841EA0221C160206AA4
:1012F000E1692268014311602068016841F0010141
:101300000160002068602021697020630021A970BD
:1013100032BD2420687020680168490849000160D6
:101320007047000030B500F140025378202B0CD1FB
:101330001478012C09D000F01DF824F480541C60AE
:1013400003681D682943196020E0022030BD30B5D4
:1013500000F140025378202B0AD11478012C07D0D9
:1013600000F008F824F4706444EA01241C600DE0E5
:10137000022030BD012313702424547003681D68BB
:101380006D086D001D6003681C6870470068016887
:1013900041F00101016020205070002111700020F7
:1013A00030BD000010B5282000F0E2F8524C0022B9
:1013B00008212046FFF748FF032000F049F800F01D
:1013C00042F800F073F8002200F03EF800F038F820
:1013D000032000F03DF800F036F800F067F8002236
:1013E00000F032F800F02CF8032000F031F800F0A3
:1013F0002AF800F05BF8002200F026F800F020F850
:10140000282000F054F800F01BF8282000F04FF8D6
:1014100000F016F80C2000F04AF800F011F8012056
:1014200000F045F8022000F0A3F8062000F03FF895
:1014300000F006F8022000F03AF8BDE8104069E03C
:10144000012000F095B8012210212046FFF7FCBED4
:1014500010B50446C4F3C000002814BF01220022C6
:10146000202100F01FF8C4F38000002814BF0122DF
:1014700000224FF4006100F015F8C4F3400000288A
:1014800014BF01220022802100F00CF8E0074CBFBD
:1014900001220022BDE810404FF480514FF09040EF
:1014A000FFF7D2BE4FF09040FFF7CEBE704738B581
:1014B0000446114D002203E038B504460E4D0122CA
:1014C00008212846FFF7C0FE2009FFF7C1FF00F002
:1014D00015F8FFF7EBFF002200F011F82046FFF7A8
:1014E000B7FF00F00BF8FFF7E1FF2846BDE83840F2
:1014F00000221021FFF7A8BE00040048012210219D
:101500002846FFF7A1BE80B5FFF7D6FFFFF7CEFF55
:10151000BDE80240022000F02BB838B50446002593
:1015200005E0FFF7C9FF022000F022F86D1CE8B2C9
:10153000205C0028F5D131BD032900D9704780B562
:10154000DFE801F00205070940F0800007E04030C5
:1015500002E0143000E0543040F08000C0B2FFF7E9
:10156000A6FFBDE80240012000F002B801BD000066
:1015700038B50446FFF7AAF914F1010F054602D069
:10158000044801786418FFF7A1F9401BA042FAD380
:1015900031BD00BF7C000020224881B0816841F04D
:1015A00001018160816801F00101009100990268E8
:1015B00042F080520260006800F080500090009875
:1015C00001B0704710B586B004461422002101A86E
:1015D000FFF75FFD21681448814220D1134C216838
:1015E00041F002012160C021206800F0020000905B
:1015F000122200980E4801910292012103910322C8
:1016000004210591049201A9FFF74EFDE06840F422
:101610000010E060E06800F400100090009806B050
:1016200010BD000058100240005400404C10024011
:101630000004004862F30F2262F31F42401810F0CA
:10164000030308D0C91A1FD3DB0748BF00F8012DD8
:1016500028BF20F8022D130030B414461546103967
:1016600028BF20E93C00FAD8490728BF20E90C0030
:1016700048BF40F8042D890028BF20F8022D48BF3C
:1016800000F8012D30BC7047C91818BF00F8012DB3
:10169000CB0728BF00F8012D704700000E480168F5
:1016A00041F47001016000220C49086840F001001B
:1016B00008608A604FF480520B68094803400B6051
:1016C000CA6000200B68074A23F480230B608861FE
:1016D0004FF000611160704788ED00E0001002409B
:1016E000FFFFF6EA08ED00E0000000000000000047
:1016F0000102030406070809A0860100400D03004B
:10170000801A060000350C0040420F0080841E0045
:1017100000093D0000127A000024F40000366E013A
:101720000048E801006CDC0210B507497944183123
:10173000064C7C44163404E00A68081D11448847AE
:101740000146A142F8D110BD2C0000003800000075
:101750004EF68851CEF20001086840F4700008602F
:10176000BFF34F8FBFF36F8F4FF00170E1EE100AA0
:1017700070470000C7F8FFFFA40100003C00000014
:101780000000002000F00DF8002801D0FFF7CCFF8A
:10179000AFF300800020AFF30080FFF7EFFA00F016
:1017A00002F80120704700F001B8000007463846F3
:1017B00000F002F8FBE7000080B5AFF30080024ABA
:1017C00011001820ABBEFBE72600020005480146C9
:1017D00003B4684680F30988AFF30080FFF7B8FFD1
:1017E000FFF7D0FFA5EDF5FEFEE7FEE7FEE7FEE71B
:1017F000FEE770477047704700F000B80248416844
:1018000002788A18426070477C00002001488047B7
:10181000014800479D160008CD170008FFF7FEBFDE
:10182000FFF7FEBFFFF7FEBFFFF7FEBFFFF7FEBFEC
:10183000FFF7FEBFFFF7FEBFFFF7FEBFFFF7FEBFDC
:10184000FFF7FEBFFFF7FEBFFFF7FEBFFFF7FEBFCC
:10185000FFF7FEBFFFF7FEBFFFF7FEBFFFF7FEBFBC
:10186000FFF7FEBFFFF7FEBFFFF7FEBFFFF7FEBFAC
:10187000FFF7FEBFFFF7FEBFFFF7FEBFFFF7FEBF9C
:10188000FFF7FEBFFFF7FEBFFFF7FEBFFFF7FEBF8C
:10189000FFF7FEBFFFF7FEBFFFF7FEBFFFF7FEBF7C
:1018A000FFF7FEBFFFF7FEBFFFF7FEBFFFF7FEBF6C
:1018B000FFF7FEBFFFF7FEBFFFF7FEBFFFF7FEBF5C
:1018C000FFF7FEBFFFF7FEBFFFF7FEBFFFF7FEBF4C
:1018D000FFF7FEBFFFF7FEBFFFF7FEBFFFF7FEBF3C
:1018E000FFF7FEBFFFF7FEBFFFF7FEBFFFF7FEBF2C
:1018F000FFF7FEBFFFF7FEBFFFF7FEBFFFF7FEBF1C
:10190000FFF7FEBFFFF7FEBFFFF7FEBFFFF7FEBF0B
:10191000FFF7FEBFFFF7FEBFFFF7FEBF94001043C7
:101920003A0000563A0000483A0000543A000001DC
:0A193000F9000010FC0002093D0060
:04000005080017CD0B
:00000001FF
