:020000040800F2
:10000000680800204D200008111F0008131F000879
:10001000151F0008171F0008191F00080000000026
:100020000000000000000000000000001B1F00088E
:100030001D1F0008000000001F1F0008211F0008EE
:1000400075200008792000087D2000088120000824
:1000500085200008892000088D20000891200008D4
:1000600095200008992000089D200008A120000884
:10007000A5200008A9200008AD200008B120000834
:10008000B5200008B9200008BD200008C1200008E4
:10009000C5200008C9200008CD200008D120000894
:1000A000D5200008D9200008DD200008E120000844
:1000B000E5200008E9200008ED200008251F0008C1
:1000C0002B1F0008F1200008F5200008F920000887
:1000D000FD20000801210008052100080921000871
:1000E000351F00080D210008112100081521000806
:1000F000192100081D2100082121000825210008E0
:10010000292100082D21000831210008352100088F
:10011000392100083D21000841210008452100083F
:10012000492100084D2100085121000855210008EF
:100130005921000800000000000000005D210008B7
:100140006121000865210008692100086D2100086F
:100150007121000875210008792100087D2100081F
:100160008121000885210008892100088D210008CF
:100170009121000895210008992100080000000045
:10018000000000009D2100080000000000000000A9
:10019000A12100080000000000000000A5210008C7
:1001A000000000000000000000000000A92100087D
:1001B000AD210008B1210008B5210008B9210008CF
:1001C000BD210008F8B5040022D004F13C0569788F
:1001D00021B900202870204600F0A0FE242169707B
:1001E00000F0A1F82068016841F400410160206836
:1001F000026822F40042026000F0C6FF0146606817
:10020000DFF80021904205D2DFF8FC30994205D298
:100210000120F2BDDFF8F4008142F9D32068DFF855
:10022000F0304668B1FBF3F3B60943EA8616466040
:100230002668376A6068904206D34FF4967043434D
:100240004FF47A70B3FBF0F35B1CBF0943EA8713EA
:100250003362491E2368DE696768974206D27F00D1
:1002600000F044F8042913D2042111E0A06820B959
:1002700007EB470700F03AF805E01920474300F084
:1002800035F841F4804108050CBF012141F40041DB
:10029000DFF8800006400E43DE6122681368E169E2
:1002A000206A23F0C0030B43034313602268DFF886
:1002B0006800936821690340E0680B43034393603F
:1002C0002168CA68A3696069120A034343EA0222EB
:1002D000CA602068016841F0010101600020686087
:1002E0002021697020630021A970F2BDB1FBF7F1F4
:1002F000491CC1F30B017047026842F400620260BE
:1003000070470000A186010080841E0000093D00A6
:1003100040420F000030FFFF007CFFFF0098401EAE
:1003200000900098704720680268520852000260EE
:100330007047416841F48051416070472DE9FC41AC
:10034000044604F13C052268DFF8B86A5168E06AA7
:10035000AB7895F801C00027102B18BF402B40F058
:1003600041829769D2F814C05FEACC7E05D4B0F51B
:100370002A0F18BFB0F12A4F47D05FEACC7045D59D
:10038000880543D5E06AB0F52A0F08BF012104D0E3
:10039000E06AB0F12A4F01D10821E162A878402833
:1003A00009D168690028A8681ABF40F00100C0B2EE
:1003B00000F0FE0028E02069B0F5804F16D1687883
:1003C0002128A8680EBF00F0FE0040F00100C0B276
:1003D0001061606B00281CBFC06B00282BD1A06B84
:1003E00000281CBFC06B00280FD024E0686920B92A
:1003F00000F0FEFA40F0F00006E06869012804D140
:1004000000F0F6FA40F0F1001061EBE25FEA0C70E8
:1004100016D5880514D5A868C0B21061616B002993
:1004200004BFA06B0028F0D0C86B002802BFA16BEE
:10043000C86B0028E9D02068416841F4006126E1DA
:100440005FEA8C7000D5880540F1A380AB78E16A43
:10045000276B6878222840F094806869002808BFDC
:10046000402B07D1002100915369009391690091BD
:10047000009AB7E26869002804BF2069B0F5404FD0
:1004800008D100F0D7FA40F4807010606869401C11
:100490006861A7E2608D28B900F0CCFA40F40070E2
:1004A00010606BE0608D012835D1B14212D1114648
:1004B000086820F48060106021684868020504D54F
:1004C0000846024600F0C9FA23E0002200924B6978
:1004D00000930CE0082918BF202903D0122F0CD15B
:1004E00001290FD000F0B8FA116000F0F7FA89691D
:1004F0000091009800F0A9FA40E004291CBF0229ED
:10050000102902D000F0A8FA03E01046016841F477
:10051000806111602DE0628D022A15D104291CBF73
:100520000229102909D020680268034622F480625B
:100530001A602068FFF7E0FE0CE0206802680346BE
:1005400042F480621A6005E022681368104643F4A2
:10055000806303602068426813050AD5B14218BF62
:10056000012904D008291CBF1029202901D1FFF737
:10057000E0FE00F0B3FA89690091009800216961FA
:1005800030E2002300935169009192690092009932
:1005900028E27F070CF0040060D5D2F804E05FEA9F
:1005A0000E57F5D45FEA0C6732D54F0530D50028D9
:1005B0002ED16978AB78E76A208D002808BF212901
:1005C00017D1082F1CBF202FB74204D000F01BFA10
:1005D0000022AA7033E000F06DFAA878402806D116
:1005E0000021A9702046BDE8F64100F0E7BD0020DB
:1005F0002AE0212903D0402B08BF222903D1608D96
:1006000010B900F0FBF9EDE1A878402822D0B7E15D
:100610000028F8D08805F6D5102B1BD1E16A687840
:100620002128F0D1608D08B100F0AAB908291CBFBB
:100630002029B14206D000F0E6F90020A870202160
:10064000697002E000F036FAA8702046BDE8F64175
:1006500000F0B5BD2046BDE8F641DCE253681E055A
:1006600016D45FEA4C6369D54E0567D5002865D17D
:10067000687822280CD1608D04280AD300F0D0F9C4
:10068000608D032804D12068416821F480614160B5
:10069000A8E1E16A0229FBD0012818BF0028F7D1A0
:1006A0000020DFF84813009019200B68B3FBF0F02E
:1006B0004FF47A76B0FBF6F606EB860600962146F6
:1006C000FFF72CFE20B10B6818688405F8D41AE0F7
:1006D000686840F020006860506820F4E060506076
:1006E0000A6810694A6A1070486A431C4B622023EA
:1006F000488D421E4A856B700020A8700846BDE8F0
:10070000F64100F05DBD18460C460168024621F432
:100710008061116000F060FB00F0C4F9202200F05D
:1007200085F96A70A878402853D10021A97000206B
:1007300020632046BDE8F64100F043BD0028A7D065
:100740008805A5D5E06A618D042904D100F056F929
:10075000216808693FE1618D032910D1516821F4B6
:1007600080615160042818BF022801D000F094F97C
:1007700020680169606A0170616A4A1C2FE1618D1D
:10078000022940F02781012818BF10280DD0042825
:1007900018BF022804D01046016841F4007106E039
:1007A0001046016841F4806101E000F055F91160E4
:1007B00000F078F900F03AF9226800F031F9206889
:1007C000416821F44071416020206870A978402977
:1007D000ABD00020A870122121632046BDE8F6416D
:1007E00000F0F0BC686800B997695369980722D592
:1007F000880520D5686800B197696878002100F005
:100800002800282811D100F0F9F8780758BF0121F5
:10081000380654BFE268A2690020287002B0204662
:10082000BDE8F04192B200F0CEBC6FF00201516120
:1008300000202870D6E0DF0674D5880572D56F7861
:10084000506820F4E0605060002100912068416908
:100850000091206800F005F900F01EF92168486851
:10086000020528D50FF2AD58222F18BF2A2F10D01D
:10087000606B00F0FDF8606B00F0B8FC01281AD046
:10088000606BC0F85080606B00F09EFC98B1606BAC
:100890000FE0A06B00F0ECF8A06B00F0A7FC0128C3
:1008A00009D0A06BC0F85080A06B00F08DFC10B197
:1008B000A06B016D8847608D98B1206841694A0737
:1008C00002D5006900F0ADF8206841694A0602D5FA
:1008D000006900F0A6F8608D18B1686840F0040067
:1008E0006860686818B12046BDE8F641F0E12A2F3B
:1008F00005D1206328216970204600F07AFC6878D1
:10090000282807D1E66200F0E3F82046BDE8F6416A
:1009100000F070BC206B222818BF222F62D100F09B
:10092000D7F84DE003F00400BCF1210F18BFBCF173
:10093000290F2CD11B061CD54E051AD5C8B96978CC
:10094000608D00284ED0606A03781361606A421C93
:10095000626200F05FF808BF292943D100F096F8E1
:1009600021202063282169702046BDE8F64100F06F
:1009700042BC002836D0890534D5608D002831D09E
:10098000606A01781161606A411C616228E05B065F
:100990001BD54E0519D5C0B96978608D10B31069A3
:1009A000626A1070606A431C636200F033F808BF2B
:1009B0002A2917D100F06AF82220206328216970C3
:1009C0002046BDE8F64100F014BC58B1890509D5B0
:1009D000608D38B11069616A0870606A421C626299
:1009E00000F024F8BDE8F381000000000C000020B6
:1009F000A8680004C00D00F006007047506820F49D
:100A0000806050607047506820F4E06050601121B1
:100A100021637047608D421E6285608D002870479B
:100A20001069616A0870606A421C6262608D411ED2
:100A3000618570470021009153690093916900918D
:100A4000009A216808680A46704721680A680846C3
:100A500042F40072026070471046016821F4806120
:100A600070470268014642F001020A600098704730
:100A7000026853686385608D18B1686840F00400AF
:100A80006860486820F400604860704720684168EA
:100A900021F48061416070472068016821F4806121
:100AA0000160704720680169606A0170616A4A1CD0
:100AB00062627047506820F4E0605060206801680E
:100AC00041F40071016000202063202169707047AB
:100AD0000020206320216970A870704700200090DA
:100AE00021684A6900927047F8B5054605F13D0056
:100AF00029684E694F6842780024F30505D5FB0547
:100B000003D56FF4807301244B61B10507D5FB0554
:100B100005D52B686FF4007144F00204596171052A
:100B200060D5FB055ED56B8D90F800C0D5F830E040
:100B30006FF48061202A08BF002B48D1BCF1210F3F
:100B400018BFBCF1290F05D0BCF1280F08BFBEF1BA
:100B5000210F3CD10278EB6ADFF8A8C2082B14BF42
:100B6000202B282A17D1C5F82CC02A68536823F4F3
:100B7000E06353602A685161202229680B6823F4DE
:100B800080630B60002129630270002343702846B4
:100B900000F030FB26E0212A16D1C5F82CC02A63CC
:100BA000202303704FF0000C80F801C028684268D1
:100BB00022F4E062426028684161286800F026F86B
:100BC000284600F018FB0DE0286841610AE02B6818
:100BD00044F004045961102A18BF402A02D1286841
:100BE00000F013F9300507D5F90505D529686FF42C
:100BF000006044F00804486134B1286C04432C645C
:100C00002846BDE8F24063E0F1BD3068016821F498
:100C100080610160704710B500F13D0300F14802AA
:100C20001C78916889B900685168012905D1136859
:100C3000DBB203619068801C05E011680904090EAD
:100C400001619068401C906010BD9168012907D136
:100C500013680068DBB203619168491C916010BDA4
:100C6000916802292DD1222C03D1016800F02AF8C5
:100C700010BD418D61B1212C0AD1416A03680A7807
:100C80001A61416A4A1C4262418D4A1E428510BD6A
:100C9000418D002908BF212C13D101684A6822F434
:100CA000E0624A60002401680A6842F400720A6047
:100CB0000021016320221A705C70BDE8104000F032
:100CC0007DBA10BD0A68084642F48072026070471F
:100CD00038B5044604F13D0528786978102914BF19
:100CE0004029222804D121680A6822F400620A609F
:100CF00000F02801282903D10020206329700BE08F
:100D0000226851680A0505D4602803D02020287085
:100D10000021697000202063206841680A0523D5FE
:100D2000416821F400614160606B0FF2E90190F8C5
:100D30003520012A09D00165606B00F045FA0028D2
:100D400025D000F056F8606B0BE0A06B0165A06B3E
:100D500000F03AFAD8B1206800F034F800F049F811
:100D6000A06B016D884712E02A78602A0AD1202101
:100D700029700022226400F025F800F033F800F01A
:100D80003BFA04E000F01EF8204600F019FA206C4F
:100D900010F00F0F01D000F01FF82878216C4A07DF
:100DA0000ED528280CD11748E062002121632020AD
:100DB000287000226A702046BDE8324000F01ABA5E
:100DC00031BD000041694A0605D50069616A0870B5
:100DD000606A421C626270472068416821F4E061E9
:100DE0004160704720680168490849000160204659
:100DF0007047206801684908490001602020287078
:100E0000704700000000FFFF3068016841F4007186
:100E1000016070477CB5002100911925816B314834
:100E200001F13D024FF47A7613780468B4FBF5F5CE
:100E3000B5FBF6F6232046430096009838B100989B
:100E4000401E00900C6820688505F6D403E0086C0D
:100E500040F020000864486B08B10024C463886B2C
:100E600008B10024C4630868046824F48064046042
:100E700000204885486B08B100240465886B08B1E0
:100E8000002404650868046864086400046010783D
:100E900060280AD1202313700024547000220A64B1
:100EA0000846BDE8764000F0A7B903F02803282BD8
:100EB0000ED10868036843F0010303602823086823
:100EC000046844F48064046000200863137003E045
:100ED00020201070002454700846BDE8764000F0D1
:100EE0006FB900000C00002081B0002000900022AB
:100EF0005948416841F480414160416801F48041B2
:100F0000009100990092036843F0805303600068E9
:100F100000F080500090009801B0704710B586B086
:100F2000044614220021684600F067F920684B4906
:100F30004B4C88422CD1002005901222216841F0B0
:100F4000020121604FF44071206800F0020005901A
:100F50000598444800F074F80020059000222169AB
:100F600041F4001121610021206900F40010059076
:100F700005981F2000F07AF91F2000F094F9002254
:100F80000021202000F072F9202000F08CF955E0BB
:100F90003549884219D1002005901222216841F07C
:100FA000200121600321206800F0200005900598B1
:100FB0002E4800F045F800200590216941F4800199
:100FC0002161206900F4800036E02949884235D14A
:100FD00000200590216841F0040121600021206873
:100FE00000F004000590059805914FF40071226807
:100FF00042F0010222601222206800F001000590F8
:1010000005981C4800F01CF812210191012202925F
:101010004FF48070032100900391042204926946EA
:10102000154800F06BF900200590216941F400019A
:101030002161206900F400000590059806B010BDFC
:101040000091019201210291032204210491039253
:10105000694600F053B90000403802400054004097
:1010600030380240000402400058004000140240A2
:10107000005C004000080240000002402DE9F04101
:1010800004000F4654D0464E306800F00F00B842BE
:1010900002D200F073F84BD12068424D810712D57F
:1010A000400703D5A96841F4E051A9602078010701
:1010B00003D5A86840F46040A860A968A06821F042
:1010C000F0010143A9602178C80729D5606801288B
:1010D00002D129688A0305E0022818BF032803D13A
:1010E00029688A0103D423E029688A0720D5A968E2
:1010F000890840EA8100A86000F000FA8046A868EC
:10110000616800F00C00B0EB810F09D000F0F6F937
:10111000A0EB080041F289318842F0D303202BE094
:10112000306800F00F00874204D200F027F801D0A9
:10113000012021E02078410705D5AA68E06822F463
:10114000E0520243AA602178080706D5A968206901
:1011500021F4604141EAC001A96000F0D9F9AA6810
:101160001149124BC2F30312895CC8401860104841
:10117000006800F091FB0020BDE8F0813770316815
:1011800001F00F01B942704708480A4A0068136825
:101190000949C3F38222FFE7895CC8407047000019
:1011A000003C024000380240681F00080C0000208C
:1011B00008000020083802406C2000087047704783
:1011C000704770477047704790F83510022903D078
:1011D0008022426501207047052180F835100068A3
:1011E00002685208520002600020704790F83500F3
:1011F0007047704770477047704710B504461046F7
:101200000A460146204600F067FB204610BD0EE06E
:1012100002684368024408305FEAC37C44BF4B4421
:101220005B1E52F804CB43F804CB091FF9D150F8E8
:10123000041B0029ECD170470901020002D429489F
:1012400081547047284B02F00F021A4402F8041C24
:101250007047264B19684FF6FF020002114000F458
:10126000E0600843224908431860704770B51F4B7F
:101270001C68C4F302230124C3F10705052D2EBF0A
:101280000F2504FA05F56D1E1E1D072E34BF002321
:10129000DB1E2940994004FA03F3BDE870405B1E51
:1012A0001A401143C8E7010007D4012200F01F01D2
:1012B000104B8A40400943F82020704710B5401E6B
:1012C000B0F1807F01D3012010BD0B4C60600F2175
:1012D0004FF0FF30FFF7B0FF0021A1600720206032
:1012E000002010BD00E400E018ED00E00CED00E08F
:1012F0000000FA0500E100E010E000E02DE9F84F01
:101300000D4600267249734A0F23044601202F68B8
:10131000B04000EA0708804540F0C5804FEA460C1F
:10132000032707FA0CF76FEA070E6F68012F18BF43
:10133000022F03D0112F18BF122F12D1A768D5F892
:101340000C900EEA070709FA0CF949EA0707A760AB
:10135000676827EA00006F68C7F30017B740384393
:101360006060E068AF680EEA000007FA0CF73843E7
:10137000E060B0006F68022F18BF122F12D1F7087B
:1013800004EB870700F01C09D7F820A003FA09FB3B
:101390002AEA0B0AD5F810B00BFA09F949EA0A094A
:1013A000C7F8209027680EEA070E2F7907F0030789
:1013B00007FA0CF747EA0E0CC4F800C06F68FF008C
:1013C00071D5002700974FEA960CD2F800E04EF452
:1013D000804EC2F800E000F00C00176807F4804768
:1013E0000097DDF800E03C4F57F82C7003FA00FE40
:1013F00027EA0E0E394FBC4208BF00271DD0384FD8
:10140000BC4208BF012718D0364FBC4208BF022794
:1014100013D0354FBC4208BF03270ED0334FBC4218
:1014200008BF042709D0324FBC4208BF052704D0AB
:10143000304FBC420CBF0627072707FA00F040EAEE
:101440000E00DFF894E04EF82C006FEA0800D1F8A7
:1014500000C06F6800EA0C0CFF0348BF48EA0C0CA0
:10146000C1F800C0D1F804C06F6800EA0C0CBF03DB
:1014700048BF48EA0C0CC1F804C0D1F808C06F6836
:1014800000EA0C0CFF0248BF48EA0C0CC1F808C087
:10149000D1F80CC000EA0C0C6868800248BF48EA2A
:1014A0000C0CC1F80CC0761C0F2E7FF62FAFBDE8D8
:1014B000F18F02B90904816170470F4A1368014630
:1014C0000B421CBF116000F03ABA704700000000E8
:1014D000003C01404438024008380140000002400E
:1014E0000004024000080240000C024000100240CC
:1014F0000014024000180240143C014001484068BA
:10150000704700BF0000002000200860FFF7F6BF12
:101510002DE95041DFF87443DFF868636068DFF855
:10152000688300F00C00042804D0082804D00C289C
:1015300015D027E0404626E000F027F847BFC0F36B
:101540008816A8FB0601C0F38818A6FB080100F066
:10155000F7F92168C1F30141491C49000FE000F08F
:1015600014F847BFC0F38816A8FB0601C0F388181B
:10157000A6FB080100F0E4F92168C1F30271B0FB99
:10158000F1F000E03046BDE8508100232268206879
:101590004102206802F03F0270472DE9F8430646F9
:1015A000B24D3078C1074FD500F064F904280DD052
:1015B00000F060F9082802D16868410206D400F002
:1015C00059F90C280AD16868410207D528688103B7
:1015D0003AD57068002837D1012044E17068B0F531
:1015E000803F04D1286840F48030286011E0B0F5D5
:1015F000A02F286806D140F480202860296841F493
:10160000803105E020F480302860296821F48021B1
:101610002960706860B1FFF771FF04462868810394
:1016200012D4FFF76BFF001B6528F7D303201AE1E4
:10163000FFF764FF04462868810305D5FFF75EFFC6
:10164000001B6528F7D3F1E73078914F81071ED54D
:10165000A86810F00C0F0DD000F00CF9082802D18A
:101660006868410206D500F005F90C2823D16868A6
:10167000410220D42868810702D5F0680128ABD147
:101680002968306921F0F80141EAC0012960317808
:10169000080741D570697F4990B301220A60FFF7BE
:1016A0002DFF0446686F810736D4FFF727FF001B24
:1016B0000228F7D9BAE7F068A8B101213960FFF72D
:1016C0001DFF04462868810705D4FFF717FF001B9C
:1016D0000228F7D9AAE72868316920F0F80040EA23
:1016E000C1002860D3E73860FFF708FF0446296887
:1016F0008807CCD5FFF702FF001B0228F7D995E732
:10170000FFF703FF0446686F810705D5FFF7F6FE74
:10171000001B0228F7D989E73078410760D5286C8B
:101720000024C1000BD4002000900124296C41F05A
:1017300080512964286C00F0805000900098DFF8F8
:101740003081D8F80000C10513D4D8F8000040F467
:101750008070C8F80000FFF7D1FE8146D8F800007D
:10176000C10506D4FFF7CAFEA0EB09000228F5D98F
:101770005CE7B068012805D00528286F06D140F045
:1017800004002867286F40F0010005E04008400091
:101790002867286F20F00400286741F28938B06874
:1017A00060B1FFF7ABFE8146286F810713D4FFF7C6
:1017B000A5FEA0EB09004045F6D337E7FFF79EFEF4
:1017C0008146286F810706D5FFF798FEA0EB090038
:1017D0004045F6D32AE71CB1286C20F080502864DD
:1017E000B06900283ED0A96801F00C0108293FF437
:1017F000F3AE02282AD100F041F80446286881019E
:1018000005D5FFF77BFE001B0228F7D90EE7F0692C
:10181000316A726A0843B16A490840EA8210491E77
:1018200040EA0140F16A326B40EA016040EA02702E
:101830006860012000F023F804462868810111D473
:10184000FFF75CFE001B0228F7D9EFE600F016F860
:1018500004462868810105D5FFF750FE001B0228C9
:10186000F7D9E3E60020BDE8F2830000003802402B
:1018700000700040A86800F00C0070470020386637
:10188000FFF73CBE0024F40000127A000438024046
:1018900000004742800E474238B50D4D0D4B2A7867
:1018A00004464FF47A711868B1FBF2F2B0FBF2F023
:1018B000FFF704FD50B9102C08D2002221464FF04A
:1018C000FF30FFF7D3FCAC60002032BD012032BDF9
:1018D000000000200C00002062F30F2262F31F4280
:1018E000401810F0030308D0C91A1FD3DB0748BF04
:1018F00000F8012D28BF20F8022D130030B4144643
:101900001546103928BF20E93C00FAD8490728BFFE
:1019100020E90C0048BF40F8042D890028BF20F8BA
:10192000022D48BF00F8012D30BC7047C91818BF00
:1019300000F8012DCB0728BF00F8012D7047704734
:10194000D3BBD9B1B2F5803F5BD2022A1ED98C46F7
:10195000B1FBF2F102FB11C31B0443EA1043B3FBDA
:10196000F2FC02FB1C3380B240EA0343B3FBF2F00B
:1019700002FB103240EA0C4000237047022A05D9CE
:101980008446B0FBF2F002FB10C270474AB105D1A9
:1019900000F0010249085FEA30007047002200238E
:1019A000704700F051B80B00020000210020704782
:1019B000F7D3002200237047904271EB030CF2D35F
:1019C00070B5B1FA81F4B3FA83F52C1BA340C4F1CE
:1019D000200532FA05F63343A2405FF00046E640A8
:1019E00002E05B085FEA3202841A71EB030524BF50
:1019F000204629467641F4D302000B003000002136
:101A000070BD70B5B1FA81F4B2FA82F5C4F1200468
:101A10006419B4F12006DAD3B2405FF00044F44018
:101A2000002502E052085FEA3303C61A71EB020E8A
:101A300024BF3046714664416D41F3D302000B0070
:101A40002000290070BD0000704700002DE9F84318
:101A500086B000F085F900F013F9142200216846E1
:101A6000FFF7CBFB0020059044F28105AF48B04C56
:101A70000168B04EB04FDFF8C482DFF8C49241F085
:101A800004010160026802F0040205920022059937
:101A90000592036843F020030360016801F0200110
:101AA00000F0E9F843F080030360016801F0800171
:101AB00000F0E1F843F001030360016801F0010167
:101AC00000F0D9F843F002030360016801F002015D
:101AD00000F0D1F843F040030360016801F04001D9
:101AE0000591059905921C21036843F008030360E2
:101AF000006800F00800059005982046FFF7D9FC23
:101B0000002229463046FFF7D4FC00224021384607
:101B1000FFF7CFFC00224FF4E0714046FFF7C9FC0D
:101B200000224FF47C714846FFF7C3FC4FF400508D
:101B30008449009001910022029269464046FFF7D5
:101B4000DDFB1C2100910122019200210291022261
:101B5000039269462046FFF7D1FB01200190002245
:101B600002920392009569463046FFF7C7FB402179
:101B700000910122002101920291039169463846A9
:101B8000FFF7BCFB802000210090019102913846B4
:101B90006946FFF7B3FB4FF4E07100F063F840468D
:101BA000FFF7ACFB4FF4007000210090019102910F
:101BB00020466946FFF7A2FB022101910022029212
:101BC0004FF4E0500321009003910A2204926946E9
:101BD0002046FFF793FB4FF47C7100F043F8484632
:101BE000FFF78CFB002200212820FFF73FFB282075
:101BF000FFF759FB544C554855496060A1600020DF
:101C0000E06000214FF4804060612161A161E161E9
:101C100021626162201DFEF7D5FA08B100F09EF83E
:101C200000F01CF82070F42100F019F82070002159
:101C300000F015F8207040220121B42000F0DCF8FB
:101C400000F00CF82070012100F009F8207000F07D
:101C500005F82070642000F0EFF8FBE72021B420A5
:101C600000F098B800910122019200210291032214
:101C7000039269467047059105990592036870477C
:101C800000B593B03422002106A8FFF7B6FA14225B
:101C9000002101A8FFF7B1FA0020009001232D4890
:101CA000016841F0805101600021006800F080501F
:101CB0000090009828480091026842F44042026077
:101CC0000222006800F44040009006A800990692A5
:101CD00010210A910C92002108220D910E92B4213C
:101CE000022209930F91109211921292FFF755FC64
:101CF00008B100F033F800F0B3F808B172B6FEE7AF
:101D000002210291002203920F204FF4A051019072
:101D100004914FF480520592052101A8FFF7AEF916
:101D200008B172B6FEE713B000BD000030380240C3
:101D30000000024000040240001802400008024077
:101D4000000C024000001110100000200054004060
:101D5000A0860100403802400070004072B6FEE7E5
:101D600080B50B48016841F400710160026842F4DB
:101D700080620260016841F4807101600320FFF716
:101D800068FA0020FFF788FDFFF7AEF8002002BDDB
:101D9000003C024010B5274A136843F48073136077
:101DA0005369DC07FCD553690346136153699C07EB
:101DB000FCD55369946953691C06FCD511611168FF
:101DC00041F400711160136843F48073136051692A
:101DD000CB07FCD5401C5169106150698107FCD5C7
:101DE0005069916950694106FCD51069116841F448
:101DF00000711160C0B210BD30B50E4B1C6844F4C8
:101E000080741C605C69E507FCD55C6918615869E1
:101E10008407FCD558699C6958690406FCD519618A
:101E200058694107FCD51A61186840F400701860C1
:101E300030BD00000054004038B50446FFF75EFB9B
:101E400014F1010F054602D0044801786418FFF729
:101E500055FB401BA042FAD331BD00BF000000205B
:101E6000F8B500F027F8012100F01EF83160FFF707
:101E700045FB07462868C10306D4FFF73FFBC01B9C
:101E8000A042F7D30320F2BD01207060FFF736FBBC
:101E900006462868810305D4FFF730FB801BA0426B
:101EA000F7D3EFE70020F2BD006800F0805000900B
:101EB000009870470020009040F2E9340448054E35
:101EC0000168024D41F0805101607047047000408C
:101ED0004038024040000E4230B4002512E050F875
:101EE000042BD30744BF4A44521E091F042942F859
:101EF000045BFAD213468C0744BF15809B1CC907AC
:101F000048BF1D7050F8041B0029E8D130BC704751
:101F1000FEE7FEE7FEE7FEE7FEE770477047704723
:101F200000F00CB80248FEF709BA0148FEF7DCBD24
:101F3000140000204FF40050FFF7BFBA0248416878
:101F400002788A1842607047000000200448054A61
:101F5000016841F4700101604FF00060106070474B
:101F600088ED00E008ED00E0000000000000000047
:101F7000010203040607080910B50749794418311E
:101F8000064C7C44163404E00A68081D1144884756
:101F90000146A142F8D110BD2C0000004C00000009
:101FA0004EF68851CEF20001086840F470000860D7
:101FB000BFF34F8FBFF36F8F4FF00170E1EE100A48
:101FC0007047000015FFFFFF5800000010000020C0
:101FD000000000003BF2FFFF100000008000000046
:101FE000000000200000000000F00DF8002801D0E3
:101FF000FFF7C2FFAFF300800020AFF30080FFF7D0
:1020000025FD00F002F80120704700F001B8000043
:102010000746384600F002F8FBE7000080B5AFF352
:102020000080024A11001820ABBEFBE72600020028
:102030000548014603B4684680F30988AFF3008081
:10204000FFF7AEFFFFF7D0FFA5EDF5FE0148804793
:10205000014800474D1F0008312000080100000022
:1020600000000000100000000024F4000000000048
:1020700001020304FFF7FEBFFFF7FEBFFFF7FEBF3D
:10208000FFF7FEBFFFF7FEBFFFF7FEBFFFF7FEBF84
:10209000FFF7FEBFFFF7FEBFFFF7FEBFFFF7FEBF74
:1020A000FFF7FEBFFFF7FEBFFFF7FEBFFFF7FEBF64
:1020B000FFF7FEBFFFF7FEBFFFF7FEBFFFF7FEBF54
:1020C000FFF7FEBFFFF7FEBFFFF7FEBFFFF7FEBF44
:1020D000FFF7FEBFFFF7FEBFFFF7FEBFFFF7FEBF34
:1020E000FFF7FEBFFFF7FEBFFFF7FEBFFFF7FEBF24
:1020F000FFF7FEBFFFF7FEBFFFF7FEBFFFF7FEBF14
:10210000FFF7FEBFFFF7FEBFFFF7FEBFFFF7FEBF03
:10211000FFF7FEBFFFF7FEBFFFF7FEBFFFF7FEBFF3
:10212000FFF7FEBFFFF7FEBFFFF7FEBFFFF7FEBFE3
:10213000FFF7FEBFFFF7FEBFFFF7FEBFFFF7FEBFD3
:10214000FFF7FEBFFFF7FEBFFFF7FEBFFFF7FEBFC3
:10215000FFF7FEBFFFF7FEBFFFF7FEBFFFF7FEBFB3
:10216000FFF7FEBFFFF7FEBFFFF7FEBFFFF7FEBFA3
:10217000FFF7FEBFFFF7FEBFFFF7FEBFFFF7FEBF93
:10218000FFF7FEBFFFF7FEBFFFF7FEBFFFF7FEBF83
:10219000FFF7FEBFFFF7FEBFFFF7FEBFFFF7FEBF73
:1021A000FFF7FEBFFFF7FEBFFFF7FEBFFFF7FEBF63
:1021B000FFF7FEBFFFF7FEBFFFF7FEBFFFF7FEBF53
:04000005080020319E
:00000001FF
