:020000040800F2
:1000000068080020D51D0008991C00089B1C0008EA
:100010009D1C00089F1C0008A11C00080000000097
:10002000000000000000000000000000A31C000809
:10003000A51C000800000000A71C0008A91C00085F
:10004000F51D0008F91D0008FD1D0008011E00082F
:10005000051E0008091E00080D1E0008111E0008DC
:10006000151E0008191E00081D1E0008211E00088C
:10007000251E0008291E00082D1E0008311E00083C
:10008000351E0008391E00083D1E0008411E0008EC
:10009000451E0008491E00084D1E0008511E00089C
:1000A000551E0008591E00085D1E0008611E00084C
:1000B000651E0008691E00086D1E0008AD1C0008C2
:1000C000B31C0008711E0008751E0008791E000888
:1000D0007D1E0008811E0008851E0008891E00087C
:1000E000BD1C00088D1E0008911E0008951E00080A
:1000F000991E00089D1E0008A11E0008A51E0008EC
:10010000A91E0008AD1E0008B11E0008B51E00089B
:10011000B91E0008BD1E0008C11E0008C51E00084B
:10012000C91E0008CD1E0008D11E0008D51E0008FB
:10013000D91E00080000000000000000DD1E0008BD
:10014000E11E0008E51E0008E91E0008ED1E00087B
:10015000F11E0008F51E0008F91E0008FD1E00082B
:10016000011F0008051F0008091F00080D1F0008D7
:10017000111F0008151F0008191F000800000000CB
:10018000000000001D1F000800000000000000002B
:10019000211F00080000000000000000251F0008CB
:1001A000000000000000000000000000291F0008FF
:1001B0002D1F0008311F0008351F0008391F0008D7
:1001C0003D1F0008026842F4006202607047009818
:1001D000401E009000987047416841F48051416092
:1001E00070472DE9FC41044604F13C052268DFF824
:1001F000B86A5168E06AAB7895F801C00027102B07
:1002000018BF402B40F041829769D2F814C05FEAD2
:10021000CC7E05D4B0F52A0F18BFB0F12A4F47D0D5
:100220005FEACC7045D5880543D5E06AB0F52A0F62
:1002300008BF012104D0E06AB0F12A4F01D10821A2
:10024000E162A878402809D168690028A8681ABF27
:1002500040F00100C0B200F0FE0028E02069B0F5D7
:10026000804F16D168782128A8680EBF00F0FE00E4
:1002700040F00100C0B21061606B00281CBFC06B71
:1002800000282BD1A06B00281CBFC06B00280FD00A
:1002900024E0686920B900F0FDFA40F0F00006E0C3
:1002A0006869012804D100F0F5FA40F0F10010610E
:1002B000EBE25FEA0C7016D5880514D5A868C0B2C9
:1002C0001061616B002904BFA06B0028F0D0C86BDF
:1002D000002802BFA16BC86B0028E9D020684168E4
:1002E00041F4006126E15FEA8C7000D5880540F199
:1002F000A380AB78E16A276B6878222840F094806D
:100300006869002808BF402B07D10021009153697C
:10031000009391690091009AB7E26869002804BFD0
:100320002069B0F5404F08D100F0D6FA40F4807053
:1003300010606869401C6861A7E2608D28B900F010
:10034000CBFA40F4007010606BE0608D012835D16D
:10035000B14212D11146086820F480601060216813
:100360004868020504D50846024600F0C8FA23E0B2
:10037000002200924B6900930CE0082918BF202945
:1003800003D0122F0CD101290FD000F0B7FA116061
:1003900000F0F6FA89690091009800F0A8FA40E0B0
:1003A00004291CBF0229102902D000F0A7FA03E09B
:1003B0001046016841F4806111602DE0628D022ACF
:1003C00015D104291CBF0229102909D02068026810
:1003D000034622F480621A602068FFF7F3FE0CE007
:1003E00020680268034642F480621A6005E02268D1
:1003F0001368104643F48063036020684268130565
:100400000AD5B14218BF012904D008291CBF102900
:10041000202901D1FFF7E0FE00F0B2FA89690091CE
:1004200000980021696130E2002300935169009136
:1004300092690092009928E27F070CF0040060D5D1
:10044000D2F804E05FEA0E57F5D45FEA0C6732D5C4
:100450004F0530D500282ED16978AB78E76A208D1A
:10046000002808BF212917D1082F1CBF202FB74211
:1004700004D000F01AFA0022AA7033E000F06CFAFF
:10048000A878402806D10021A9702046BDE8F64191
:1004900000F07CBC00202AE0212903D0402B08BFBB
:1004A000222903D1608D10B900F0FAF9EDE1A878A6
:1004B000402822D0B7E10028F8D08805F6D5102BC7
:1004C0001BD1E16A68782128F0D1608D08B100F075
:1004D000AAB908291CBF2029B14206D000F0E5F9CD
:1004E0000020A8702021697002E000F035FAA870A1
:1004F0002046BDE8F64100F04ABC2046BDE8F64182
:10050000DBE253681E0516D45FEA4C6369D54E05DD
:1005100067D5002865D1687822280CD1608D042821
:100520000AD300F0CFF9608D032804D12068416818
:1005300021F480614160A8E1E16A0229FBD0012831
:1005400018BF0028F7D10020DFF8441300901920CD
:100550000B68B3FBF0F04FF47A76B0FBF6F606EBDF
:10056000860600962146FFF732FE20B10B68186818
:100570008405F8D41AE0686840F02000686050688C
:1005800020F4E06050600A6810694A6A1070486A96
:10059000431C4B622023488D421E4A856B7000200D
:1005A000A8700846BDE8F64100F0F2BB18460C46BC
:1005B0000168024621F48061116000F05FFB00F0E9
:1005C000C3F9202200F084F96A70A878402853D13A
:1005D0000021A970002020632046BDE8F64100F00C
:1005E000D8BB0028A7D08805A5D5E06A618D04296D
:1005F00004D100F055F9216808693FE1618D0329B4
:1006000010D1516821F480615160042818BF02287C
:1006100001D000F093F920680169606A0170616A95
:100620004A1C2FE1618D022940F02781012818BF63
:1006300010280DD0042818BF022804D010460168E5
:1006400041F4007106E01046016841F4806101E068
:1006500000F054F9116000F077F900F039F92268E0
:1006600000F030F92068416821F440714160202099
:100670006870A9784029ABD00020A87012212163AE
:100680002046BDE8F64100F085BB686800B997696F
:100690005369980722D5880520D5686800B1976905
:1006A0006878002100F02800282811D100F0F8F81F
:1006B000780758BF0121380654BFE268A2690020BC
:1006C000287002B02046BDE8F04192B200F063BB52
:1006D0006FF00201516100202870D6E0DF0674D56A
:1006E000880572D56F78506820F4E0605060002172
:1006F0000091206841690091206800F004F900F041
:100700001DF921684868020528D50FF2AD58222F3F
:1007100018BF2A2F10D0606B00F0FCF8606B00F05F
:100720004DFB01281AD0606BC0F85080606B00F060
:1007300033FB98B1606B0FE0A06B00F0EBF8A06B9F
:1007400000F03CFB012809D0A06BC0F85080A06BE2
:1007500000F022FB10B1A06B016D8847608D98B14D
:10076000206841694A0702D5006900F0ACF82068AA
:1007700041694A0602D5006900F0A5F8608D18B1FC
:10078000686840F004006860686818B12046BDE8F9
:10079000F641EFE12A2F05D1206328216970204618
:1007A00000F00FFB6878282807D1E66200F0E2F835
:1007B0002046BDE8F64100F005BB206B222818BF9B
:1007C000222F62D100F0D6F84DE003F00400BCF116
:1007D000210F18BFBCF1290F2CD11B061CD54E05CB
:1007E0001AD5C8B96978608D00284ED0606A037840
:1007F0001361606A421C626200F05EF808BF29293A
:1008000043D100F095F8212020632821697020460B
:10081000BDE8F64100F0D7BA002836D0890534D5B6
:10082000608D002831D0606A01781161606A411CD6
:10083000616228E05B061BD54E0519D5C0B9697801
:10084000608D10B31069626A1070606A431C636245
:1008500000F032F808BF2A2917D100F069F82220E9
:100860002063282169702046BDE8F64100F0A9BA4E
:1008700058B1890509D5608D38B11069616A087071
:10088000606A421C626200F023F8BDE8F381000058
:100890000C000020A8680004C00D00F0060070479E
:1008A000506820F4806050607047506820F4E06029
:1008B0005060112121637047608D421E6285608DFA
:1008C000002870471069616A0870606A421C6262A1
:1008D000608D411E6185704700210091536900932E
:1008E00091690091009A216808680A46704721685A
:1008F0000A68084642F400720260704710460168B8
:1009000021F4806170470268014642F001020A60EA
:1009100000987047026853686385608D18B16868F5
:1009200040F004006860486820F400604860704748
:100930002068416821F48061416070472068016847
:1009400021F480610160704720680169606A01706C
:10095000616A4A1C62627047506820F4E06050602F
:100960002068016841F400710160002020632021AB
:10097000697070470020206320216970A87070475B
:100980000020009021684A6900927047F8B505463A
:1009900005F13D0029684E694F6842780024F3054F
:1009A00005D5FB0503D56FF4807301244B61B105B8
:1009B00007D5FB0505D52B686FF4007144F00204E0
:1009C0005961710560D5FB055ED56B8D90F800C04F
:1009D000D5F830E06FF48061202A08BF002B48D1A1
:1009E000BCF1210F18BFBCF1290F05D0BCF1280FB5
:1009F00008BFBEF1210F3CD10278EB6ADFF8A8C234
:100A0000082B14BF202B282A17D1C5F82CC02A6820
:100A1000536823F4E06353602A68516120222968F7
:100A20000B6823F480630B600021296302700023AC
:100A30004370284600F0C6F926E0212A16D1C5F8F1
:100A40002CC02A63202303704FF0000C80F801C0F3
:100A50002868426822F4E0624260286841612868A0
:100A600000F026F8284600F0AEF90DE02868416154
:100A70000AE02B6844F004045961102A18BF402A88
:100A800002D1286800F013F9300507D5F90505D51E
:100A900029686FF4006044F00804486134B1286CA0
:100AA00004432C642846BDE8F24063E0F1BD3068A1
:100AB000016821F480610160704710B500F13D03C9
:100AC00000F148021C78916889B9006851680129D1
:100AD00005D11368DBB203619068801C05E01168E2
:100AE0000904090E01619068401C906010BD916876
:100AF000012907D113680068DBB203619168491CC2
:100B0000916010BD916802292DD1222C03D101687A
:100B100000F02AF810BD418D61B1212C0AD1416A43
:100B200003680A781A61416A4A1C4262418D4A1E72
:100B3000428510BD418D002908BF212C13D10168C9
:100B40004A6822F4E0624A60002401680A6842F4BC
:100B500000720A600021016320221A705C70BDE8F7
:100B6000104000F013B910BD0A68084642F48072C4
:100B70000260704738B5044604F13D05287869786D
:100B8000102914BF4029222804D121680A6822F4C0
:100B900000620A6000F02801282903D100202063A8
:100BA00029700BE0226851680A0505D4602803D03B
:100BB000202028700021697000202063206841688F
:100BC0000A0523D5416821F400614160606B0FF292
:100BD000E90190F83520012A09D00165606B00F029
:100BE000DBF8002825D000F056F8606B0BE0A06B16
:100BF0000165A06B00F0D0F8D8B1206800F034F89F
:100C000000F049F8A06B016D884712E02A78602A4D
:100C10000AD1202129700022226400F025F800F07A
:100C200033F800F0D1F804E000F01EF8204600F0A0
:100C3000AFF8206C10F00F0F01D000F01FF82878EB
:100C4000216C4A070ED528280CD11748E0620021F4
:100C500021632020287000226A702046BDE83240BF
:100C600000F0B0B831BD000041694A0605D5006901
:100C7000616A0870606A421C62627047206841685D
:100C800021F4E0614160704720680168490849002B
:100C900001602046704720680168490849000160EA
:100CA00020202870704700000000FFFF30680168B6
:100CB00041F40071016070477CB500210091192555
:100CC000816B314801F13D024FF47A761378046864
:100CD000B4FBF5F5B5FBF6F62320464300960098E5
:100CE00038B10098401E00900C6820688505F6D445
:100CF00003E0086C40F020000864486B08B1002451
:100D0000C463886B08B10024C4630868046824F4D1
:100D10008064046000204885486B08B100240465A5
:100D2000886B08B1002404650868046864086400DE
:100D30000460107860280AD12023137000245470B6
:100D400000220A640846BDE8764000F03DB803F092
:100D50002803282B0ED10868036843F001030360C1
:100D600028230868046844F4806404600020086351
:100D7000137003E020201070002454700846BDE872
:100D8000764000F005B800000C0000207047704766
:100D9000704770477047704790F83510022903D0AC
:100DA0008022426501207047052180F835100068D7
:100DB00002685208520002600020704790F8350027
:100DC000704770477047704770470EE0026843688D
:100DD000024408305FEAC37C44BF4B445B1E52F8B8
:100DE00004CB43F804CB091FF9D150F8041B0029A8
:100DF000ECD170470020086000F0C4B92DE95041E3
:100E0000DFF87443DFF868636068DFF8688300F038
:100E10000C00042804D0082804D00C2815D027E0A2
:100E2000404626E000F027F847BFC0F38816A8FB2D
:100E30000601C0F38818A6FB080100F0A9F9216893
:100E4000C1F30141491C49000FE000F014F847BF0D
:100E5000C0F38816A8FB0601C0F38818A6FB08019A
:100E600000F096F92168C1F30271B0FBF1F000E0E7
:100E70003046BDE850810023226820684102206886
:100E800002F03F0270472DE9F8430646B24D307834
:100E9000C1074FD500F064F904280DD000F060F9C7
:100EA000082802D16868410206D400F059F90C28DC
:100EB0000AD16868410207D5286881033AD570686D
:100EC000002837D1012044E17068B0F5803F04D19B
:100ED000286840F48030286011E0B0F5A02F286821
:100EE00006D140F480202860296841F4803105E073
:100EF00020F480302860296821F4802129607068FE
:100F000060B100F03FF904462868810312D400F074
:100F100039F9001B6528F7D303201AE100F032F9F4
:100F200004462868810305D500F02CF9001B6528CC
:100F3000F7D3F1E73078914F81071ED5A86810F0FC
:100F40000C0F0DD000F00CF9082802D1686841029E
:100F500006D500F005F90C2823D16868410220D499
:100F60002868810702D5F0680128ABD1296830696B
:100F700021F0F80141EAC00129603178080741D524
:100F800070697F4990B301220A6000F0FBF80446C3
:100F9000686F810736D400F0F5F8001B0228F7D9F6
:100FA000BAE7F068A8B10121396000F0EBF8044617
:100FB0002868810705D400F0E5F8001B0228F7D95E
:100FC000AAE72868316920F0F80040EAC1002860EB
:100FD000D3E7386000F0D6F8044629688807CCD5F6
:100FE00000F0D0F8001B0228F7D995E7FFF703FFC0
:100FF0000446686F810705D500F0C4F8001B02287D
:10100000F7D989E73078410760D5286C0024C10002
:101010000BD4002000900124296C41F080512964F8
:10102000286C00F0805000900098DFF83081D8F8EC
:101030000000C10513D4D8F8000040F48070C8F84F
:10104000000000F09FF88146D8F80000C10506D4E2
:1010500000F098F8A0EB09000228F5D95CE7B06829
:10106000012805D00528286F06D140F00400286724
:10107000286F40F0010005E0400840002867286F15
:1010800020F00400286741F28938B06860B100F0B0
:1010900079F88146286F810713D400F073F8A0EB2C
:1010A00009004045F6D337E700F06CF88146286F19
:1010B000810706D500F066F8A0EB09004045F6D39D
:1010C0002AE71CB1286C20F080502864B069002801
:1010D0003ED0A96801F00C0108293FF4F3AE0228C4
:1010E0002AD100F041F804462868810105D500F0B6
:1010F00049F8001B0228F7D90EE7F069316A726AD5
:101100000843B16A490840EA8210491E40EA01409A
:10111000F16A326B40EA016040EA027068600120C7
:1011200000F023F804462868810111D400F02AF861
:10113000001B0228F7D9EFE600F016F804462868ED
:10114000810105D500F01EF8001B0228F7D9E3E65F
:101150000020BDE8F283000000380240007000402B
:10116000A86800F00C0070470020386600F00AB84C
:101170000024F40000127A000438024000004742C4
:10118000800E474201484068704700BF00000020C1
:10119000D3BBD9B1B2F5803F5BD2022A1ED98C46AF
:1011A000B1FBF2F102FB11C31B0443EA1043B3FB92
:1011B000F2FC02FB1C3380B240EA0343B3FBF2F0C3
:1011C00002FB103240EA0C4000237047022A05D986
:1011D0008446B0FBF2F002FB10C270474AB105D161
:1011E00000F0010249085FEA300070470022002346
:1011F000704700F051B80B0002000021002070473A
:10120000F7D3002200237047904271EB030CF2D316
:1012100070B5B1FA81F4B3FA83F52C1BA340C4F185
:10122000200532FA05F63343A2405FF00046E6405F
:1012300002E05B085FEA3202841A71EB030524BF07
:10124000204629467641F4D302000B0030000021ED
:1012500070BD70B5B1FA81F4B2FA82F5C4F1200420
:101260006419B4F12006DAD3B2405FF00044F440D0
:10127000002502E052085FEA3303C61A71EB020E42
:1012800024BF3046714664416D41F3D302000B0028
:101290002000290070BD0000704700002DE9F84FC4
:1012A0000D4600267249734A0F23044601202F6819
:1012B000B04000EA0708804540F0C5804FEA460C80
:1012C000032707FA0CF76FEA070E6F68012F18BFA4
:1012D000022F03D0112F18BF122F12D1A768D5F8F3
:1012E0000C900EEA070709FA0CF949EA0707A7600C
:1012F000676827EA00006F68C7F30017B7403843F4
:101300006060E068AF680EEA000007FA0CF7384347
:10131000E060B0006F68022F18BF122F12D1F708DB
:1013200004EB870700F01C09D7F820A003FA09FB9B
:101330002AEA0B0AD5F810B00BFA09F949EA0A09AA
:10134000C7F8209027680EEA070E2F7907F00307E9
:1013500007FA0CF747EA0E0CC4F800C06F68FF00EC
:1013600071D5002700974FEA960CD2F800E04EF4B2
:10137000804EC2F800E000F00C00176807F48047C8
:101380000097DDF800E03C4F57F82C7003FA00FEA0
:1013900027EA0E0E394FBC4208BF00271DD0384F38
:1013A000BC4208BF012718D0364FBC4208BF0227F5
:1013B00013D0354FBC4208BF03270ED0334FBC4279
:1013C00008BF042709D0324FBC4208BF052704D00C
:1013D000304FBC420CBF0627072707FA00F040EA4F
:1013E0000E00DFF894E04EF82C006FEA0800D1F808
:1013F00000C06F6800EA0C0CFF0348BF48EA0C0C01
:10140000C1F800C0D1F804C06F6800EA0C0CBF033B
:1014100048BF48EA0C0CC1F804C0D1F808C06F6896
:1014200000EA0C0CFF0248BF48EA0C0CC1F808C0E7
:10143000D1F80CC000EA0C0C6868800248BF48EA8A
:101440000C0CC1F80CC0761C0F2E7FF62FAFBDE838
:10145000F18F02B90904816170470F4A1368014690
:101460000B421CBF116000F019B87047000000006B
:10147000003C01404438024008380140000002406E
:101480000004024000080240000C0240001002402C
:101490000014024000180240143C01407047000054
:1014A0000901020002D4534881547047524B02F0A4
:1014B0000F021A4402F8041C704710B54F48504CF4
:1014C000016841F0020101604E490A6822F470226D
:1014D0000A600B6843F420230B604A6A42F044021E
:1014E0004A628A6822F470228A608A6842F4702212
:1014F0008A600A6922F440720A610A6942F4407201
:101500000A61016941F400110161012000F07EF8D7
:101510002068400840002060E16941F0E101E1619C
:10152000606840F02D006060206A40F02E0020626C
:10153000E06840084000E060216821F0400121603F
:10154000206820F4003020602020216849084900EC
:1015500021600021FFF7A4FF01211F20FFF7A0FF5A
:101560002948012141604FF000420260206840F0AC
:1015700001002060216841F48061216010BD10B538
:101580001F4A136823F400631360146844F48064F2
:101590001460136843F4807313605369DC07FCD54F
:1015A00053690346136153699C07FCD553699469D9
:1015B000116151690B06FCD5116841F4807111600D
:1015C0005169CB07FCD5401C5169106150698107F6
:1015D000FCD550699169136823F480631360106827
:1015E00040F40070106050694106FCD51069C0B22B
:1015F00010BD000000E400E018ED00E030380240CB
:10160000005400400004024000E100E038B5044608
:10161000FFF7B8FD14F1010F054602D00448017828
:101620006418FFF7AFFD401BA042FAD331BD00BFE5
:101630000000002010B52820FFF7E8FF514C0022E1
:101640004FF480712046FFF704FF032000F04AF8B2
:1016500000F042F800F071F8002200F03EF800F0CF
:1016600038F8032000F03EF800F036F800F065F896
:10167000002200F032F800F02CF8032000F032F8DD
:1016800000F02AF800F059F8002200F026F800F0E7
:1016900020F8282000F052F800F01BF8282000F075
:1016A0004DF800F016F80C2000F048F800F011F8A2
:1016B000012000F043F80220FFF7A8FF062000F009
:1016C0003DF800F006F8022000F038F8BDE81040C0
:1016D00060E00120FFF79ABF01224FF4007120461D
:1016E000FFF7B7BE58B50446C4F3C000254E002826
:1016F00014BF0122002280213046FFF7AAFEC4F366
:101700008000002814BF0122002240213046FFF74C
:10171000A0FEC4F34000002814BF012200222021B3
:101720003046FFF796FEE0074CBF0122002230460C
:10173000BDE858401021FFF78CBE704738B504460D
:10174000104D0022FFE74FF480712846FFF781FE1D
:101750002009FFF7C7FF00F017F8FFF7EEFF0022A0
:1017600000F013F82046FFF7BDFF00F00DF8FFF77B
:10177000E4FF2846BDE8384000224FF40071FFF72F
:1017800068BE0000000C024001224FF400712846A0
:10179000FFF75FBE0220FFF739BF000010B586B02B
:1017A00000F098F800F034F800F08CF80020009079
:1017B00000224048404C016841F0080101604FF4AC
:1017C0007C71006800F00800009000982046FFF748
:1017D00040FE4FF47C71019101220292002103919D
:1017E0000322049201A92046FFF758FD00220021A0
:1017F000282000F0A3F8282000F0BDF8FFF71AFF1A
:10180000FFF75BFE00F0E2F86420FFF7FFFEF9E768
:1018100000B593B03422002106A800F0DBF800F0F8
:1018200051F80020009001232448016841F08051C4
:1018300001600021006800F080500090009820486E
:101840000091026842F4404202600222006800F403
:101850004040009006A80099069210210A910C922F
:10186000002108220D910E92B421022209930F91BA
:10187000109211921292FFF706FB08B100F027F8C0
:1018800000F0B2F808B172B6FEE702210291002220
:1018900003920F204FF4A051019004914FF4805215
:1018A0000592052101A800F0DBF808B172B6FEE749
:1018B00013B000BD30380240000C024040380240F6
:1018C000007000401422002101A800F083B872B615
:1018D000FEE7000080B50B48016841F4007101602B
:1018E000026842F480620260016841F48071016024
:1018F000032000F016F8002000F042F900F060F933
:10190000002002BD003C02400901020002D4294827
:1019100081547047284B02F00F021A4402F8041C4D
:101920007047264B19684FF6FF020002114000F481
:10193000E0600843224908431860704770B51F4BA8
:101940001C68C4F302230124C3F10705052D2EBF33
:101950000F2504FA05F56D1E1E1D072E34BF00234A
:10196000DB1E2940994004FA03F3BDE870405B1E7A
:101970001A401143C8E7010007D4012200F01F01FB
:10198000104B8A40400943F82020704710B5401E94
:10199000B0F1807F01D3012010BD0B4C60600F219E
:1019A0004FF0FF30FFF7B0FF0021A160072020605B
:1019B000002010BD00E400E018ED00E00CED00E0B8
:1019C0000000FA0500E100E010E000E0E3218020E3
:1019D000FFF7D5BD10B5044610460A46014620461D
:1019E00000F00AF9204610BDF8B500F027F80121F3
:1019F00000F01EF83160FFF7C5FB07462868C103F9
:101A000006D4FFF7BFFBC01BA042F7D30320F2BDF3
:101A100001207060FFF7B6FB06462868810305D4F5
:101A2000FFF7B0FB801BA042F7D3EFE70020F2BD29
:101A3000006800F0805000900098704700200090EF
:101A400040F2E9340448054E0168024D41F08051EE
:101A500001607047047000404038024040000E4270
:101A60002DE9F04104000F4654D0404E306800F09C
:101A70000F00B84202D200F073F84BD120683C4D01
:101A8000810712D5400703D5A96841F4E051A96048
:101A90002078010703D5A86840F46040A860A968D1
:101AA000A06821F0F0010143A9602178C80729D579
:101AB0006068012802D129688A0305E0022818BF5E
:101AC000032803D129688A0103D423E029688A07FF
:101AD00020D5A968890840EA8100A860FFF752FB79
:101AE0008046A868616800F00C00B0EB810F09D057
:101AF000FFF748FBA0EB080041F289318842F0D3A0
:101B000003202BE0306800F00F00874204D200F081
:101B100027F801D0012021E02078410705D5AA68E7
:101B2000E06822F4E0520243AA602178080706D553
:101B3000A968206921F4604141EAC001A960FFF76A
:101B40005DF9AA680B490C4BC2F30312895CC840CB
:101B500018600A48006800F013F80020BDE8F08122
:101B60003770316801F00F01B9427047003C024004
:101B700000380240F01C00080C0000200800002083
:101B800038B50D4D0D4B2A7804464FF47A7118681C
:101B9000B1FBF2F2B0FBF2F0FFF7F8FE50B9102CF7
:101BA00008D2002221464FF0FF30FFF7C7FEAC609D
:101BB000002032BD012032BD000000200C000020BA
:101BC00081B00020009000220A48416841F4804121
:101BD0004160416801F480410091009900920368DE
:101BE00043F080530360006800F08050009000983C
:101BF00001B070474038024062F30F2262F31F4287
:101C0000401810F0030308D0C91A1FD3DB0748BFE0
:101C100000F8012D28BF20F8022D130030B414461F
:101C20001546103928BF20E93C00FAD8490728BFDB
:101C300020E90C0048BF40F8042D890028BF20F897
:101C4000022D48BF00F8012D30BC7047C91818BFDD
:101C500000F8012DCB0728BF00F8012D704730B4E4
:101C6000002512E050F8042BD30744BF4A44521E0B
:101C7000091F042942F8045BFAD213468C0744BFBB
:101C800015809B1CC90748BF1D7050F8041B002914
:101C9000E8D130BC70470000FEE7FEE7FEE7FEE754
:101CA000FEE770477047704700F00CB80248FEF737
:101CB00098BA0148FEF76ABE100000204FF40050A9
:101CC000FFF7CBBB0248416802788A184260704730
:101CD000000000200448054A016841F470010160D9
:101CE0004FF000601060704788ED00E008ED00E004
:101CF00000000000000000000102030406070809BC
:101D000010B5074979441831064C7C44163404E078
:101D10000A68081D114488470146A142F8D110BD48
:101D20002C0000004C0000004EF68851CEF200015D
:101D3000086840F470000860BFF34F8FBFF36F8FE7
:101D40004FF00170E1EE100A7047000013FFFFFF33
:101D50005400000010000020000000006FF0FFFFA2
:101D600010000000800000000000002000000000C3
:101D700000F00DF8002801D0FFF7C2FFAFF300809C
:101D80000020AFF30080FFF709FD00F002F801200A
:101D9000704700F001B800000746384600F002F82E
:101DA000FBE7000080B5AFF30080024A1100182065
:101DB000ABBEFBE7260002000548014603B46846B7
:101DC00080F30988AFF30080FFF7AEFFFFF7D0FF85
:101DD000A5EDF5FE0148804701480047D51C0008E5
:101DE000B91D000801000000000000001000000004
:101DF0000024F400FFF7FEBFFFF7FEBFFFF7FEBFB2
:101E0000FFF7FEBFFFF7FEBFFFF7FEBFFFF7FEBF06
:101E1000FFF7FEBFFFF7FEBFFFF7FEBFFFF7FEBFF6
:101E2000FFF7FEBFFFF7FEBFFFF7FEBFFFF7FEBFE6
:101E3000FFF7FEBFFFF7FEBFFFF7FEBFFFF7FEBFD6
:101E4000FFF7FEBFFFF7FEBFFFF7FEBFFFF7FEBFC6
:101E5000FFF7FEBFFFF7FEBFFFF7FEBFFFF7FEBFB6
:101E6000FFF7FEBFFFF7FEBFFFF7FEBFFFF7FEBFA6
:101E7000FFF7FEBFFFF7FEBFFFF7FEBFFFF7FEBF96
:101E8000FFF7FEBFFFF7FEBFFFF7FEBFFFF7FEBF86
:101E9000FFF7FEBFFFF7FEBFFFF7FEBFFFF7FEBF76
:101EA000FFF7FEBFFFF7FEBFFFF7FEBFFFF7FEBF66
:101EB000FFF7FEBFFFF7FEBFFFF7FEBFFFF7FEBF56
:101EC000FFF7FEBFFFF7FEBFFFF7FEBFFFF7FEBF46
:101ED000FFF7FEBFFFF7FEBFFFF7FEBFFFF7FEBF36
:101EE000FFF7FEBFFFF7FEBFFFF7FEBFFFF7FEBF26
:101EF000FFF7FEBFFFF7FEBFFFF7FEBFFFF7FEBF16
:101F0000FFF7FEBFFFF7FEBFFFF7FEBFFFF7FEBF05
:101F1000FFF7FEBFFFF7FEBFFFF7FEBFFFF7FEBFF5
:101F2000FFF7FEBFFFF7FEBFFFF7FEBFFFF7FEBFE5
:101F3000FFF7FEBFFFF7FEBFFFF7FEBFFFF7FEBFD5
:0400000508001DB919
:00000001FF
