:020000040800F2
:10000000B0080020C52E00089D2D00089F2D000877
:10001000A12D0008A32D0008A52D00080000000058
:10002000000000000000000000000000A72D0008F4
:10003000A92D000800000000AB2D0008AD2D000820
:10004000D52E0008D92E0008DD2E0008E12E00086C
:10005000E52E0008E92E0008ED2E0008F12E00081C
:10006000F52E0008F92E0008FD2E0008012F0008CB
:10007000052F0008092F00080D2F0008112F000878
:10008000152F0008192F00081D2F0008212F000828
:10009000252F0008292F00082D2F0008312F0008D8
:1000A000352F0008392F00083D2F0008412F000888
:1000B000452F0008492F00084D2F0008B12D0008DA
:1000C000B72D0008512F0008552F0008592F0008A0
:1000D0005D2F0008612F0008652F0008692F0008B8
:1000E000C12D00086D2F0008712F0008752F000822
:1000F000792F00087D2F0008812F0008852F000828
:10010000892F00088D2F0008912F0008952F0008D7
:10011000992F00089D2F0008A12F0008A52F000887
:10012000A92F0008AD2F0008B12F0008B52F000837
:10013000B92F00080000000000000000BD2F0008DB
:10014000C12F0008C52F0008C92F0008CD2F0008B7
:10015000D12F0008D52F0008D92F0008DD2F000867
:10016000E12F0008E52F0008E92F0008ED2F000817
:10017000F12F0008F52F0008F92F000800000000FB
:1001800000000000FD2F000800000000000000003B
:1001900001300008000000000000000005300008E9
:1001A000000000000000000000000000093000080E
:1001B0000D30000811300008153000081930000813
:1001C0001D3000082DE9F84304460E46154600F0A0
:1001D00057FB04F13C0780467878202808D1CDF8F9
:1001E000008019230122DFF8B81500F063FB002816
:1001F00040F08080387801287CD00121397000F0EF
:1002000042FB21207870102100F080F92085DFF872
:100210009405E062E16A082918BF012904D08142EF
:100220001CBF206B122801D100F03BFBCDF80080F1
:100230000022089D2B4600F03BFB38B12068016886
:10024000CA0550D54FF4007078604CE02069B0F5D5
:10025000804F08BF06F0FE0610D0F109206801F0BB
:10026000060141F0F001016143462A46DFF83815E6
:10027000204601F0F5F9002835D1F6B22068DFF804
:100280002C15066143462A46204601F0E9F900286C
:1002900029D1009021684A69009289690091009AE9
:1002A000208D002821D04246294601F0C3F8A8B984
:1002B00000F020F9401E208521684A69530706D5C1
:1002C00080B220B1606A02780A6100F009F9424602
:1002D0002946204601F032FA0028E1D07868042847
:1002E00001D101F0A0F8012005E001F09CF800F038
:1002F0001AF900E00220BDE8F2832DE9F84F00F082
:10030000E0F800F0A3F902D100F092F9002840F0E3
:10031000C7803878012800F0C38000F083F901D449
:1003200000F09AF900F006F91021B9700020786009
:10033000C6F82490A6F82A80708D3085DFF8640412
:10034000F062F16A3268136843F48063136008292D
:1003500018BF012904D081421CBF306B112801D184
:1003600000F0ABFA00940022DDF828904B464FF0E5
:10037000011100F0D5F800284FF4007A2FD1306930
:10038000DFF82884B0F5804F05D1306845F00105CD
:10039000EDB205612FE0E809326800F0060B4BF082
:1003A000F001116123464A46DFF8FC1300F086F89D
:1003B00000286BD13068EDB2056100F07CF80028B0
:1003C00064D100904B4600F011FA316800F044FF10
:1003D000009400224FF0011100F0A2F830B1306813
:1003E0000168CA0552D5C7F804A04FE030684BF049
:1003F000F10BC0F810B000F05EF8002846D1308D47
:1004000018B1012804D100F016FA00F0F6F915E051
:1004100002283068016802D100F059F802E041F486
:1004200080610160002000F0E0F907E000F0C7F90A
:1004300000282BD100F0BCF900F035F8308D0028F1
:100440002BD004281FD20128F0D00228DFF8205436
:1004500000944B460AD100F061F8002816D100F054
:10046000F1F9716A0870706A421CE5E700F056F80D
:1004700000280BD100F093FE4B4600F0CCF900F0C1
:100480004EF818B9EBE700F09AF908B1012008E03E
:1004900000F09AF9D2D50069E3E700F044F800E0F3
:1004A0000220BDE8F28F308D7262411E3185708D61
:1004B000411E7185704723464A464146304601F049
:1004C000CFB806460D469146984601F0B7B921F4DB
:1004D000806101603068026842F400620260704727
:1004E000606A411C6162608D411E6185208D411EE4
:1004F00021857047606A226801781161606A411C39
:100500006162608D411E6185208D7047B970002049
:1005100078606562A4F82A90608D704700222946B1
:10052000304601F075B8202078700021B9700020A5
:10053000387070473068016821F400610160222042
:10054000787070472DE9FC4700F07AF800F07EF8EB
:100550005DD100F06DF8002859D13878012856D0C7
:1005600000F060F801D400F077F84146D6F800E0DA
:100570000C9D0B98DDF828C0DEF8008028F4006898
:10058000CEF800804FF0210E87F801E04FF04008D0
:1005900087F802804FF0000EC7F804E000F0F1F891
:1005A00000F0F9FE00282BD108E0716A0A78026198
:1005B000706A411C7162308DFFF777FF308DA0B1FA
:1005C00022462946304601F08EF8A0B9706A32689A
:1005D00001781161706A411C7162308D411E00F01A
:1005E00019F8EBD589B20029DFD1224629463046D9
:1005F00001F0A4F830B17868042801D100F096FF2A
:10060000012005E000F092FFFFF78DFF00E00220DF
:10061000BDE8F6873185708D421E7285306842696B
:10062000530770470121397030680268D10770475D
:100630000094192301225A49304600F0E9BF000016
:100640000646884691469A4601F0F8B806F13C07FE
:100650000446787820287047026842F00102026060
:1006600070472DE9FC47FFF7EBFFFFF7EFFF02D1E3
:10067000FFF7DEFF002840F08180387801287DD028
:10068000FFF7D0FF01D4FFF7E7FF4146D6F800E0BF
:100690000C9D0B98DDF828C0DEF8008028F4006877
:1006A000CEF800804FF0220E87F801E04FF04008AE
:1006B00087F802804FF0000EC7F804E000F061F800
:1006C00000F0BAFE00284FD1308D18B1012804D1B6
:1006D00000F0B1F800F091F817E0022806D1306878
:1006E0000168FFF7F4FE0020009001E00021009176
:1006F00000F07CF809E02246294600F062F8002864
:1007000032D100F055F8FFF7CEFE308D002832D000
:10071000042824D20128EED00228DFF85481009466
:100720002B460CD100224146FFF7FAFE00281BD1D0
:1007300000F088F8716A0870706A421CE3E70022D2
:100740004146FFF7EDFE00280ED100F028FD2B46B4
:1007500000F061F84146FFF7E3FE28B9E8E72246DA
:10076000294600F02EF808B1012008E000F02CF82E
:10077000CBD50069DEE7FFF7D6FE00E00220BDE83A
:10078000F687C6F824C070855346708DDFF814C014
:100790003085C6F82CC04A46019400953046704713
:1007A000020010000000FFFF08000100020001002D
:1007B00030680169706A0170716A4A1C704722468C
:1007C0004946304600F0D7BF30680169706A017051
:1007D000716A308D4A1C411E72623185708D411ED6
:1007E0007185306841694A077047009031684A69ED
:1007F00000928969009100987047009031684A69B9
:10080000009289690091009831680A68084642F4AC
:1008100000720260704730680169706A0170716A25
:10082000308D4A1C411E726231850022708D411E3E
:100830007185009470473068016821F4806101601F
:10084000002070473068016841F400710160306831
:100850000169706A0170716A308D4A1C411E7262B2
:100860003185708D411E71853268106970470000B6
:10087000040001000098401E0090009870479046C8
:10088000994600F0DBBF20680268D10703D40268F4
:1008900042F0010202602068016821F400610160F9
:1008A00070472068016841F4807101607047002240
:1008B0004FF00111204600F0ABBE3068016841F4F2
:1008C000807101607047416841F480514160704718
:1008D0002DE9FC41044604F13C052268DFF80C6C6C
:1008E0005168E06AAB7895F801C00027102B18BF5B
:1008F000402B40F041829769D2F814C05FEACC7E69
:1009000005D4B0F52A0F18BFB0F12A4F47D05FEADF
:10091000CC7045D5880543D5E06AB0F52A0F08BFED
:10092000012104D0E06AB0F12A4F01D10821E1622F
:10093000A878402809D168690028A8681ABF40F043
:100940000100C0B200F0FE0028E02069B0F5804F41
:1009500016D168782128A8680EBF00F0FE0040F08C
:100960000100C0B21061606B00281CBFC06B002882
:100970002BD1A06B00281CBFC06B00280FD024E037
:10098000686920B900F0FEFA40F0F00006E06869FE
:10099000012804D100F0F6FA40F0F1001061EBE21A
:1009A0005FEA0C7016D5880514D5A868C0B210612E
:1009B000616B002904BFA06B0028F0D0C86B002831
:1009C00002BFA16BC86B0028E9D02068416841F4E0
:1009D000006126E15FEA8C7000D5880540F1A380B4
:1009E000AB78E16A276B6878222840F094806869C8
:1009F000002808BF402B07D10021009153690093C4
:100A000091690091009AB7E26869002804BF2069E3
:100A1000B0F5404F08D100F0D7FA40F48070106074
:100A20006869401C6861A7E2608D28B900F0CCFAC3
:100A300040F4007010606BE0608D012835D1B14248
:100A400012D11146086820F480601060216848685F
:100A5000020504D50846024600F0C9FA23E0002248
:100A600000924B6900930CE0082918BF202903D09D
:100A7000122F0CD101290FD000F0B8FA116000F04C
:100A8000F7FA89690091009800F0A9FA40E004297A
:100A90001CBF0229102902D000F0A8FA03E010467A
:100AA000016841F4806111602DE0628D022A15D148
:100AB00004291CBF0229102909D0206802680346B6
:100AC00022F480621A602068FFF705FD0CE02068C0
:100AD0000268034642F480621A6005E022681368E7
:100AE000104643F4806303602068426813050AD50A
:100AF000B14218BF012904D008291CBF10292029A0
:100B000001D1FFF7E0FE00F0B3FA89690091009887
:100B10000021696130E200230093516900919269DC
:100B20000092009928E27F070CF0040060D5D2F80B
:100B300004E05FEA0E57F5D45FEA0C6732D54F0543
:100B400030D500282ED16978AB78E76A208D00284F
:100B500008BF212917D1082F1CBF202FB74204D06E
:100B600000F01BFA0022AA7033E000F06DFAA878BA
:100B7000402806D10021A9702046BDE8F64100F0CA
:100B800063BE00202AE0212903D0402B08BF222980
:100B900003D1608D10B900F0FBF9EDE1A878402891
:100BA00022D0B7E10028F8D08805F6D5102B1BD14C
:100BB000E16A68782128F0D1608D08B100F0AAB907
:100BC00008291CBF2029B14206D000F0E6F9002018
:100BD000A8702021697002E000F036FAA870204663
:100BE000BDE8F64100F031BE2046BDE8F641DCE24A
:100BF00053681E0516D45FEA4C6369D54E0567D568
:100C0000002865D1687822280CD1608D04280AD389
:100C100000F0D0F9608D032804D12068416821F4E8
:100C200080614160A8E1E16A0229FBD0012818BF78
:100C30000028F7D10020DFF84813009019200B6836
:100C4000B3FBF0F04FF47A76B0FBF6F606EB8606CF
:100C500000962146FFF70EFE20B10B681868840548
:100C6000F8D41AE0686840F020006860506820F40A
:100C7000E06050600A6810694A6A1070486A431C54
:100C80004B622023488D421E4A856B700020A8705D
:100C90000846BDE8F64100F0D9BD18460C4601688B
:100CA000024621F48061116000F060FB00F0C4F99D
:100CB000202200F085F96A70A878402853D10021DD
:100CC000A970002020632046BDE8F64100F0BFBDBA
:100CD0000028A7D08805A5D5E06A618D042904D134
:100CE00000F056F9216808693FE1618D032910D1B0
:100CF000516821F480615160042818BF022801D096
:100D000000F094F920680169606A0170616A4A1C08
:100D10002FE1618D022940F02781012818BF10289A
:100D20000DD0042818BF022804D01046016841F4F1
:100D3000007106E01046016841F4806101E000F0B6
:100D400055F9116000F078F900F03AF9226800F0E6
:100D500031F92068416821F44071416020206870B9
:100D6000A9784029ABD00020A87012212163204629
:100D7000BDE8F64100F06CBD686800B99769536939
:100D8000980722D5880520D5686800B197696878EA
:100D9000002100F02800282811D100F0F9F8780788
:100DA00058BF0121380654BFE268A26900202870AC
:100DB00002B02046BDE8F04192B200F04ABD6FF0AB
:100DC0000201516100202870D6E0DF0674D5880545
:100DD00072D56F78506820F4E06050600021009177
:100DE000206841690091206800F005F900F01EF9C3
:100DF00021684868020528D50FF23D78222F18BFD8
:100E00002A2F10D0606B00F0FDF8606B00F034FD0D
:100E100001281AD0606BC0F85080606B00F01AFD9A
:100E200098B1606B0FE0A06B00F0ECF8A06B00F0E5
:100E300023FD012809D0A06BC0F85080A06B00F002
:100E400009FD10B1A06B016D8847608D98B12068D5
:100E500041694A0702D5006900F0ADF82068416990
:100E60004A0602D5006900F0A6F8608D18B16868DE
:100E700040F004006860686818B12046BDE8F6419B
:100E8000F0E12A2F05D1206328216970204600F067
:100E9000F6FC6878282807D1E66200F0E3F82046DF
:100EA000BDE8F64100F0ECBC206B222818BF222FD1
:100EB00062D100F0D7F84DE003F00400BCF1210F3F
:100EC00018BFBCF1290F2CD11B061CD54E051AD515
:100ED000C8B96978608D00284ED0606A03781361C4
:100EE000606A421C626200F05FF808BF292943D1A2
:100EF00000F096F821202063282169702046BDE883
:100F0000F64100F0BEBC002836D0890534D5608D8E
:100F1000002831D0606A01781161606A411C616209
:100F200028E05B061BD54E0519D5C0B96978608DE0
:100F300010B31069626A1070606A431C636200F04B
:100F400033F808BF2A2917D100F06AF8222020635D
:100F5000282169702046BDE8F64100F090BC58B1E8
:100F6000890509D5608D38B11069616A0870606AB9
:100F7000421C626200F024F8BDE8F381000000002A
:100F8000A8000020A8680004C00D00F0060070470B
:100F9000506820F4806050607047506820F4E06032
:100FA0005060112121637047608D421E6285608D03
:100FB000002870471069616A0870606A421C6262AA
:100FC000608D411E61857047002100915369009337
:100FD00091690091009A216808680A467047216863
:100FE0000A68084642F400720260704710460168C1
:100FF00021F4806170470268014642F001020A60F4
:1010000000987047026853686385608D18B16868FE
:1010100040F004006860486820F400604860704751
:101020002068416821F48061416070472068016850
:1010300021F480610160704720680169606A017075
:10104000616A4A1C62627047506820F4E060506038
:101050002068016841F400710160002020632021B4
:10106000697070470020206320216970A870704764
:101070000020009021684A6900927047F8B5054643
:1010800005F13D0029684E694F6842780024F30558
:1010900005D5FB0503D56FF4807301244B61B105C1
:1010A00007D5FB0505D52B686FF4007144F00204E9
:1010B0005961710560D5FB055ED56B8D90F800C058
:1010C000D5F830E06FF48061202A08BF002B48D1AA
:1010D000BCF1210F18BFBCF1290F05D0BCF1280FBE
:1010E00008BFBEF1210F3CD10278EB6ADFF8FCC3E8
:1010F000082B14BF202B282A17D1C5F82CC02A682A
:10110000536823F4E06353602A6851612022296800
:101110000B6823F480630B600021296302700023B5
:101120004370284600F0ACFB26E0212A16D1C5F812
:101130002CC02A63202303704FF0000C80F801C0FC
:101140002868426822F4E0624260286841612868A9
:1011500000F026F8284600F094FB0DE02868416175
:101160000AE02B6844F004045961102A18BF402A91
:1011700002D1286800F0DBF9300507D5F90505D55F
:1011800029686FF4006044F00804486134B1286CA9
:1011900004432C642846BDE8F24063E0F1BD3068AA
:1011A000016821F480610160704710B500F13D03D2
:1011B00000F148021C78916889B9006851680129DA
:1011C00005D11368DBB203619068801C05E01168EB
:1011D0000904090E01619068401C906010BD91687F
:1011E000012907D113680068DBB203619168491CCB
:1011F000916010BD916802292DD1222C03D1016884
:1012000000F02AF810BD418D61B1212C0AD1416A4C
:1012100003680A781A61416A4A1C4262418D4A1E7B
:10122000428510BD418D002908BF212C13D10168D2
:101230004A6822F4E0624A60002401680A6842F4C5
:1012400000720A600021016320221A705C70BDE800
:10125000104000F0F9BA10BD0A68084642F48072E6
:101260000260704738B5044604F13D052878697876
:10127000102914BF4029222804D121680A6822F4C9
:1012800000620A6000F02801282903D100202063B1
:1012900029700BE0226851680A0505D4602803D044
:1012A0002020287000216970002020632068416898
:1012B0000A0523D5416821F400614160606B0FF29B
:1012C000792190F83520012A09D00165606B00F082
:1012D000C1FA002825D000F056F8606B0BE0A06B37
:1012E0000165A06B00F0B6FAD8B1206800F034F8C0
:1012F00000F049F8A06B016D884712E02A78602A57
:101300000AD1202129700022226400F025F800F083
:1013100033F800F0B7FA04E000F01EF8204600F0C1
:1013200095FA206C10F00F0F01D000F01FF828780C
:10133000216C4A070ED528280CD16C48E0620021A8
:1013400021632020287000226A702046BDE83240C8
:1013500000F096BA31BD000041694A0605D5006922
:10136000616A0870606A421C626270472068416866
:1013700021F4E06141607047206801684908490034
:1013800001602046704720680168490849000160F3
:101390002020287070472DE9F84304462068DDF8C6
:1013A0002080099FD0F800C04CF4807C8946154607
:1013B0001E46C0F800C000974346FFF778FA40B1D8
:1013C00020680168CA0544BF4FF400702064032000
:1013D00027E02068DFF8301209F0FE09C0F810900D
:1013E0003B464246204600F03BF9A0B900902168F8
:1013F00000F082F800F01EF840B9012E0DD02168EF
:10140000280A08613A4600F014F830B1206C04282C
:1014100001D100F008F8012003E02068EDB2056179
:101420000020BDE8F2832068016841F4007101608A
:1014300070474146204656E12DE9F84F0546286899
:10144000DDF828800B9F0C4600F06BF816462868E4
:10145000D0F800C04CF4807C9946C0F800C000F081
:1014600058F800284FF4007A2CD12968DFF898B199
:1014700004F0FE00086100F047F8002832D1009027
:10148000296800F039F800F035F870B9B9F1010FAA
:1014900005D02968300A086100F02AF828B92868C0
:1014A000F6B2066100F024F830B1286C042819D196
:1014B000286800F03CF815E02868FFF7FFF900F015
:1014C00028F838B128680168CA0548BFC5F840A0A7
:1014D000032008E0286844F00104E4B2046100F04D
:1014E00013F800B10120BDE8F28F00000000FFFFFB
:1014F0003A4641462846F6E04A6900923A468969EA
:1015000000914146009870473B464246594628465E
:10151000A6E00097434600224FF00111284677E0ED
:101520003068016841F4806101607047306801688B
:1015300041F40071016070477CB5002100911925CC
:10154000816B324801F13D024FF47A7613780468DA
:10155000B4FBF5F5B5FBF6F623204643009600985C
:1015600038B10098401E00900C6820688505F6D4BC
:1015700003E0086C40F020000864486B08B10024C8
:10158000C463886B08B10024C4630868046824F449
:101590008064046000204885486B08B1002404651D
:1015A000886B08B100240465086804686408640056
:1015B0000460107860280AD120231370002454702E
:1015C00000220A640846BDE8764000F05BB903F0EB
:1015D0002803282B0ED10868036843F00103036039
:1015E00028230868046844F48064046000200863C9
:1015F000137003E020201070002454700846BDE8EA
:10160000764000F023B9000002000100A80000208D
:101610002DE9F041069F05460E4690461C463102D4
:101620002868090E01290CBF40698069304080B2EA
:10163000B1B288420CBF0120002040450DD114F109
:10164000010FECD000F0FAF8C01B844201D3002C4B
:10165000E5D100F065F8012000E00020BDE8F08150
:10166000F8B505460E4614461F463102090E286895
:1016700001291AD14169314089B2B2B291421AD0DE
:101680004069410519D5286800F025F82A6850619D
:10169000002105F13C0029632022427081704268DC
:1016A00042F004024260017013E08169314089B266
:1016B000B2B29142E4D10020F2BD14F1010FD4D0B6
:1016C00000F0BCF8C01B844201D3002CCDD100F047
:1016D00027F80120F2BD0268014642F400720A6058
:1016E0006FF48060704770B505460C461646286852
:1016F0004169080612D4284600F06AF808B10120B2
:1017000070BD14F1010FF2D000F098F8801B8442F4
:1017100001D3002CEBD100F003F8F0E7002070BDFE
:1017200000202863202105F13C00002241708270D6
:10173000416841F0200141600270704770B5054674
:101740000C46164628684169480712D4284600F01E
:101750003FF808B1012070BD14F1010FF2D000F084
:101760006DF8801B844201D3002CEBD1FFF7D8FF2A
:10177000F0E7002070BD70B505460C461646286897
:1017800041694A0618D44169CA0607D400F056F8E0
:10179000801B84420BD3002CF1D108E06FF01001C4
:1017A000416100F00BF841600270012070BD00F053
:1017B00005F841F02001F6E7002070BD0020286305
:1017C000202105F13C000022417082704168704781
:1017D00010B501684A6953050DD56FF480644C61FA
:1017E000002101633C30202343708170436843F043
:1017F00004034360017012F4806018BF0120C0B27E
:1018000010BD30B5016884684218416802EB51038D
:10181000C90703D54C4401E0491C08D19A4218BFBE
:1018200012F9011B01D10C3030BD12F8015B002907
:1018300004F8015BF0D4491EF7D5EFE70148406892
:10184000704700BF9C00002070477047704770478A
:101850007047704790F83510022903D08022426506
:1018600001207047052180F8351000680268520891
:10187000520002600020704790F8350070477047B2
:1018800070477047704700002DE9F8432DED048B39
:101890000FF2EC510FF2EC540A6825680FF2E85190
:1018A0000FF2E854DFF89465DFF89475DFF894855B
:1018B000DFF894958AB008A807AB02601D6006A8FF
:1018C0000A682568DFF88445026005AB1D6000F0FA
:1018D000DFFA00F05DFA14220021684600F0F2FA07
:1018E0000020099044F28105DFF86405016841F0A9
:1018F00004010160026802F00402099200220999C1
:101900000992036843F020030360016801F020019D
:1019100000F02AFA43F080030360016801F08001BF
:1019200000F022FA43F001030360016801F00101B5
:1019300000F01AFA43F002030360016801F00201AB
:1019400000F012FA43F040030360016801F0400127
:101950000991099909921C21036843F00803036067
:10196000006800F0080009900998204600F08FFBFD
:1019700000222946304600F08AFB002240213846EA
:1019800000F085FB00224FF4E071404600F07FFB41
:1019900000224FF47C71484600F079FB4FF4005070
:1019A000DFF8B0140090019100220292694640468F
:1019B00000F092FA1C210091012201920021029173
:1019C000022203926946204600F086FA0120019027
:1019D00000220292039200956946304600F07CFA9C
:1019E0004021009101220021029103910192694658
:1019F000384600F071FA8020002100900191029198
:101A00003846694600F068FA4FF4E07100F0A3F937
:101A1000404600F061FA4FF40070002100900191FF
:101A200002912046694600F057FA022101910022F6
:101A300002924FF4E0500321009003910A22049295
:101A40006946204600F048FA4FF47C7100F083F9B3
:101A5000484600F041FA00220021282000F056FB01
:101A6000282000F070FB00F0A6FB00F0F7FBF4204C
:101A70008DF80C004FF49671DFF8DC43042004F17C
:101A800038020291019000920123FF22B42104F157
:101A90004800FEF757FD00F03DF900F01FF90290F5
:101AA0000191009201232022B42104F14800FEF7A5
:101AB000D8FD00F02FF900F05CF900F02BF964205C
:101AC0000090012303AAB42104F14800FEF77AFB39
:101AD00000F04FF900F01EF94FF49670012104F167
:101AE000350200F025F9FEF72DFD00F013F900F0A6
:101AF00040F900F00FF900F0F1F800F019F9FEF7E5
:101B0000B0FD00F007F94FF49670082104F13C0293
:101B100000F017F900F0FEF864259FEDD09A9FEDD4
:101B2000D08B4FF49670082104F1080200F009F9F7
:101B3000207A617A009541EA0021A182012304F113
:101B40003402702104F14800FEF73CFB00F0E2F89B
:101B5000009506232246702104F14800FEF7CDFBD4
:101B6000E67822796179300400F4702040EA02209E
:101B7000084300F05DFC0022BB4B00F067FC53EC17
:101B8000182B00F063FC00F037FDA178090100EE8E
:101B9000100A6078DFEDB50A41EA003170EE200AE4
:101BA00041EA1616C4ED0B0A304600F041FC002253
:101BB000B04B00F04BFC53EC182B00F047FC00F04E
:101BC0001BFD2063A6624FF47A7000F049FD64218A
:101BD00094ED0B0A00F088F8E0616421C4ED060A78
:101BE0000A2694ED0C0A00F07FF86062C4ED080A42
:101BF0000021002000F000FC08A800F0EDFBA08A06
:101C000042F2107190FBF1F000F089F8A08A4FF4D5
:101C10007A7190FBF1F000F082F8A08A90FBF5F069
:101C200000F07DF8A08A00F078F8A08A00F069F84A
:101C3000A07AE17A41EA0021E1820920002100F046
:101C4000DBFB07A800F0C8FBE08A4FF47A7190FB39
:101C5000F1F000F064F8E08A90FBF5F000F05FF836
:101C6000E08A00F05AF8E08A00F04BF801210020E9
:101C700000F0C2FB05A800F0AFFBA06900F04DF832
:101C8000A06900F03EF82E2000F09CFBE06900F017
:101C900044F8E06900F035F80121092000F0ACFBC0
:101CA00006A800F099FB206A00F037F8206A00F0DF
:101CB00028F82E2000F086FB606A00F02EF8606A9B
:101CC0000A2190FBF1F106FB11063036F0B200F06C
:101CD00079FB4FF4FA7000F0C3FC22E74FF49670E2
:101CE000012104F13C027047FDEEC00A20EE090A12
:101CF000BDEEC00A10EE100A90FBF1F105FB1100D9
:101D000070470A2190FBF1F106FB11003030C0B2A0
:101D100000F058BB642000F0A3BC90FBF6F00A2250
:101D200090FBF2F206FB12003030C0B200F04ABB6A
:101D300002900191009201230122B42104F1480094
:101D4000704702900191009201230222B42104F114
:101D50004800FEF786BC0091012201920021029109
:101D60000322039269467047099109990992036811
:101D700070474FF49670012104F13C0202900191EA
:101D8000009201230022B42104F14800FEF769BC4F
:101D900000B593B03422002106A800F093F8142275
:101DA000002101A800F08EF80020009001233048A7
:101DB000016841F0805101600021006800F080500E
:101DC000009000982C480091026842F44042026062
:101DD0000222006800F44040009006A80099069294
:101DE00010210A910C92002108220D910E92B4212B
:101DF000022209930F9110921192129200F08DFC21
:101E000008B100F03BF800F007FE08B172B6FEE73B
:101E100002210291002203920F204FF4A051019061
:101E200004914FF480520592052101A800F030FE84
:101E300008B172B6FEE713B000BD00000004024016
:101E40000018024000080240000C0240000002405E
:101E50003038024000001110000000200000C8428D
:101E6000000000000000B03E00006940000048C2D1
:101E700040380240000059400070004072B6FEE752
:101E8000433A0000563A0000483A0000543A000035
:101E900080B50B48016841F400710160026842F4AA
:101EA00080620260016841F480710160032000F0EB
:101EB00020F9002000F07CFE00F09AFE002002BD18
:101EC000003C024010B5044610460A460146204632
:101ED00000F0AAFE204610BD2DE9F84F0D46002661
:101EE0007249734A0F23044601202F68B04000EA6C
:101EF0000708804540F0C5804FEA460C032707FAE3
:101F00000CF76FEA070E6F68012F18BF022F03D07E
:101F1000112F18BF122F12D1A768D5F80C900EEA16
:101F2000070709FA0CF949EA0707A760676827EA73
:101F300000006F68C7F30017B74038436060E0687F
:101F4000AF680EEA000007FA0CF73843E060B00013
:101F50006F68022F18BF122F12D1F70804EB870702
:101F600000F01C09D7F820A003FA09FB2AEA0B0AA3
:101F7000D5F810B00BFA09F949EA0A09C7F8209018
:101F800027680EEA070E2F7907F0030707FA0CF708
:101F900047EA0E0CC4F800C06F68FF0071D5002737
:101FA00000974FEA960CD2F800E04EF4804EC2F84B
:101FB00000E000F00C00176807F480470097DDF898
:101FC00000E03C4F57F82C7003FA00FE27EA0E0E93
:101FD000394FBC4208BF00271DD0384FBC4208BF54
:101FE000012718D0364FBC4208BF022713D0354F07
:101FF000BC4208BF03270ED0334FBC4208BF0427A2
:1020000009D0324FBC4208BF052704D0304FBC4234
:102010000CBF0627072707FA00F040EA0E00DFF89A
:1020200094E04EF82C006FEA0800D1F800C06F6809
:1020300000EA0C0CFF0348BF48EA0C0CC1F800C0D2
:10204000D1F804C06F6800EA0C0CBF0348BF48EA2F
:102050000C0CC1F804C0D1F808C06F6800EA0C0C81
:10206000FF0248BF48EA0C0CC1F808C0D1F80CC008
:1020700000EA0C0C6868800248BF48EA0C0CC1F802
:102080000CC0761C0F2E7FF62FAFBDE8F18F02B982
:102090000904816170470F4A136801460B421CBF57
:1020A000116000F0F4BD704700000000003C0140EA
:1020B0004438024008380140000002400004024059
:1020C00000080240000C02400010024000140240D0
:1020D00000180240143C01400901020002D42948C2
:1020E00081547047284B02F00F021A4402F8041C76
:1020F0007047264B19684FF6FF020002114000F4AA
:10210000E0600843224908431860704770B51F4BD0
:102110001C68C4F302230124C3F10705052D2EBF5B
:102120000F2504FA05F56D1E1E1D072E34BF002372
:10213000DB1E2940994004FA03F3BDE870405B1EA2
:102140001A401143C8E7010007D4012200F01F0123
:10215000104B8A40400943F82020704710B5401EBC
:10216000B0F1807F01D3012010BD0B4C60600F21C6
:102170004FF0FF30FFF7B0FF0021A1600720206083
:10218000002010BD00E400E018ED00E00CED00E0E0
:102190000000FA0500E100E010E000E009010200A3
:1021A00002D4284881547047274B02F00F021A448A
:1021B00002F8041C704780B52448016841F004010E
:1021C000016023490A6822F470220A600B6843F414
:1021D00020230B604A6A42F044024A628A6822F471
:1021E00070228A608A6842F470228A600A6922F446
:1021F00040720A610A6942F440720A61016941F45D
:10220000001101611348416841F02D014160C1692D
:1022100041F0E101C161016A41F02E01016200213A
:10222000026842F0010202602020FFF7B7FF01219F
:102230001F20FFF7B3FF0848012141604FF0004223
:10224000026001BD00E400E018ED00E0303802401B
:10225000000402400054004000E100E010B52820D6
:1022600000F0FEF9534C00224FF480712046FFF736
:102270000EFF032000F04AF800F042F800F071F879
:10228000002200F03EF800F038F8032000F03EF89D
:1022900000F036F800F065F8002200F032F800F0A7
:1022A0002CF8032000F032F800F02AF800F059F87A
:1022B000002200F026F800F020F8282000F052F864
:1022C00000F01BF8282000F04DF800F016F80C2064
:1022D00000F048F800F011F8012000F043F8022067
:1022E00000F0BEF9062000F03DF800F006F80220EC
:1022F00000F038F8BDE810406BE0012000F0B0B904
:1023000001224FF400712046FFF7C1BE58B50446C4
:10231000C4F3C000274E002814BF012200228021F0
:102320003046FFF7B4FEC4F38000002814BF01223A
:10233000002240213046FFF7AAFEC4F340000028E7
:1023400014BF0122002220213046FFF7A0FEE00743
:102350004CBF012200223046BDE858401021FFF753
:1023600096BE704738B50446124D002203E038B5DA
:102370000446104D01224FF480712846FFF787FE76
:102380002009FFF7C3FF00F017F8FFF7EAFF00226C
:1023900000F013F82046FFF7B9FF00F00DF8FFF743
:1023A000E0FF2846BDE8384000224FF40071FFF7F7
:1023B0006EBE0000000C024001224FF4007128465E
:1023C000FFF765BE80B5FFF7D2FFFFF7CAFFBDE894
:1023D0000240022000F044B938B50446002505E06B
:1023E000FFF7C5FF022000F03BF96D1CE8B2205C4E
:1023F0000028F5D131BD0000032900D9704780B510
:10240000DFE801F00205070940F0800007E04030F6
:1024100002E0143000E0543040F08000C0B2FFF71A
:10242000A1FFBDE80240012000F01AB901BD000083
:1024300050B1B0FA80F18840C91CC1F5846109052A
:1024400001EBD021400570470146704730B540F29E
:10245000FF7C1CEA11541DBF1CEA135564456545F9
:102460003FE0641981EA030C6FF35F530CF0004CFA
:1024700043F48013C90241F0004141EA505EC502B5
:102480001100A5FB020200284FF00000EEFB012026
:102490004FF00001E3FB052118BF42F00102401894
:1024A00000214941E3FB0E01A4F580640D0302D233
:1024B00092184041494154F1010470DD450872F120
:1024C000004250F1000051EB0451A1F5801102D4FB
:1024D00041EA0C0130BD40F2FF7E4CEA0E51002073
:1024E00030BD0CEA1355644518BF654581EA030CFD
:1024F0000CF0004C41D050EA410E1CBF52EA430E92
:1025000002E06146002030BD24422C441BD15FEA2A
:10251000050EF6D0090302BF01460020AEF1140EED
:10252000B1FA81F5AEEB050401FA05FE0C35C5F1F3
:10253000200100FA05F5C8404EEA000E6FF35F5324
:1025400043F480139CE733F00043B3FA83F504BFF0
:10255000B2FA82FE75440B3D641BB5F1200E2FBF0D
:1025600002FA0EF3AB40C5F1200E22FA0EFE38BF80
:1025700043EA0E03AA40641C7CE750EA410E14BFF4
:1025800052EA430E6FF000014FF4001515EB430FB4
:102590008EBF194615EB410F9DE7B4D830BDD4F17D
:1025A0000104B4F120050FDAC4F12005520828BF58
:1025B00042F0010210FA05FE01FA05F57244E2BF8D
:1025C000E0402843E1400FE0352C9ADCC5F12004BF
:1025D00052EA400220FA05F218BF42F0010231FA35
:1025E00005F0A1400A43002172F1004250F10000C1
:1025F00051EB0C0130BD000001F000428B1AA3F139
:102600006051B1F5801F0ADBB1F17F6F1FD242EA42
:10261000C102C10071F1004142EB507070470B15CF
:10262000C3F10903212B10D2890241EA90518002A3
:102630000128494141F0004121FA03F0C3F1200390
:10264000994071F1004150417047100070476FF0A0
:10265000000013EB103F5CBF000E42EAC050704711
:1026600038B50446FFF7EAF814F1010F054602D029
:10267000044801786418FFF7E1F8401BA042FAD340
:1026800031BD00BF9C00002000200860FFF7D6B8D5
:102690002DE95041DFF87443DFF868636068DFF8C4
:1026A000688300F00C00042804D0082804D00C280B
:1026B00015D027E0404626E000F027F847BFC0F3DA
:1026C0008816A8FB0601C0F38818A6FB080100F0D5
:1026D000DFFA2168C1F30141491C49000FE000F015
:1026E00014F847BFC0F38816A8FB0601C0F388188A
:1026F000A6FB080100F0CCFA2168C1F30271B0FB1F
:10270000F1F000E03046BDE85081002322682068E7
:102710004102206802F03F0270472DE9F843064667
:10272000B24D3078C1074FD500F064F904280DD0C0
:1027300000F060F9082802D16868410206D400F070
:1027400059F90C280AD16868410207D52868810325
:102750003AD57068002837D1012044E17068B0F59F
:10276000803F04D1286840F48030286011E0B0F543
:10277000A02F286806D140F480202860296841F401
:10278000803105E020F480302860296821F4802120
:102790002960706860B1FFF751F80446286881032A
:1027A00012D4FFF74BF8001B6528F7D303201AE17A
:1027B000FFF744F804462868810305D5FFF73EF883
:1027C000001B6528F7D3F1E73078914F81071ED5BC
:1027D000A86810F00C0F0DD000F00CF9082802D1F9
:1027E0006868410206D500F005F90C2823D1686815
:1027F000410220D42868810702D5F0680128ABD1B6
:102800002968306921F0F80141EAC0012960317876
:10281000080741D570697F4990B301220A60FFF72C
:102820000DF80446686F810736D4FFF707F8001BE0
:102830000228F7D9BAE7F068A8B101213960FEF79C
:10284000FDFF04462868810705D4FEF7F7FF001B4B
:102850000228F7D9AAE72868316920F0F80040EA91
:10286000C1002860D3E73860FEF7E8FF0446296816
:102870008807CCD5FEF7E2FF001B0228F7D995E7C1
:10288000FFF703FF0446686F810705D5FEF7D6FF03
:10289000001B0228F7D989E73078410760D5286CFA
:1028A0000024C1000BD4002000900124296C41F0C9
:1028B00080512964286C00F0805000900098DFF867
:1028C0003081D8F80000C10513D4D8F8000040F4D6
:1028D0008070C8F80000FEF7B1FF8146D8F800000C
:1028E000C10506D4FEF7AAFFA0EB09000228F5D91E
:1028F0005CE7B068012805D00528286F06D140F0B4
:1029000004002867286F40F0010005E040084000FF
:102910002867286F20F00400286741F28938B068E2
:1029200060B1FEF78BFF8146286F810713D4FEF755
:1029300085FFA0EB09004045F6D337E7FEF77EFFA1
:102940008146286F810706D5FEF778FFA0EB0900C6
:102950004045F6D32AE71CB1286C20F0805028644B
:10296000B06900283ED0A96801F00C0108293FF4A5
:10297000F3AE02282AD100F041F80446286881010C
:1029800005D5FEF75BFF001B0228F7D90EE7F069BB
:10299000316A726A0843B16A490840EA8210491EE6
:1029A00040EA0140F16A326B40EA016040EA02709D
:1029B0006860012000F023F804462868810111D4E2
:1029C000FEF73CFF001B0228F7D9EFE600F016F8EF
:1029D00004462868810105D5FEF730FF001B022858
:1029E000F7D9E3E60020BDE8F2830000003802409A
:1029F00000700040A86800F00C00704700203866A6
:102A0000FEF71CBF0024F40000127A0004380240D4
:102A100000004742800E4742F8B500F027F8012138
:102A200000F01EF83160FEF709FF07462868C10371
:102A300006D4FEF703FFC01BA042F7D30320F2BD6C
:102A400001207060FEF7FAFE06462868810305D46F
:102A5000FEF7F4FE801BA042F7D3EFE70020F2BDA3
:102A6000006800F0805000900098704700200090AF
:102A700040F2E9340448054E0168024D41F08051AE
:102A800001607047047000404038024040000E4230
:102A90002DE9F04104000F4654D0404E306800F05C
:102AA0000F00B84202D200F073F84BD120683C4DC1
:102AB000810712D5400703D5A96841F4E051A96008
:102AC0002078010703D5A86840F46040A860A96891
:102AD000A06821F0F0010143A9602178C80729D539
:102AE0006068012802D129688A0305E0022818BF1E
:102AF000032803D129688A0103D423E029688A07BF
:102B000020D5A968890840EA8100A860FEF796FEF2
:102B10008046A868616800F00C00B0EB810F09D016
:102B2000FEF78CFEA0EB080041F289318842F0D319
:102B300003202BE0306800F00F00874204D200F041
:102B400027F801D0012021E02078410705D5AA68A7
:102B5000E06822F4E0520243AA602178080706D513
:102B6000A968206921F4604141EAC001A960FFF72A
:102B70008FFDAA680B490C4BC2F30312895CC84055
:102B800018600A48006800F013F80020BDE8F081E2
:102B90003770316801F00F01B9427047003C0240C4
:102BA00000380240F42D0008A8000020A4000020F6
:102BB00038B50D4D0D4B2A7804464FF47A711868DC
:102BC000B1FBF2F2B0FBF2F0FFF7C8FA50B9102CEB
:102BD00008D2002221464FF0FF30FFF797FAAC6091
:102BE000002032BD012032BD9C000020A800002042
:102BF00081B00020009000220A48416841F48041E1
:102C00004160416801F4804100910099009203689D
:102C100043F080530360006800F0805000900098FB
:102C200001B070474038024062F30F2262F31F4246
:102C3000401810F0030308D0C91A1FD3DB0748BFA0
:102C400000F8012D28BF20F8022D130030B41446DF
:102C50001546103928BF20E93C00FAD8490728BF9B
:102C600020E90C0048BF40F8042D890028BF20F857
:102C7000022D48BF00F8012D30BC7047C91818BF9D
:102C800000F8012DCB0728BF00F8012D70477047D1
:102C9000D3BBD9B1B2F5803F5BD2022A1ED98C4694
:102CA000B1FBF2F102FB11C31B0443EA1043B3FB77
:102CB000F2FC02FB1C3380B240EA0343B3FBF2F0A8
:102CC00002FB103240EA0C4000237047022A05D96B
:102CD0008446B0FBF2F002FB10C270474AB105D146
:102CE00000F0010249085FEA30007047002200232B
:102CF000704700F051B80B0002000021002070471F
:102D0000F7D3002200237047904271EB030CF2D3FB
:102D100070B5B1FA81F4B3FA83F52C1BA340C4F16A
:102D2000200532FA05F63343A2405FF00046E64044
:102D300002E05B085FEA3202841A71EB030524BFEC
:102D4000204629467641F4D302000B0030000021D2
:102D500070BD70B5B1FA81F4B2FA82F5C4F1200405
:102D60006419B4F12006DAD3B2405FF00044F440B5
:102D7000002502E052085FEA3303C61A71EB020E27
:102D800024BF3046714664416D41F3D302000B000D
:102D90002000290070BD000070470000FEE7FEE73C
:102DA000FEE7FEE7FEE770477047704700F00CB89B
:102DB0000248FDF78DBD0148FEF760B948000020CC
:102DC0004FF40050FFF767B90248416802788A184B
:102DD000426070479C0000200448054A016841F4A5
:102DE000700101604FF000601060704788ED00E0F6
:102DF00008ED00E0000000000000000001020304F4
:102E00000607080910B5074979441831064C7C4477
:102E1000163404E00A68081D114488470146A1429F
:102E2000F8D110BD2C000000380000004EF688518B
:102E3000CEF20001086840F470000860BFF34F8FC5
:102E4000BFF36F8F4FF00170E1EE100A7047000082
:102E5000B3E9FFFFCC0100003200000000000020B9
:102E600000F00DF8002801D0FFF7CCFFAFF3008091
:102E70000020AFF30080FEF707FD00F002F801200C
:102E8000704700F001B800000746384600F002F82D
:102E9000FBE7000080B5AFF30080024A1100182064
:102EA000ABBEFBE7260002000548014603B46846B6
:102EB00080F30988AFF30080FFF7B8FFFFF7D0FF7A
:102EC000A5EDF5FE0148804701480047D92D0008CF
:102ED000A92E0008FFF7FEBFFFF7FEBFFFF7FEBFFA
:102EE000FFF7FEBFFFF7FEBFFFF7FEBFFFF7FEBF16
:102EF000FFF7FEBFFFF7FEBFFFF7FEBFFFF7FEBF06
:102F0000FFF7FEBFFFF7FEBFFFF7FEBFFFF7FEBFF5
:102F1000FFF7FEBFFFF7FEBFFFF7FEBFFFF7FEBFE5
:102F2000FFF7FEBFFFF7FEBFFFF7FEBFFFF7FEBFD5
:102F3000FFF7FEBFFFF7FEBFFFF7FEBFFFF7FEBFC5
:102F4000FFF7FEBFFFF7FEBFFFF7FEBFFFF7FEBFB5
:102F5000FFF7FEBFFFF7FEBFFFF7FEBFFFF7FEBFA5
:102F6000FFF7FEBFFFF7FEBFFFF7FEBFFFF7FEBF95
:102F7000FFF7FEBFFFF7FEBFFFF7FEBFFFF7FEBF85
:102F8000FFF7FEBFFFF7FEBFFFF7FEBFFFF7FEBF75
:102F9000FFF7FEBFFFF7FEBFFFF7FEBFFFF7FEBF65
:102FA000FFF7FEBFFFF7FEBFFFF7FEBFFFF7FEBF55
:102FB000FFF7FEBFFFF7FEBFFFF7FEBFFFF7FEBF45
:102FC000FFF7FEBFFFF7FEBFFFF7FEBFFFF7FEBF35
:102FD000FFF7FEBFFFF7FEBFFFF7FEBFFFF7FEBF25
:102FE000FFF7FEBFFFF7FEBFFFF7FEBFFFF7FEBF15
:102FF000FFF7FEBFFFF7FEBFFFF7FEBFFFF7FEBF05
:10300000FFF7FEBFFFF7FEBFFFF7FEBFFFF7FEBFF4
:10301000FFF7FEBFFFF7FEBFFFF7FEBFFFF7FEBFE4
:10302000CC0007AC40000011E5728AA0000001F955
:09303000000010FC000224F40071
:0400000508002EA918
:00000001FF
