:020000040800F2
:10000000780800206D2700084526000847260008CC
:10001000492600084B2600084D2600080000000075
:100020000000000000000000000000004F26000853
:10003000512600080000000053260008552600083D
:1000400085270008892700088D27000891270008C8
:1000500095270008992700089D270008A127000878
:10006000A5270008A9270008AD270008B127000828
:10007000B5270008B9270008BD270008C1270008D8
:10008000C5270008C9270008CD270008D127000888
:10009000D5270008D9270008DD270008E127000838
:1000A000E5270008E9270008ED270008F1270008E8
:1000B000F5270008F9270008FD2700085926000841
:1000C0005F26000801280008052800080928000804
:1000D0000D28000811280008152800081928000814
:1000E000692600081D280008212800082528000886
:1000F000292800082D280008312800083528000884
:10010000392800083D280008412800084528000833
:10011000492800084D2800085128000855280008E3
:10012000592800085D280008612800086528000893
:100130006928000800000000000000006D28000889
:100140007128000875280008792800087D28000813
:100150008128000885280008892800088D280008C3
:100160009128000895280008992800089D28000873
:10017000A1280008A5280008A92800080000000000
:1001800000000000AD280008000000000000000092
:10019000B12800080000000000000000B528000899
:1001A000000000000000000000000000B928000866
:1001B000BD280008C1280008C5280008C928000873
:1001C000CD280008F8B5040022D004F13C05697878
:1001D00021B900202870204601F038F924216970E7
:1001E00000F0DDF92068016841F4004101602068F9
:1001F000026822F40042026001F05EFA0146606883
:10020000DFF84C21904205D2DFF84831994205D2FF
:100210000120F2BDDFF840018142F9D32068DFF808
:100220003C314668B1FBF3F3B60943EA86164660F3
:100230002668376A6068904206D34FF4967043434D
:100240004FF47A70B3FBF0F35B1CBF0943EA8713EA
:100250003362491E2368DE696768974206D27F00D1
:1002600000F044F8042913D2042111E0A06820B959
:1002700007EB470700F03AF805E01920474300F084
:1002800035F841F4804108050CBF012141F40041DB
:10029000DFF8CC0006400E43DE6122681368E16996
:1002A000206A23F0C0030B43034313602268DFF886
:1002B000B400936821690340E0680B4303439360F3
:1002C0002168CA68A3696069120A034343EA0222EB
:1002D000CA602068016841F0010101600020686087
:1002E0002021697020630021A970F2BDB1FBF7F1F4
:1002F000491CC1F30B017047308D7262411E31857C
:10030000708D411E7185704721F4806101603068F5
:10031000026842F4006202607047002229463046BB
:1003200000F09EBF202078700021B9700020387046
:1003300070470121397030680268D1077047009416
:10034000192301226049304600F08ABF00000000F6
:10035000A186010080841E0000093D0040420F007C
:100360000030FFFF007CFFFF0646884691469A4614
:1003700001F0BCB906F13C070446787820287047A4
:10038000026842F00102026070472DE9FC47FFF766
:10039000EBFFFFF7EFFF02D1FFF7D1FF002840F09E
:1003A0008180387801287DD0FFF7C3FF01D4FFF7A3
:1003B000E7FF4146D6F800E00C9D0B98DDF828C019
:1003C000DEF8008028F40068CEF800804FF0220E9E
:1003D00087F801E04FF0400887F802804FF0000EE8
:1003E000C7F804E000F061F800F04DFE00284FD19E
:1003F000308D18B1012804D100F0ADF800F08DF86F
:1004000017E0022806D130680168FFF77DFF002061
:10041000009001E00021009100F078F809E0224608
:10042000294600F05EF8002832D100F051F8FFF7BD
:1004300063FF308D002832D0042824D20128EED06A
:100440000228DFF84C8100942B460CD10022414653
:10045000FFF765FF00281BD100F084F8716A08706F
:10046000706A421CE3E700224146FFF758FF00286C
:100470000ED100F00CFD2B4600F05DF84146FFF771
:100480004EFF28B9E8E72246294600F02AF808B1CD
:10049000012008E000F028F8CBD50069DEE7FFF77F
:1004A00041FF00E00220BDE8F687C6F824C0708551
:1004B0005346708DDFF814C03085C6F82CC04A460C
:1004C0000194009530467047020010000000FFFFC5
:1004D00030680169706A0170716A4A1C704722466F
:1004E0004946304600F052BF30680169706A0170B9
:1004F000716A308D4A1C411E72623185708D411EB9
:100500007185306841694A077047009031684A69CF
:1005100000928969009100987047009031684A699B
:10052000009289690091009831680A68084642F48F
:1005300000720260704730680169706A0170716A08
:10054000308D4A1C411E726231850022708D411E21
:100550007185009470473068016821F48061016002
:10056000002070473068016841F400710160306814
:100570000169706A0170716A308D4A1C411E726295
:100580003185708D411E7185326810697047000099
:10059000040001000098401E0090009870472068F9
:1005A000026852085200026070473068016841F4E6
:1005B000807101607047416841F48051416070472B
:1005C0002DE9FC41044604F13C052268DFF86C6B20
:1005D0005168E06AAB7895F801C00027102B18BF6E
:1005E000402B40F041829769D2F814C05FEACC7E7C
:1005F00005D4B0F52A0F18BFB0F12A4F47D05FEAF3
:10060000CC7045D5880543D5E06AB0F52A0F08BF00
:10061000012104D0E06AB0F12A4F01D10821E16242
:10062000A878402809D168690028A8681ABF40F056
:100630000100C0B200F0FE0028E02069B0F5804F54
:1006400016D168782128A8680EBF00F0FE0040F09F
:100650000100C0B21061606B00281CBFC06B002895
:100660002BD1A06B00281CBFC06B00280FD024E04A
:10067000686920B900F0FEFA40F0F00006E0686911
:10068000012804D100F0F6FA40F0F1001061EBE22D
:100690005FEA0C7016D5880514D5A868C0B2106141
:1006A000616B002904BFA06B0028F0D0C86B002844
:1006B00002BFA16BC86B0028E9D02068416841F4F3
:1006C000006126E15FEA8C7000D5880540F1A380C7
:1006D000AB78E16A276B6878222840F094806869DB
:1006E000002808BF402B07D10021009153690093D7
:1006F00091690091009AB7E26869002804BF2069F7
:10070000B0F5404F08D100F0D7FA40F48070106087
:100710006869401C6861A7E2608D28B900F0CCFAD6
:1007200040F4007010606BE0608D012835D1B1425B
:1007300012D11146086820F4806010602168486872
:10074000020504D50846024600F0C9FA23E000225B
:1007500000924B6900930CE0082918BF202903D0B0
:10076000122F0CD101290FD000F0B8FA116000F05F
:10077000F7FA89690091009800F0A9FA40E004298D
:100780001CBF0229102902D000F0A8FA03E010468D
:10079000016841F4806111602DE0628D022A15D15B
:1007A00004291CBF0229102909D0206802680346C9
:1007B00022F480621A602068FFF7AAFD0CE020682E
:1007C0000268034642F480621A6005E022681368FA
:1007D000104643F4806303602068426813050AD51D
:1007E000B14218BF012904D008291CBF10292029B3
:1007F00001D1FFF7E0FE00F0B3FA8969009100989B
:100800000021696130E200230093516900919269EF
:100810000092009928E27F070CF0040060D5D2F81E
:1008200004E05FEA0E57F5D45FEA0C6732D54F0556
:1008300030D500282ED16978AB78E76A208D002862
:1008400008BF212917D1082F1CBF202FB74204D081
:1008500000F01BFA0022AA7033E000F06DFAA878CD
:10086000402806D10021A9702046BDE8F64100F0DD
:1008700043BF00202AE0212903D0402B08BF2229B2
:1008800003D1608D10B900F0FBF9EDE1A8784028A4
:1008900022D0B7E10028F8D08805F6D5102B1BD15F
:1008A000E16A68782128F0D1608D08B100F0AAB91A
:1008B00008291CBF2029B14206D000F0E6F900202B
:1008C000A8702021697002E000F036FAA870204676
:1008D000BDE8F64100F011BF2046BDE8F641DCE27C
:1008E00053681E0516D45FEA4C6369D54E0567D57B
:1008F000002865D1687822280CD1608D04280AD39D
:1009000000F0D0F9608D032804D12068416821F4FB
:1009100080614160A8E1E16A0229FBD0012818BF8B
:100920000028F7D10020DFF84813009019200B6849
:10093000B3FBF0F04FF47A76B0FBF6F606EB8606E2
:1009400000962146FFF726FE20B10B681868840543
:10095000F8D41AE0686840F020006860506820F41D
:10096000E06050600A6810694A6A1070486A431C67
:100970004B622023488D421E4A856B700020A87070
:100980000846BDE8F64100F0B9BE18460C460168BD
:10099000024621F48061116000F060FB00F0C4F9B0
:1009A000202200F085F96A70A878402853D10021F0
:1009B000A970002020632046BDE8F64100F09FBEEC
:1009C0000028A7D08805A5D5E06A618D042904D147
:1009D00000F056F9216808693FE1618D032910D1C3
:1009E000516821F480615160042818BF022801D0A9
:1009F00000F094F920680169606A0170616A4A1C1C
:100A00002FE1618D022940F02781012818BF1028AD
:100A10000DD0042818BF022804D01046016841F404
:100A2000007106E01046016841F4806101E000F0C9
:100A300055F9116000F078F900F03AF9226800F0F9
:100A400031F92068416821F44071416020206870CC
:100A5000A9784029ABD00020A8701221216320463C
:100A6000BDE8F64100F04CBE686800B9976953696B
:100A7000980722D5880520D5686800B197696878FD
:100A8000002100F02800282811D100F0F9F878079B
:100A900058BF0121380654BFE268A26900202870BF
:100AA00002B02046BDE8F04192B200F02ABE6FF0DD
:100AB0000201516100202870D6E0DF0674D5880558
:100AC00072D56F78506820F4E0605060002100918A
:100AD000206841690091206800F005F900F01EF9D6
:100AE00021684868020528D50FF29D68222F18BF9B
:100AF0002A2F10D0606B00F0FDF8606B00F014FE40
:100B000001281AD0606BC0F85080606B00F0FAFDCD
:100B100098B1606B0FE0A06B00F0ECF8A06B00F0F8
:100B200003FE012809D0A06BC0F85080A06B00F034
:100B3000E9FD10B1A06B016D8847608D98B1206808
:100B400041694A0702D5006900F0ADF820684169A3
:100B50004A0602D5006900F0A6F8608D18B16868F1
:100B600040F004006860686818B12046BDE8F641AE
:100B7000F0E12A2F05D1206328216970204600F07A
:100B8000D6FD6878282807D1E66200F0E3F8204611
:100B9000BDE8F64100F0CCBD206B222818BF222F03
:100BA00062D100F0D7F84DE003F00400BCF1210F52
:100BB00018BFBCF1290F2CD11B061CD54E051AD528
:100BC000C8B96978608D00284ED0606A03781361D7
:100BD000606A421C626200F05FF808BF292943D1B5
:100BE00000F096F821202063282169702046BDE896
:100BF000F64100F09EBD002836D0890534D5608DC1
:100C0000002831D0606A01781161606A411C61621C
:100C100028E05B061BD54E0519D5C0B96978608DF3
:100C200010B31069626A1070606A431C636200F05E
:100C300033F808BF2A2917D100F06AF82220206370
:100C4000282169702046BDE8F64100F070BD58B11A
:100C5000890509D5608D38B11069616A0870606ACC
:100C6000421C626200F024F8BDE8F381000000003D
:100C700074000020A8680004C00D00F00600704752
:100C8000506820F4806050607047506820F4E06045
:100C90005060112121637047608D421E6285608D16
:100CA000002870471069616A0870606A421C6262BD
:100CB000608D411E6185704700210091536900934A
:100CC00091690091009A216808680A467047216876
:100CD0000A68084642F400720260704710460168D4
:100CE00021F4806170470268014642F001020A6007
:100CF00000987047026853686385608D18B1686812
:100D000040F004006860486820F400604860704764
:100D10002068416821F48061416070472068016863
:100D200021F480610160704720680169606A017088
:100D3000616A4A1C62627047506820F4E06050604B
:100D40002068016841F400710160002020632021C7
:100D5000697070470020206320216970A870704777
:100D60000020009021684A6900927047F8B5054656
:100D700005F13D0029684E694F6842780024F3056B
:100D800005D5FB0503D56FF4807301244B61B105D4
:100D900007D5FB0505D52B686FF4007144F00204FC
:100DA0005961710560D5FB055ED56B8D90F800C06B
:100DB000D5F830E06FF48061202A08BF002B48D1BD
:100DC000BCF1210F18BFBCF1290F05D0BCF1280FD1
:100DD00008BFBEF1210F3CD10278EB6ADFF85CC39B
:100DE000082B14BF202B282A17D1C5F82CC02A683D
:100DF000536823F4E06353602A6851612022296814
:100E00000B6823F480630B600021296302700023C8
:100E10004370284600F08CFC26E0212A16D1C5F844
:100E20002CC02A63202303704FF0000C80F801C00F
:100E30002868426822F4E0624260286841612868BC
:100E400000F026F8284600F074FC0DE028684161A7
:100E50000AE02B6844F004045961102A18BF402AA4
:100E600002D1286800F08BF9300507D5F90505D5C2
:100E700029686FF4006044F00804486134B1286CBC
:100E800004432C642846BDE8F24063E0F1BD3068BD
:100E9000016821F480610160704710B500F13D03E5
:100EA00000F148021C78916889B9006851680129ED
:100EB00005D11368DBB203619068801C05E01168FE
:100EC0000904090E01619068401C906010BD916892
:100ED000012907D113680068DBB203619168491CDE
:100EE000916010BD916802292DD1222C03D1016897
:100EF00000F02AF810BD418D61B1212C0AD1416A60
:100F000003680A781A61416A4A1C4262418D4A1E8E
:100F1000428510BD418D002908BF212C13D10168E5
:100F20004A6822F4E0624A60002401680A6842F4D8
:100F300000720A600021016320221A705C70BDE813
:100F4000104000F0D9BB10BD0A68084642F4807218
:100F50000260704738B5044604F13D052878697889
:100F6000102914BF4029222804D121680A6822F4DC
:100F700000620A6000F02801282903D100202063C4
:100F800029700BE0226851680A0505D4602803D057
:100F900020202870002169700020206320684168AB
:100FA0000A0523D5416821F400614160606B0FF2AE
:100FB000D91190F83520012A09D00165606B00F045
:100FC000A1FB002825D000F056F8606B0BE0A06B69
:100FD0000165A06B00F096FBD8B1206800F034F8F2
:100FE00000F049F8A06B016D884712E02A78602A6A
:100FF0000AD1202129700022226400F025F800F097
:1010000033F800F097FB04E000F01EF8204600F0F3
:1010100075FB206C10F00F0F01D000F01FF828783E
:10102000216C4A070ED528280CD14448E0620021E3
:1010300021632020287000226A702046BDE83240DB
:1010400000F076BB31BD000041694A0605D5006954
:10105000616A0870606A421C626270472068416879
:1010600021F4E06141607047206801684908490047
:101070000160204670472068016849084900016006
:101080002020287070472DE9F84F05462868DDF8C4
:1010900028800B9F0C4600F06CF816462868D0F8A4
:1010A00000C04CF4807C9946C0F800C000F059F8AC
:1010B00000284FF4007A2CD12968DFF89CB104F0A5
:1010C000FE00086100F048F8002832D1009029683D
:1010D00000F03AF800F036F870B9B9F1010F05D018
:1010E0002968300A086100F02BF828B92868F6B2A0
:1010F000066100F025F830B1286C042819D1286861
:1011000000F03DF815E02868FFF750FA00F029F8E4
:1011100038B128680168CA0548BFC5F840A0032057
:1011200008E0286844F00104E4B2046100F014F817
:1011300000B10120BDE8F28F000000000000FFFFB9
:101140003A4641462846F6E04A6900923A4689699D
:1011500000914146009870473B4642465946284612
:10116000A6E00097434600224FF00111284677E0A1
:101170003068016841F4806101607047306801683F
:1011800041F40071016070477CB500210091192580
:10119000816B324801F13D024FF47A76137804688E
:1011A000B4FBF5F5B5FBF6F6232046430096009810
:1011B00038B10098401E00900C6820688505F6D470
:1011C00003E0086C40F020000864486B08B100247C
:1011D000C463886B08B10024C4630868046824F4FD
:1011E0008064046000204885486B08B100240465D1
:1011F000886B08B10024046508680468640864000A
:101200000460107860280AD12023137000245470E1
:1012100000220A640846BDE8764000F08BBA03F06D
:101220002803282B0ED10868036843F001030360EC
:1012300028230868046844F480640460002008637C
:10124000137003E020201070002454700846BDE89D
:10125000764000F053BA0000020001007400002044
:101260002DE9F041069F05460E4690461C46310288
:101270002868090E01290CBF40698069304080B29E
:10128000B1B288420CBF0120002040450DD114F1BD
:10129000010FECD000F02AFAC01B844201D3002CCD
:1012A000E5D100F065F8012000E00020BDE8F08104
:1012B000F8B505460E4614461F463102090E286849
:1012C00001291AD14169314089B2B2B291421AD092
:1012D0004069410519D5286800F025F82A68506151
:1012E000002105F13C002963202242708170426890
:1012F00042F004024260017013E08169314089B21A
:10130000B2B29142E4D10020F2BD14F1010FD4D069
:1013100000F0ECF9C01B844201D3002CCDD100F0C9
:1013200027F80120F2BD0268014642F400720A600B
:101330006FF48060704770B505460C461646286805
:101340004169080612D4284600F04DF808B1012082
:1013500070BD14F1010FF2D000F0C8F9801B844277
:1013600001D3002CEBD100F003F8F0E7002070BDB2
:1013700000202863202105F13C000022417082708A
:10138000416841F0200141600270704770B5054628
:101390000C461646286841694A0618D44169CA06AF
:1013A00007D400F0A3F9801B84420BD3002CF1D1A9
:1013B00008E06FF01001416100F00BF8416002702D
:1013C000012070BD00F005F841F02001F6E7002093
:1013D00070BD00202863202105F13C0000224170EF
:1013E00082704168704710B501684A6953050DD590
:1013F0006FF480644C61002101633C302023437012
:101400008170436843F004034360017012F480600C
:1014100018BF0120C0B210BD81B000200090002292
:101420005948416841F480414160416801F480417C
:10143000009100990092036843F0805303600068B4
:1014400000F080500090009801B0704710B586B051
:10145000044614220021684600F06DF920684B49CB
:101460004B4C88422CD1002005901222216841F07B
:10147000020121604FF44071206800F002000590E5
:101480000598444800F074F8002005900022216976
:1014900041F4001121610021206900F40010059041
:1014A00005981F2000F088F91F2000F0A2F9002203
:1014B0000021202000F080F9202000F09AF955E06A
:1014C0003549884219D1002005901222216841F047
:1014D000200121600321206800F02000059005987C
:1014E0002E4800F045F800200590216941F4800164
:1014F0002161206900F4800036E02949884235D115
:1015000000200590216841F004012160002120683D
:1015100000F004000590059805914FF400712268D1
:1015200042F0010222601222206800F001000590C2
:1015300005981C4800F01CF812210191012202922A
:101540004FF48070032100900391042204926946B5
:10155000154800F079F900200590216941F4000157
:101560002161206900F400000590059806B010BDC7
:10157000009101920121029103220421049103921E
:10158000694600F061B90000403802400054004054
:10159000303802400004024000580040001402406D
:1015A000005C004000080240000002402DE9F041CC
:1015B00004000F4654D0464E306800F00F00B84289
:1015C00002D200F073F84BD12068424D810712D54A
:1015D000400703D5A96841F4E051A96020780107CC
:1015E00003D5A86840F46040A860A968A06821F00D
:1015F000F0010143A9602178C80729D56068012856
:1016000002D129688A0305E0022818BF032803D104
:1016100029688A0103D423E029688A0720D5A968AC
:10162000890840EA8100A86000F060F88046A86858
:10163000616800F00C00B0EB810F09D000F056F8A3
:10164000A0EB080041F289318842F0D303202BE05F
:10165000306800F00F00874204D200F027F801D074
:10166000012021E02078410705D5AA68E06822F42E
:10167000E0520243AA602178080706D5A9682069CC
:1016800021F4604141EAC001A96000F0E1F9AA68D3
:101690001149124BC2F30312895CC840186010480C
:1016A000006800F099FB0020BDE8F08137703168D8
:1016B00001F00F01B942704708480A4A00681368F0
:1016C0000949C3F38222FFE7895CC84070470000E4
:1016D000003C0240003802409C26000874000020B4
:1016E00070000020083802407C270008014840684C
:1016F000704700BF68000020704770477047704710
:101700007047704790F83510022903D08022426557
:1017100001207047052180F83510006802685208E2
:10172000520002600020704790F835007047704703
:1017300070477047704710B5044610460A46014688
:10174000204600F069FB204610BD30B50168846872
:101750004218416802EB5103C90703D54C4401E02C
:10176000491C08D19A4218BF12F9011B01D10C3053
:1017700030BD12F8015B002904F8015BF0D4491E6A
:10178000F7D5EFE70901020002D4294881547047D8
:10179000284B02F00F021A4402F8041C7047264B33
:1017A00019684FF6FF020002114000F4E0600843A0
:1017B000224908431860704770B51F4B1C68C4F37A
:1017C00002230124C3F10705052D2EBF0F2504FABE
:1017D00005F56D1E1E1D072E34BF0023DB1E29409C
:1017E000994004FA03F3BDE870405B1E1A401143B0
:1017F000C8E7010007D4012200F01F01104B8A4006
:10180000400943F82020704710B5401EB0F1807F9A
:1018100001D3012010BD0B4C60600F214FF0FF3051
:10182000FFF7B0FF0021A16007202060002010BD5D
:1018300000E400E018ED00E00CED00E00000FA0527
:1018400000E100E010E000E02DE9F84F0D46002631
:101850007249734A0F23044601202F68B04000EA02
:101860000708804540F0C5804FEA460C032707FA79
:101870000CF76FEA070E6F68012F18BF022F03D015
:10188000112F18BF122F12D1A768D5F80C900EEAAD
:10189000070709FA0CF949EA0707A760676827EA0A
:1018A00000006F68C7F30017B74038436060E06816
:1018B000AF680EEA000007FA0CF73843E060B000AA
:1018C0006F68022F18BF122F12D1F70804EB870799
:1018D00000F01C09D7F820A003FA09FB2AEA0B0A3A
:1018E000D5F810B00BFA09F949EA0A09C7F82090AF
:1018F00027680EEA070E2F7907F0030707FA0CF79F
:1019000047EA0E0CC4F800C06F68FF0071D50027CD
:1019100000974FEA960CD2F800E04EF4804EC2F8E1
:1019200000E000F00C00176807F480470097DDF82E
:1019300000E03C4F57F82C7003FA00FE27EA0E0E29
:10194000394FBC4208BF00271DD0384FBC4208BFEA
:10195000012718D0364FBC4208BF022713D0354F9D
:10196000BC4208BF03270ED0334FBC4208BF042738
:1019700009D0324FBC4208BF052704D0304FBC42CB
:101980000CBF0627072707FA00F040EA0E00DFF831
:1019900094E04EF82C006FEA0800D1F800C06F68A0
:1019A00000EA0C0CFF0348BF48EA0C0CC1F800C069
:1019B000D1F804C06F6800EA0C0CBF0348BF48EAC6
:1019C0000C0CC1F804C0D1F808C06F6800EA0C0C18
:1019D000FF0248BF48EA0C0CC1F808C0D1F80CC09F
:1019E00000EA0C0C6868800248BF48EA0C0CC1F899
:1019F0000CC0761C0F2E7FF62FAFBDE8F18F02B919
:101A00000904816170470F4A136801460B421CBFED
:101A1000116000F034BA704700000000003C014043
:101A200044380240083801400000024000040240EF
:101A300000080240000C0240001002400014024066
:101A400000180240143C014000200860FFF74EBE21
:101A50002DE95041DFF87443DFF868636068DFF810
:101A6000688300F00C00042804D0082804D00C2857
:101A700015D027E0404626E000F027F847BFC0F326
:101A80008816A8FB0601C0F38818A6FB080100F021
:101A9000F7F92168C1F30141491C49000FE000F04A
:101AA00014F847BFC0F38816A8FB0601C0F38818D6
:101AB000A6FB080100F0E4F92168C1F30271B0FB54
:101AC000F1F000E03046BDE8508100232268206834
:101AD0004102206802F03F0270472DE9F8430646B4
:101AE000B24D3078C1074FD500F064F904280DD00D
:101AF00000F060F9082802D16868410206D400F0BD
:101B000059F90C280AD16868410207D52868810371
:101B10003AD57068002837D1012044E17068B0F5EB
:101B2000803F04D1286840F48030286011E0B0F58F
:101B3000A02F286806D140F480202860296841F44D
:101B4000803105E020F480302860296821F480216C
:101B50002960706860B1FFF7C9FD044628688103F9
:101B600012D4FFF7C3FD001B6528F7D303201AE149
:101B7000FFF7BCFD04462868810305D5FFF7B6FDD5
:101B8000001B6528F7D3F1E73078914F81071ED508
:101B9000A86810F00C0F0DD000F00CF9082802D145
:101BA0006868410206D500F005F90C2823D1686861
:101BB000410220D42868810702D5F0680128ABD102
:101BC0002968306921F0F80141EAC00129603178C3
:101BD000080741D570697F4990B301220A60FFF779
:101BE00085FD0446686F810736D4FFF77FFD001B33
:101BF0000228F7D9BAE7F068A8B101213960FFF7E8
:101C000075FD04462868810705D4FFF76FFD001BAA
:101C10000228F7D9AAE72868316920F0F80040EADD
:101C2000C1002860D3E73860FFF760FD04462968EB
:101C30008807CCD5FFF75AFD001B0228F7D995E796
:101C4000FFF703FF0446686F810705D5FFF74EFDD8
:101C5000001B0228F7D989E73078410760D5286C46
:101C60000024C1000BD4002000900124296C41F015
:101C700080512964286C00F0805000900098DFF8B3
:101C80003081D8F80000C10513D4D8F8000040F422
:101C90008070C8F80000FFF729FD8146D8F80000E1
:101CA000C10506D4FFF722FDA0EB09000228F5D9F3
:101CB0005CE7B068012805D00528286F06D140F000
:101CC00004002867286F40F0010005E0400840004C
:101CD0002867286F20F00400286741F28938B0682F
:101CE00060B1FFF703FD8146286F810713D4FFF72A
:101CF000FDFCA0EB09004045F6D337E7FFF7F6FC03
:101D00008146286F810706D5FFF7F0FCA0EB09009C
:101D10004045F6D32AE71CB1286C20F08050286497
:101D2000B06900283ED0A96801F00C0108293FF4F1
:101D3000F3AE02282AD100F041F804462868810158
:101D400005D5FFF7D3FC001B0228F7D90EE7F06991
:101D5000316A726A0843B16A490840EA8210491E32
:101D600040EA0140F16A326B40EA016040EA0270E9
:101D70006860012000F023F804462868810111D42E
:101D8000FFF7B4FC001B0228F7D9EFE600F016F8C5
:101D900004462868810105D5FFF7A8FC001B02282E
:101DA000F7D9E3E60020BDE8F283000000380240E6
:101DB00000700040A86800F00C00704700203866F2
:101DC000FFF794BC0024F40000127A0004380240AB
:101DD00000004742800E474238B50D4D0D4B2A7822
:101DE00004464FF47A711868B1FBF2F2B0FBF2F0DE
:101DF000FFF70AFD50B9102C08D2002221464FF0FF
:101E0000FF30FFF7D9FCAC60002032BD012032BDAD
:101E1000680000207400002062F30F2262F31F426A
:101E2000401810F0030308D0C91A1FD3DB0748BFBE
:101E300000F8012D28BF20F8022D130030B41446FD
:101E40001546103928BF20E93C00FAD8490728BFB9
:101E500020E90C0048BF40F8042D890028BF20F875
:101E6000022D48BF00F8012D30BC7047C91818BFBB
:101E700000F8012DCB0728BF00F8012D70477047EF
:101E8000D3BBD9B1B2F5803F5BD2022A1ED98C46B2
:101E9000B1FBF2F102FB11C31B0443EA1043B3FB95
:101EA000F2FC02FB1C3380B240EA0343B3FBF2F0C6
:101EB00002FB103240EA0C4000237047022A05D989
:101EC0008446B0FBF2F002FB10C270474AB105D164
:101ED00000F0010249085FEA300070470022002349
:101EE000704700F051B80B0002000021002070473D
:101EF000F7D3002200237047904271EB030CF2D31A
:101F000070B5B1FA81F4B3FA83F52C1BA340C4F188
:101F1000200532FA05F63343A2405FF00046E64062
:101F200002E05B085FEA3202841A71EB030524BF0A
:101F3000204629467641F4D302000B0030000021F0
:101F400070BD70B5B1FA81F4B2FA82F5C4F1200423
:101F50006419B4F12006DAD3B2405FF00044F440D3
:101F6000002502E052085FEA3303C61A71EB020E45
:101F700024BF3046714664416D41F3D302000B002B
:101F80002000290070BD0000704700002DE9F843D3
:101F900086B000F097F900F025F914220021684678
:101FA000FFF7C9FB0020059044F28105B848B94C01
:101FB0000168B94EB94FDFF8E882DFF8E89241F0E6
:101FC00004010160026802F00402059200220599F2
:101FD0000592036843F020030360016801F02001CB
:101FE00000F0FBF843F080030360016801F080011A
:101FF00000F0F3F843F001030360016801F0010110
:1020000000F0EBF843F002030360016801F0020105
:1020100000F0E3F843F040030360016801F0400181
:102020000591059905921C21036843F0080303609C
:10203000006800F00800059005982046FFF7DFFCD7
:10204000002229463046FFF7DAFC002240213846BC
:10205000FFF7D5FC00224FF4E0714046FFF7CFFCBC
:1020600000224FF47C714846FFF7C9FC4FF4005042
:102070008D49009001910022029269464046FFF787
:10208000E3FB1C2100910122019200210291022216
:10209000039269462046FFF7D7FB012001900022FA
:1020A00002920392009569463046FFF7CDFB40212E
:1020B0000091012200210192029103916946384664
:1020C000FFF7C2FB80200021009001910291384669
:1020D0006946FFF7B9FB4FF4E07100F075F8404630
:1020E000FFF7B2FB4FF400700021009001910291C4
:1020F00020466946FFF7A8FB0221019100220292C7
:102100004FF4E0500321009003910A2204926946A3
:102110002046FFF799FB4FF47C7100F055F84846D4
:10212000FFF792FB002200212820FFF745FB282023
:10213000FFF75FFB5D4C5E485E496060A160002078
:10214000E06000214FF4804060612161A161E161A4
:1021500021626162201DFEF735F808B100F0B0F889
:102160004FF49670012104F15C02029001910092FB
:1021700001232022B421201DFEF707F9202100F0C1
:1021800020F820700022F421B42000F0E0F800F0E4
:1021900017F8207040220121B42000F0FCF804233D
:1021A00004F15802FF21B42000F01AF900F008F8F9
:1021B000207000F043F9012100F003F82070FAE7E5
:1021C0000021B42000F098B8009101220192002172
:1021D0000291032203926946704705910599059281
:1021E0000368704700B593B03422002106A8FFF7BA
:1021F000A2FA1422002101A8FFF79DFA0020009006
:1022000001232D48016841F08051016000210068E0
:1022100000F080500090009828480091026842F435
:10222000404202600222006800F44040009006A88C
:102230000099069210210A910C92002108220D911A
:102240000E92B421022209930F91109211921292D0
:10225000FFF743FC08B100F033F800F0A3F908B130
:1022600072B6FEE702210291002203920F204FF482
:10227000A051019004914FF480520592052101A8CC
:10228000FFF794F908B172B6FEE713B000BD000085
:1022900030380240000002400004024000180240B2
:1022A00000080240000C0240000011100000002055
:1022B00000540040A08601004038024000700040F9
:1022C00072B6FEE780B50B48016841F40071016009
:1022D000026842F480620260016841F4807101602A
:1022E0000320FFF75CFA0020FFF776FDFFF794F874
:1022F000002002BD003C024010B500F03AF8034651
:10230000136153699C07FCD5536994691161516944
:102310000B06FCD5116841F4807111605169CB073F
:10232000FCD5401C5169106150698107FCD550698A
:102330009169136823F480631360106840F400709F
:10234000106050694106FCD51069C0B210BD10B5CF
:1023500000F00FF8106150698307FCD5506993694C
:10236000116150690106FCD5106840F400701060DE
:1023700010BD2C4A136823F400631360146844F4FE
:1023800080641460136843F4807313605369DC073E
:10239000FCD55369704730B5224B1C6824F40064A7
:1023A0001C601D6845F480651D601C6844F48074E1
:1023B0001C605C69E507FCD55C6918615869840795
:1023C000FCD558699C69196158690106FCD51A61E8
:1023D00058690106FCD5186840F40070186030BDDB
:1023E00070B5104C256825F400652560266846F414
:1023F0008066266000F018F8206160698507FCD5CA
:102400006069A5692161002005E0115C21616169B5
:102410000D06FCD5401C9842F7DB206840F40070A4
:10242000206070BD00540040256845F4807525602B
:102430006569EE07FCD565697047000010B5282076
:1024400000F0ECF8514C00224FF480712046FFF769
:10245000D6FA032000F04AF800F042F800F071F8D4
:10246000002200F03EF800F038F8032000F03EF8BB
:1024700000F036F800F065F8002200F032F800F0C5
:102480002CF8032000F032F800F02AF800F059F898
:10249000002200F026F800F020F8282000F052F882
:1024A00000F01BF8282000F04DF800F016F80C2082
:1024B00000F048F800F011F8012000F043F8022085
:1024C00000F0ACF8062000F03DF800F006F802201D
:1024D00000F038F8BDE8104060E0012000F09EB840
:1024E00001224FF400712046FFF789BA58B504461F
:1024F000C4F3C000254E002814BF01220022802111
:102500003046FFF77CFAC4F38000002814BF012294
:10251000002240213046FFF772FAC4F34000002841
:1025200014BF0122002220213046FFF768FAE0079D
:102530004CBF012200223046BDE858401021FFF771
:102540005EBA704738B50446104D0022FFE74FF4DD
:1025500080712846FFF753FA2009FFF7C7FF00F004
:1025600017F8FFF7EEFF002200F013F82046FFF700
:10257000BDFF00F00DF8FFF7E4FF2846BDE8384046
:1025800000224FF40071FFF73ABA0000000C02403D
:1025900001224FF400712846FFF731BA022000F003
:1025A0003DB80000F8B500F027F8012100F01EF852
:1025B0003160FFF79BF807462868C10306D4FFF790
:1025C00095F8C01BA042F7D30320F2BD0120706034
:1025D000FFF78CF806462868810305D4FFF786F8D4
:1025E000801BA042F7D3EFE70020F2BD006800F0A7
:1025F00080500090009870470020009040F2E9342D
:102600000448054E0168024D41F080510160704759
:10261000047000404038024040000E4238B5044685
:10262000FFF764F814F1010F054602D00448017861
:102630006418FFF75BF8401BA042FAD331BD00BF1E
:1026400068000020FEE7FEE7FEE7FEE7FEE77047D2
:102650007047704700F00CB80248FDF7B1BF014861
:10266000FEF784BB040000204FF40050FFF7CBB905
:102670000248416802788A1842607047680000206A
:102680000448054A016841F4700101604FF00060A0
:102690001060704788ED00E008ED00E000000000E9
:1026A00000000000010203040607080910B50749ED
:1026B00079441831064C7C44163404E00A68081D3D
:1026C000114488470146A142F8D110BD2C000000FA
:1026D000380000004EF68851CEF20001086840F440
:1026E00070000860BFF34F8FBFF36F8F4FF0017022
:1026F000E1EE100A7047000053F0FFFFD401000024
:102700002A0000000000002000F00DF8002801D091
:10271000FFF7CCFFAFF300800020AFF30080FFF79E
:1027200035FC00F002F80120704700F001B800000D
:102730000746384600F002F8FBE7000080B5AFF32B
:102740000080024A11001820ABBEFBE72600020001
:102750000548014603B4684680F30988AFF300805A
:10276000FFF7B8FFFFF7D0FFA5EDF5FE0148804762
:10277000014800478126000851270008000000009A
:1027800001020304FFF7FEBFFFF7FEBFFFF7FEBF26
:10279000FFF7FEBFFFF7FEBFFFF7FEBFFFF7FEBF6D
:1027A000FFF7FEBFFFF7FEBFFFF7FEBFFFF7FEBF5D
:1027B000FFF7FEBFFFF7FEBFFFF7FEBFFFF7FEBF4D
:1027C000FFF7FEBFFFF7FEBFFFF7FEBFFFF7FEBF3D
:1027D000FFF7FEBFFFF7FEBFFFF7FEBFFFF7FEBF2D
:1027E000FFF7FEBFFFF7FEBFFFF7FEBFFFF7FEBF1D
:1027F000FFF7FEBFFFF7FEBFFFF7FEBFFFF7FEBF0D
:10280000FFF7FEBFFFF7FEBFFFF7FEBFFFF7FEBFFC
:10281000FFF7FEBFFFF7FEBFFFF7FEBFFFF7FEBFEC
:10282000FFF7FEBFFFF7FEBFFFF7FEBFFFF7FEBFDC
:10283000FFF7FEBFFFF7FEBFFFF7FEBFFFF7FEBFCC
:10284000FFF7FEBFFFF7FEBFFFF7FEBFFFF7FEBFBC
:10285000FFF7FEBFFFF7FEBFFFF7FEBFFFF7FEBFAC
:10286000FFF7FEBFFFF7FEBFFFF7FEBFFFF7FEBF9C
:10287000FFF7FEBFFFF7FEBFFFF7FEBFFFF7FEBF8C
:10288000FFF7FEBFFFF7FEBFFFF7FEBFFFF7FEBF7C
:10289000FFF7FEBFFFF7FEBFFFF7FEBFFFF7FEBF6C
:1028A000FFF7FEBFFFF7FEBFFFF7FEBFFFF7FEBF5C
:1028B000FFF7FEBFFFF7FEBFFFF7FEBFFFF7FEBF4C
:1028C000FFF7FEBFFFF7FEBFFFF7FEBFFFF7FEBF3C
:1028D000A8000311E5728AF4000001F9000010FC61
:0528E000000224F400D9
:040000050800275177
:00000001FF
