:020000040800F2
:10000000B008002009310008E12F0008E32F0008A4
:10001000E52F0008E72F0008E92F00080000000086
:10002000000000000000000000000000EB2F0008AE
:10003000ED2F000800000000EF2F0008F12F00084E
:100040002131000825310008293100082D31000830
:100050003131000835310008393100083D310008E0
:100060004131000845310008493100084D31000890
:100070005131000855310008593100085D31000840
:100080006131000865310008693100086D310008F0
:100090007131000875310008793100087D310008A0
:1000A0008131000885310008893100088D31000850
:1000B000913100089531000899310008F52F0008AA
:1000C000FB2F00089D310008A1310008A531000870
:1000D000A9310008AD310008B1310008B531000880
:1000E00005300008B9310008BD310008C1310008F1
:1000F000C5310008C9310008CD310008D1310008F0
:10010000D5310008D9310008DD310008E13100089F
:10011000E5310008E9310008ED310008F13100084F
:10012000F5310008F9310008FD31000801320008FE
:10013000053200080000000000000000093200083D
:100140000D3200081132000815320008193200087B
:100150001D3200082132000825320008293200082B
:100160002D320008313200083532000839320008DB
:100170003D3200084132000845320008000000000E
:1001800000000000493200080000000000000000EC
:100190004D3200080000000000000000513200084D
:1001A00000000000000000000000000055320008C0
:1001B000593200085D3200086132000865320008DB
:1001C00069320008F8B5040022D004F13C056978D2
:1001D00021B900202870204601F0F6FB2421697027
:1001E00000F0F7FB2068016841F4004101602068DD
:1001F000026822F40042026001F01CFD01466068C2
:10020000DFF87025904205D2DFF86C35994205D2AF
:100210000120F2BDDFF864058142F9D32068DFF8E0
:1002200060354668B1FBF3F3B60943EA86164660CB
:100230002668376A6068904206D34FF4967043434D
:100240004FF47A70B3FBF0F35B1CBF0943EA8713EA
:100250003362491E2368DE696768974206D27F00D1
:1002600000F044F8042913D2042111E0A06820B959
:1002700007EB470700F03AF805E01920474300F084
:1002800035F841F4804108050CBF012141F40041DB
:10029000DFF8F00406400E43DE6122681368E1696E
:1002A000206A23F0C0030B43034313602268DFF886
:1002B000D804936821690340E0680B4303439360CB
:1002C0002168CA68A3696069120A034343EA0222EB
:1002D000CA602068016841F0010101600020686087
:1002E0002021697020630021A970F2BDB1FBF7F1F4
:1002F000491CC1F30B0170472DE9F84304460E4633
:10030000154600F063FB04F13C078046787820280E
:1003100008D1CDF8008019230122DFF8D01500F0B4
:1003200075FB002840F08080387801287CD00121BE
:10033000397000F054FB21207870102100F080F912
:100340002085DFF8AC05E062E16A082918BF0129C1
:1003500004D081421CBF206B122801D100F04DFB5C
:10036000CDF800800022089D2B4600F04DFB38B1EF
:1003700020680168CA0550D54FF4007078604CE0E1
:100380002069B0F5804F08BF06F0FE0610D0F109D5
:10039000206801F0060141F0F001016143462A4660
:1003A000DFF85015204601F007FA002835D1F6B2E3
:1003B0002068DFF84415066143462A46204601F0CE
:1003C000FBF9002829D1009021684A6900928969C7
:1003D0000091009A208D002821D04246294601F044
:1003E000D5F8A8B900F020F9401E208521684A6997
:1003F000530706D580B220B1606A02780A6100F026
:1004000009F942462946204601F044FA0028E1D085
:100410007868042801D101F0B2F8012005E001F06C
:10042000AEF800F01AF900E00220BDE8F2832DE9F1
:10043000F84F00F0E0F800F0AFF902D100F092F9C7
:10044000002840F0C7803878012800F0C38000F011
:1004500083F901D400F0A6F900F006F91021B97073
:1004600000207860C6F82490A6F82A80708D308528
:10047000DFF87C04F062F16A3268136843F4806349
:100480001360082918BF012904D081421CBF306BBA
:10049000112801D100F0BDFA00940022DDF8289067
:1004A0004B464FF0011100F0D5F800284FF4007AC8
:1004B0002FD13069DFF84084B0F5804F05D1306826
:1004C00045F00105EDB205612FE0E809326800F062
:1004D000060B4BF0F001116123464A46DFF8141475
:1004E00000F086F800286BD13068EDB2056100F0AD
:1004F0007CF8002864D100904B4600F01DFA31686A
:1005000000F056FF009400224FF0011100F0A2F815
:1005100030B130680168CA0552D5C7F804A04FE071
:1005200030684BF0F10BC0F810B000F05EF8002816
:1005300046D1308D18B1012804D100F022FA00F024
:1005400002FA15E002283068016802D100F059F87B
:1005500002E041F480610160002000F0ECF907E066
:1005600000F0D3F900282BD100F0C8F900F035F8DD
:10057000308D00282BD004281FD20128F0D002286B
:10058000DFF8385400944B460AD100F061F8002897
:1005900016D100F0FDF9716A0870706A421CE5E737
:1005A00000F056F800280BD100F0A5FE4B4600F0F5
:1005B000D8F900F04EF818B9EBE700F0A6F908B149
:1005C000012008E000F0A6F9D2D50069E3E700F0C9
:1005D00044F800E00220BDE8F28F308D7262411EC7
:1005E0003185708D411E7185704723464A464146CC
:1005F000304601F0E1B806460D469146984601F0B6
:1006000033BB21F4806101603068026842F400620B
:1006100002607047606A411C6162608D411E6185A5
:10062000208D411E21857047606A22680178116122
:10063000606A411C6162608D411E6185208D70473A
:10064000B970002078606562A4F82A90608D7047C8
:1006500000222946304601F087B82020787000211A
:10066000B9700020387070473068016821F400616B
:1006700001602220787070472DE9FC4700F086F871
:1006800000F08AF85DD100F06DF8002859D1387873
:10069000012856D000F060F801D400F083F84146FC
:1006A000D6F800E00C9D0B98DDF828C0DEF800803D
:1006B00028F40068CEF800804FF0210E87F801E0A2
:1006C0004FF0400887F802804FF0000EC7F804E0B2
:1006D00000F0FDF800F00BFF00282BD108E0716A54
:1006E0000A780261706A411C7162308DFFF777FFF2
:1006F000308DA0B122462946304601F0A0F8A0B9BD
:10070000706A326801781161706A411C7162308DC3
:10071000411E00F019F8EBD589B20029DFD122463D
:100720002946304601F0B6F830B17868042801D186
:1007300000F0A8FF012005E000F0A4FFFFF78DFF07
:1007400000E00220BDE8F6873185708D421E72857B
:100750003068426953077047012139703068026878
:10076000D10770470094192301226049304600F0F8
:10077000FBBF0000A186010080841E0000093D002F
:1007800040420F000030FFFF007CFFFF0646884616
:1007900091469A4601F068BA06F13C07044678781B
:1007A00020287047026842F00102026070472DE97C
:1007B000FC47FFF7EBFFFFF7EFFF02D1FFF7D2FF98
:1007C000002840F08180387801287DD0FFF7C4FFF1
:1007D00001D4FFF7E7FF4146D6F800E00C9D0B98E7
:1007E000DDF828C0DEF8008028F40068CEF800802C
:1007F0004FF0220E87F801E04FF0400887F80280A2
:100800004FF0000EC7F804E000F061F800F0C0FE01
:1008100000284FD1308D18B1012804D100F0B1F873
:1008200000F091F817E0022806D130680168FFF760
:10083000E8FE0020009001E00021009100F07CF82B
:1008400009E02246294600F062F8002832D100F083
:1008500055F8FFF7C2FE308D002832D0042824D28C
:100860000128EED00228DFF8548100942B460CD1E9
:1008700000224146FFF7EEFE00281BD100F088F869
:10088000716A0870706A421CE3E700224146FFF774
:10089000E1FE00280ED100F02EFD2B4600F061F89D
:1008A0004146FFF7D7FE28B9E8E72246294600F07F
:1008B0002EF808B1012008E000F02CF8CBD5006933
:1008C000DEE7FFF7CAFE00E00220BDE8F687C6F8C3
:1008D00024C070855346708DDFF814C03085C6F88B
:1008E0002CC04A4601940095304670470200100023
:1008F0000000FFFF080001000200010030680169EC
:10090000706A0170716A4A1C704722464946304637
:1009100000F0DDBF30680169706A0170716A308D66
:100920004A1C411E72623185708D411E718530688E
:1009300041694A077047009031684A6900928969A5
:10094000009100987047009031684A690092896967
:100950000091009831680A68084642F4007202600B
:10096000704730680169706A0170716A308D4A1C85
:10097000411E726231850022708D411E7185009486
:1009800070473068016821F4806101600020704781
:100990003068016841F40071016030680169706A73
:1009A0000170716A308D4A1C411E72623185708DF2
:1009B000411E718532681069704700000400010013
:1009C0000098401E0090009870479046994601F0AC
:1009D0004BB92068026852085200026070472068D4
:1009E0000268D10703D4026842F001020260206865
:1009F000016821F40061016070472068016841F4DA
:100A000080710160704700224FF00111204600F014
:100A1000ABBE3068016841F4807101607047416885
:100A200041F48051416070472DE9FC41044604F1D6
:100A30003C052268DFF80C6C5168E06AAB7895F8E9
:100A400001C00027102B18BF402B40F0418297694E
:100A5000D2F814C05FEACC7E05D4B0F52A0F18BFD7
:100A6000B0F12A4F47D05FEACC7045D5880543D511
:100A7000E06AB0F52A0F08BF012104D0E06AB0F1A6
:100A80002A4F01D10821E162A878402809D168697C
:100A90000028A8681ABF40F00100C0B200F0FE00B4
:100AA00028E02069B0F5804F16D168782128A86821
:100AB0000EBF00F0FE0040F00100C0B21061606B9C
:100AC00000281CBFC06B00282BD1A06B00281CBFC6
:100AD000C06B00280FD024E0686920B900F0FEFA4E
:100AE00040F0F00006E06869012804D100F0F6FA51
:100AF00040F0F1001061EBE25FEA0C7016D588055A
:100B000014D5A868C0B21061616B002904BFA06B46
:100B10000028F0D0C86B002802BFA16BC86B00286A
:100B2000E9D02068416841F4006126E15FEA8C70F9
:100B300000D5880540F1A380AB78E16A276B68781F
:100B4000222840F094806869002808BF402B07D114
:100B5000002100915369009391690091009AB7E2D6
:100B60006869002804BF2069B0F5404F08D100F043
:100B7000D7FA40F4807010606869401C6861A7E291
:100B8000608D28B900F0CCFA40F4007010606BE082
:100B9000608D012835D1B14212D11146086820F488
:100BA0008060106021684868020504D50846024646
:100BB00000F0C9FA23E0002200924B6900930CE098
:100BC000082918BF202903D0122F0CD101290FD0DA
:100BD00000F0B8FA116000F0F7FA89690091009806
:100BE00000F0A9FA40E004291CBF0229102902D014
:100BF00000F0A8FA03E01046016841F4806111603A
:100C00002DE0628D022A15D104291CBF022910296A
:100C100009D020680268034622F480621A602068C6
:100C2000FFF7F3FC0CE020680268034642F48062A0
:100C30001A6005E022681368104643F4806303607D
:100C40002068426813050AD5B14218BF012904D0B3
:100C500008291CBF1029202901D1FFF7E0FE00F070
:100C6000B3FA8969009100980021696130E200239C
:100C700000935169009192690092009928E27F07E0
:100C80000CF0040060D5D2F804E05FEA0E57F5D40A
:100C90005FEA0C6732D54F0530D500282ED1697830
:100CA000AB78E76A208D002808BF212917D1082FCB
:100CB0001CBF202FB74204D000F01BFA0022AA70FC
:100CC00033E000F06DFAA878402806D10021A97021
:100CD0002046BDE8F64100F0CDBF00202AE02129E2
:100CE00003D0402B08BF222903D1608D10B900F03A
:100CF000FBF9EDE1A878402822D0B7E10028F8D030
:100D00008805F6D5102B1BD1E16A68782128F0D12F
:100D1000608D08B100F0AAB908291CBF2029B14292
:100D200006D000F0E6F90020A8702021697002E0EA
:100D300000F036FAA8702046BDE8F64100F09BBFEF
:100D40002046BDE8F641DCE253681E0516D45FEA92
:100D50004C6369D54E0567D5002865D1687822288F
:100D60000CD1608D04280AD300F0D0F9608D0328DF
:100D700004D12068416821F480614160A8E1E16A02
:100D80000229FBD0012818BF0028F7D10020DFF886
:100D90004813009019200B68B3FBF0F04FF47A76FB
:100DA000B0FBF6F606EB860600962146FFF708FE36
:100DB00020B10B6818688405F8D41AE0686840F020
:100DC00020006860506820F4E06050600A68106994
:100DD0004A6A1070486A431C4B622023488D421EA9
:100DE0004A856B700020A8700846BDE8F64100F007
:100DF00043BF18460C460168024621F48061116029
:100E000000F060FB00F0C4F9202200F085F96A7060
:100E1000A878402853D10021A970002020632046E3
:100E2000BDE8F64100F029BF0028A7D08805A5D568
:100E3000E06A618D042904D100F056F9216808693F
:100E40003FE1618D032910D1516821F48061516027
:100E5000042818BF022801D000F094F92068016925
:100E6000606A0170616A4A1C2FE1618D022940F0BD
:100E70002781012818BF10280DD0042818BF022888
:100E800004D01046016841F4007106E01046016884
:100E900041F4806101E000F055F9116000F078F94B
:100EA00000F03AF9226800F031F92068416821F435
:100EB0004071416020206870A9784029ABD00020A3
:100EC000A870122121632046BDE8F64100F0D6BE8D
:100ED000686800B997695369980722D5880520D5B5
:100EE000686800B197696878002100F02800282818
:100EF00011D100F0F9F8780758BF0121380654BF26
:100F0000E268A2690020287002B02046BDE8F041E6
:100F100092B200F0B4BE6FF002015161002028705F
:100F2000D6E0DF0674D5880572D56F78506820F456
:100F3000E0605060002100912068416900912068C4
:100F400000F005F900F01EF921684868020528D56F
:100F50000FF23D78222F18BF2A2F10D0606B00F0BF
:100F6000FDF8606B00F09EFE01281AD0606BC0F89F
:100F70005080606B00F084FE98B1606B0FE0A06B56
:100F800000F0ECF8A06B00F08DFE012809D0A06BFA
:100F9000C0F85080A06B00F073FE10B1A06B016D23
:100FA0008847608D98B1206841694A0702D5006979
:100FB00000F0ADF8206841694A0602D5006900F0EA
:100FC000A6F8608D18B1686840F004006860686831
:100FD00018B12046BDE8F641F0E12A2F05D1206383
:100FE00028216970204600F060FE6878282807D123
:100FF000E66200F0E3F82046BDE8F64100F056BE98
:10100000206B222818BF222F62D100F0D7F84DE0C4
:1010100003F00400BCF1210F18BFBCF1290F2CD143
:101020001B061CD54E051AD5C8B96978608D0028F5
:101030004ED0606A03781361606A421C626200F0FD
:101040005FF808BF292943D100F096F821202063DA
:10105000282169702046BDE8F64100F028BE00282E
:1010600036D0890534D5608D002831D0606A01788A
:101070001161606A411C616228E05B061BD54E0568
:1010800019D5C0B96978608D10B31069626A1070A3
:10109000606A431C636200F033F808BF2A2917D145
:1010A00000F06AF822202063282169702046BDE8FC
:1010B000F64100F0FABD58B1890509D5608D38B107
:1010C0001069616A0870606A421C626200F024F86C
:1010D000BDE8F38100000000A8000020A86800041B
:1010E000C00D00F006007047506820F4806050602A
:1010F0007047506820F4E060506011212163704710
:10110000608D421E6285608D002870471069616A9B
:101110000870606A421C6262608D411E6185704782
:10112000002100915369009391690091009A216810
:1011300008680A46704721680A68084642F4007247
:10114000026070471046016821F4806170470268B0
:10115000014642F001020A60009870470268536835
:101160006385608D18B1686840F004006860486865
:1011700020F40060486070472068416821F4806175
:10118000416070472068016821F480610160704708
:1011900020680169606A0170616A4A1C6262704776
:1011A000506820F4E06050602068016841F40071EC
:1011B00001600020206320216970704700202063B7
:1011C00020216970A87070470020009021684A694A
:1011D00000927047F8B5054605F13D0029684E6953
:1011E0004F6842780024F30505D5FB0503D56FF45D
:1011F000807301244B61B10507D5FB0505D52B682C
:101200006FF4007144F002045961710560D5FB056B
:101210005ED56B8D90F800C0D5F830E06FF480613A
:10122000202A08BF002B48D1BCF1210F18BFBCF108
:10123000290F05D0BCF1280F08BFBEF1210F3CD10A
:101240000278EB6ADFF8FCC3082B14BF202B282A96
:1012500017D1C5F82CC02A68536823F4E0635360A3
:101260002A685161202229680B6823F480630B608F
:1012700000212963027000234370284600F016FD08
:1012800026E0212A16D1C5F82CC02A63202303703A
:101290004FF0000C80F801C02868426822F4E06238
:1012A000426028684161286800F026F8284600F06E
:1012B000FEFC0DE0286841610AE02B6844F004045C
:1012C0005961102A18BF402A02D1286800F0DBF9C2
:1012D000300507D5F90505D529686FF4006044F09D
:1012E0000804486134B1286C04432C642846BDE8E6
:1012F000F24063E0F1BD3068016821F48061016073
:10130000704710B500F13D0300F148021C78916868
:1013100089B900685168012905D11368DBB20361FE
:101320009068801C05E011680904090E016190684D
:10133000401C906010BD9168012907D113680068B6
:10134000DBB203619168491C916010BD916802296C
:101350002DD1222C03D1016800F02AF810BD418D57
:1013600061B1212C0AD1416A03680A781A61416A85
:101370004A1C4262418D4A1E428510BD418D0029A2
:1013800008BF212C13D101684A6822F4E0624A6048
:10139000002401680A6842F400720A6000210163B7
:1013A00020221A705C70BDE8104000F063BC10BDD4
:1013B0000A68084642F480720260704738B50446F5
:1013C00004F13D0528786978102914BF40292228A6
:1013D00004D121680A6822F400620A6000F0280142
:1013E000282903D10020206329700BE0226851686E
:1013F0000A0505D4602803D02020287000216970D8
:1014000000202063206841680A0523D5416821F443
:1014100000614160606B0FF2792190F83520012A5C
:1014200009D00165606B00F02BFC002825D000F08E
:1014300056F8606B0BE0A06B0165A06B00F020FC20
:10144000D8B1206800F034F800F049F8A06B016DC5
:10145000884712E02A78602A0AD1202129700022C8
:10146000226400F025F800F033F800F021FC04E0DD
:1014700000F01EF8204600F0FFFB206C10F00F0F6C
:1014800001D000F01FF82878216C4A070ED52828D3
:101490000CD16C48E06200212163202028700022DA
:1014A0006A702046BDE8324000F000BC31BD00004B
:1014B00041694A0605D50069616A0870606A421C84
:1014C000626270472068416821F4E06141607047C2
:1014D000206801684908490001602046704720687B
:1014E00001684908490001602020287070472DE9F3
:1014F000F84304462068DDF82080099FD0F800C03A
:101500004CF4807C894615461E46C0F800C0009702
:101510004346FFF778FA40B120680168CA0544BF26
:101520004FF400702064032027E02068DFF83012B9
:1015300009F0FE09C0F810903B464246204600F0F4
:101540003BF9A0B90090216800F082F800F01EF885
:1015500040B9012E0DD02168280A08613A4600F0F2
:1015600014F830B1206C042801D100F008F80120F3
:1015700003E02068EDB205610020BDE8F283206839
:10158000016841F40071016070474146204656E110
:101590002DE9F84F05462868DDF828800B9F0C469A
:1015A00000F06BF816462868D0F800C04CF4807C38
:1015B0009946C0F800C000F058F800284FF4007AAF
:1015C0002CD12968DFF898B104F0FE00086100F022
:1015D00047F8002832D10090296800F039F800F06F
:1015E00035F870B9B9F1010F05D02968300A0861E2
:1015F00000F02AF828B92868F6B2066100F024F84D
:1016000030B1286C042819D1286800F03CF815E0A6
:101610002868FFF7FFF900F028F838B1286801685A
:10162000CA0548BFC5F840A0032008E0286844F078
:101630000104E4B2046100F013F800B10120BDE838
:10164000F28F00000000FFFF3A4641462846F6E0D0
:101650004A6900923A46896900914146009870476C
:101660003B46424659462846A6E00097434600229C
:101670004FF00111284677E03068016841F480613D
:10168000016070473068016841F400710160704783
:101690007CB5002100911925816B324801F13D0292
:1016A0004FF47A7613780468B4FBF5F5B5FBF6F6DB
:1016B000232046430096009838B10098401E0090C1
:1016C0000C6820688505F6D403E0086C40F0200023
:1016D0000864486B08B10024C463886B08B1002417
:1016E000C4630868046824F48064046000204885AA
:1016F000486B08B100240465886B08B100240465B8
:1017000008680468640864000460107860280AD1DE
:10171000202313700024547000220A640846BDE898
:10172000764000F0C5BA03F02803282B0ED10868D4
:10173000036843F00103036028230868046844F445
:101740008064046000200863137003E020201070A0
:10175000002454700846BDE8764000F08DBA0000C1
:1017600002000100A80000202DE9F041069F054677
:101770000E4690461C4631022868090E01290CBF0E
:1017800040698069304080B2B1B288420CBF01200C
:10179000002040450DD114F1010FECD000F064FAA7
:1017A000C01B844201D3002CE5D100F065F8012074
:1017B00000E00020BDE8F081F8B505460E4614466D
:1017C0001F463102090E286801291AD141693140AA
:1017D00089B2B2B291421AD04069410519D5286840
:1017E00000F025F82A685061002105F13C002963CA
:1017F000202242708170426842F00402426001700F
:1018000013E08169314089B2B2B29142E4D1002043
:10181000F2BD14F1010FD4D000F026FAC01B8442AF
:1018200001D3002CCDD100F027F80120F2BD0268D1
:10183000014642F400720A606FF48060704770B530
:1018400005460C46164628684169080612D4284603
:1018500000F06AF808B1012070BD14F1010FF2D058
:1018600000F002FA801B844201D3002CEBD100F07F
:1018700003F8F0E7002070BD00202863202105F167
:101880003C00002241708270416841F020014160BB
:101890000270704770B505460C46164628684169C7
:1018A000480712D4284600F03FF808B1012070BD67
:1018B00014F1010FF2D000F0D7F9801B844201D35C
:1018C000002CEBD1FFF7D8FFF0E7002070BD70B51A
:1018D00005460C461646286841694A0618D44169EF
:1018E000CA0607D400F0C0F9801B84420BD3002C39
:1018F000F1D108E06FF01001416100F00BF8416098
:101900000270012070BD00F005F841F02001F6E7FB
:10191000002070BD00202863202105F13C0000223A
:10192000417082704168704710B501684A6953057B
:101930000DD56FF480644C61002101633C3020239D
:1019400043708170436843F004034360017012F4F4
:10195000806018BF0120C0B210BD30B50168846836
:101960004218416802EB5103C90703D54C4401E01A
:10197000491C08D19A4218BF12F9011B01D10C3041
:1019800030BD12F8015B002904F8015BF0D4491E58
:10199000F7D5EFE781B00020009000225948416858
:1019A00041F480414160416801F480410091009917
:1019B0000092036843F080530360006800F0805099
:1019C0000090009801B0704710B586B0044614220C
:1019D0000021684600F06DF920684B494B4C884265
:1019E0002CD1002005901222216841F002012160D3
:1019F0004FF44071206800F00200059005984448BB
:101A000000F074F8002005900022216941F40011D3
:101A100021610021206900F40010059005981F2025
:101A200000F06CF91F2000F086F900220021202030
:101A300000F064F9202000F07EF955E03549884235
:101A400019D1002005901222216841F02001216067
:101A50000321206800F02000059005982E4800F032
:101A600045F800200590216941F480012161206939
:101A700000F4800036E02949884235D100200590E5
:101A8000216841F0040121600021206800F0040079
:101A90000590059805914FF40071226842F001020B
:101AA00022601222206800F00100059005981C4871
:101AB00000F01CF812210191012202924FF4807073
:101AC000032100900391042204926946154800F016
:101AD0005DF900200590216941F400012161206930
:101AE00000F400000590059806B010BD0091019229
:101AF000012102910322042104910392694600F01E
:101B000045B90000403802400054004030380240DF
:101B1000000402400058004000140240005C0040F5
:101B200000080240000002402DE9F04104000F4689
:101B300054D0464E306800F00F00B84202D200F098
:101B400073F84BD12068424D810712D5400703D569
:101B5000A96841F4E051A9602078010703D5A8687D
:101B600040F46040A860A968A06821F0F00101433A
:101B7000A9602178C80729D56068012802D12968A1
:101B80008A0305E0022818BF032803D129688A01C7
:101B900003D423E029688A0720D5A968890840EA88
:101BA0008100A86000F060F88046A868616800F0D5
:101BB0000C00B0EB810F09D000F056F8A0EB080044
:101BC00041F289318842F0D303202BE0306800F0E5
:101BD0000F00874204D200F027F801D0012021E055
:101BE0002078410705D5AA68E06822F4E052024354
:101BF000AA602178080706D5A968206921F4604108
:101C000041EAC001A96000F0C5F9AA681149124B68
:101C1000C2F30312895CC84018601048006800F0E5
:101C20007DFB0020BDE8F0813770316801F00F01C5
:101C3000B942704708480A4A006813680949C3F363
:101C40008222FFE7895CC84070470000003C0240E8
:101C50000038024038300008A8000020A40000200E
:101C6000083802401831000801484068704700BF3A
:101C70009C0000207047704770477047704770475E
:101C800090F83510022903D0802242650120704768
:101C9000052180F835100068026852085200026081
:101CA0000020704790F835007047704770477047C4
:101CB000704710B5044610460A460146204600F01B
:101CC0004DFB204610BD00000901020002D4294846
:101CD00081547047284B02F00F021A4402F8041C8A
:101CE0007047264B19684FF6FF020002114000F4BE
:101CF000E0600843224908431860704770B51F4BE5
:101D00001C68C4F302230124C3F10705052D2EBF6F
:101D10000F2504FA05F56D1E1E1D072E34BF002386
:101D2000DB1E2940994004FA03F3BDE870405B1EB6
:101D30001A401143C8E7010007D4012200F01F0137
:101D4000104B8A40400943F82020704710B5401ED0
:101D5000B0F1807F01D3012010BD0B4C60600F21DA
:101D60004FF0FF30FFF7B0FF0021A1600720206097
:101D7000002010BD00E400E018ED00E00CED00E0F4
:101D80000000FA0500E100E010E000E02DE9F84F66
:101D90000D4600267249734A0F23044601202F681E
:101DA000B04000EA0708804540F0C5804FEA460C85
:101DB000032707FA0CF76FEA070E6F68012F18BFA9
:101DC000022F03D0112F18BF122F12D1A768D5F8F8
:101DD0000C900EEA070709FA0CF949EA0707A76011
:101DE000676827EA00006F68C7F30017B7403843F9
:101DF0006060E068AF680EEA000007FA0CF738434D
:101E0000E060B0006F68022F18BF122F12D1F708E0
:101E100004EB870700F01C09D7F820A003FA09FBA0
:101E20002AEA0B0AD5F810B00BFA09F949EA0A09AF
:101E3000C7F8209027680EEA070E2F7907F00307EE
:101E400007FA0CF747EA0E0CC4F800C06F68FF00F1
:101E500071D5002700974FEA960CD2F800E04EF4B7
:101E6000804EC2F800E000F00C00176807F48047CD
:101E70000097DDF800E03C4F57F82C7003FA00FEA5
:101E800027EA0E0E394FBC4208BF00271DD0384F3D
:101E9000BC4208BF012718D0364FBC4208BF0227FA
:101EA00013D0354FBC4208BF03270ED0334FBC427E
:101EB00008BF042709D0324FBC4208BF052704D011
:101EC000304FBC420CBF0627072707FA00F040EA54
:101ED0000E00DFF894E04EF82C006FEA0800D1F80D
:101EE00000C06F6800EA0C0CFF0348BF48EA0C0C06
:101EF000C1F800C0D1F804C06F6800EA0C0CBF0341
:101F000048BF48EA0C0CC1F804C0D1F808C06F689B
:101F100000EA0C0CFF0248BF48EA0C0CC1F808C0EC
:101F2000D1F80CC000EA0C0C6868800248BF48EA8F
:101F30000C0CC1F80CC0761C0F2E7FF62FAFBDE83D
:101F4000F18F02B90904816170470F4A1368014695
:101F50000B421CBF116000F034BA70470000000053
:101F6000003C014044380240083801400000024073
:101F70000004024000080240000C02400010024031
:101F80000014024000180240143C01400020086088
:101F9000FFF76ABE2DE95041DFF87443DFF868634C
:101FA0006068DFF8688300F00C00042804D008287B
:101FB00004D00C2815D027E0404626E000F027F892
:101FC00047BFC0F38816A8FB0601C0F38818A6FB1C
:101FD000080100F0F7F92168C1F30141491C4900EB
:101FE0000FE000F014F847BFC0F38816A8FB060105
:101FF000C0F38818A6FB080100F0E4F92168C1F3DA
:102000000271B0FBF1F000E03046BDE850810023E2
:10201000226820684102206802F03F0270472DE9E3
:10202000F8430646B24D3078C1074FD500F064F949
:1020300004280DD000F060F9082802D16868410238
:1020400006D400F059F90C280AD16868410207D576
:10205000286881033AD57068002837D1012044E10F
:102060007068B0F5803F04D1286840F48030286063
:1020700011E0B0F5A02F286806D140F48020286038
:10208000296841F4803105E020F480302860296817
:1020900021F480212960706860B1FFF7E5FD0446F6
:1020A0002868810312D4FFF7DFFD001B6528F7D3F2
:1020B00003201AE1FFF7D8FD04462868810305D5FF
:1020C000FFF7D2FD001B6528F7D3F1E73078914F79
:1020D00081071ED5A86810F00C0F0DD000F00CF988
:1020E000082802D16868410206D500F005F90C28DD
:1020F00023D16868410220D42868810702D5F0689E
:102100000128ABD12968306921F0F80141EAC0010A
:1021100029603178080741D570697F4990B3012261
:102120000A60FFF7A1FD0446686F810736D4FFF708
:102130009BFD001B0228F7D9BAE7F068A8B101217E
:102140003960FFF791FD04462868810705D4FFF741
:102150008BFD001B0228F7D9AAE72868316920F017
:10216000F80040EAC1002860D3E73860FFF77CFD43
:10217000044629688807CCD5FFF776FD001B0228A6
:10218000F7D995E7FFF703FF0446686F810705D588
:10219000FFF76AFD001B0228F7D989E7307841076D
:1021A00060D5286C0024C1000BD4002000900124CD
:1021B000296C41F080512964286C00F08050009017
:1021C0000098DFF83081D8F80000C10513D4D8F8A2
:1021D000000040F48070C8F80000FFF745FD81461C
:1021E000D8F80000C10506D4FFF73EFDA0EB0900BA
:1021F0000228F5D95CE7B068012805D00528286FCA
:1022000006D140F004002867286F40F0010005E087
:10221000400840002867286F20F00400286741F23A
:102220008938B06860B1FFF71FFD8146286F8107CC
:1022300013D4FFF719FDA0EB09004045F6D337E7AB
:10224000FFF712FD8146286F810706D5FFF70CFDC9
:10225000A0EB09004045F6D32AE71CB1286C20F01A
:1022600080502864B06900283ED0A96801F00C01B4
:1022700008293FF4F3AE02282AD100F041F80446C1
:102280002868810105D5FFF7EFFC001B0228F7D96C
:102290000EE7F069316A726A0843B16A490840EA98
:1022A0008210491E40EA0140F16A326B40EA016047
:1022B00040EA02706860012000F023F804462868B4
:1022C000810111D4FFF7D0FC001B0228F7D9EFE6FB
:1022D00000F016F804462868810105D5FFF7C4FC14
:1022E000001B0228F7D9E3E60020BDE8F2830000D6
:1022F0000038024000700040A86800F00C007047F1
:1023000000203866FFF7B0BC0024F40000127A0009
:102310000438024000004742800E474238B50D4D58
:102320000D4B2A7804464FF47A711868B1FBF2F22B
:10233000B0FBF2F0FFF70AFD50B9102C08D20022D2
:1023400021464FF0FF30FFF7D9FCAC60002032BDD2
:10235000012032BD9C000020A800002062F30F2263
:1023600062F31F42401810F0030308D0C91A1FD3AC
:10237000DB0748BF00F8012D28BF20F8022D13000D
:1023800030B414461546103928BF20E93C00FAD86D
:10239000490728BF20E90C0048BF40F8042D8900F8
:1023A00028BF20F8022D48BF00F8012D30BC70472F
:1023B000C91818BF00F8012DCB0728BF00F8012D60
:1023C00070477047D3BBD9B1B2F5803F5BD2022AC8
:1023D0001ED98C46B1FBF2F102FB11C31B0443EA88
:1023E0001043B3FBF2FC02FB1C3380B240EA034310
:1023F000B3FBF2F002FB103240EA0C4000237047BE
:10240000022A05D98446B0FBF2F002FB10C27047E5
:102410004AB105D100F0010249085FEA3000704777
:1024200000220023704700F051B80B000200002189
:1024300000207047F7D3002200237047904271EBD1
:10244000030CF2D370B5B1FA81F4B3FA83F52C1B07
:10245000A340C4F1200532FA05F63343A2405FF0F1
:102460000046E64002E05B085FEA3202841A71EB44
:10247000030524BF204629467641F4D302000B0011
:102480003000002170BD70B5B1FA81F4B2FA82F566
:10249000C4F120046419B4F12006DAD3B2405FF02D
:1024A0000044F440002502E052085FEA3303C61AF4
:1024B00071EB020E24BF3046714664416D41F3D387
:1024C00002000B002000290070BD000070470000D2
:1024D0002DE9F8432DED048B0FF21C610FF21C6403
:1024E0000A6825680FF218610FF21864DFF8BC65FE
:1024F000DFF8BC75DFF8BC85DFF8BC958AB008A8AA
:1025000007AB02601D6006A80A682568DFF8AC45C5
:10251000026005AB1D6000F0F7FA00F072FA1422B9
:1025200000216846FFF7C5FB0020099044F28105B1
:10253000DFF88C05016841F004010160026802F0D7
:1025400004020992002209990992036843F02003CA
:102550000360016801F0200100F041FA43F08003BC
:102560000360016801F0800100F039FA43F00103D3
:102570000360016801F0010100F031FA43F0020349
:102580000360016801F0020100F029FA43F0400302
:102590000360016801F040010991099909921C2129
:1025A000036843F008030360006800F00800099026
:1025B00009982046FFF7C5FC002229463046FFF760
:1025C000C0FC002240213846FFF7BBFC00224FF43C
:1025D000E0714046FFF7B5FC00224FF47C7148469D
:1025E000FFF7AFFC4FF40050DFF8D81400900191D2
:1025F0000022029269464046FFF7C8FB1C21009169
:102600000122019200210291022203926946204692
:10261000FFF7BCFB0120019000220292039200957B
:1026200069463046FFF7B2FB4021009101220021AC
:1026300002910391019269463846FFF7A7FB80207B
:10264000002100900191029138466946FFF79EFBF8
:102650004FF4E07100F0BAF94046FFF797FB4FF4F2
:102660000070002100900191029120466946FFF719
:102670008DFB02210191002202924FF4E0500321D0
:10268000009003910A22049269462046FFF77EFBE0
:102690004FF47C7100F09AF94846FFF777FB00226F
:1026A00000212820FFF72AFB2820FFF744FBDFF852
:1026B0001844DFF81804DFF81814A061E161002065
:1026C000206200214FF48040A0626162E1622163D8
:1026D0006163A16304F11800FDF774FD08B100F017
:1026E00009FA00F02BFAF4208DF80C004FF49671E3
:1026F000042204F18C000291019200900123FF2238
:1027000000F04AF900F04DF900F025F904F19005C8
:1027100000950123202200F03AF900F042F900F080
:1027200063F900F03EF964200090012303AAB4216C
:1027300004F11800FDF7E0FD00F056F900F031F962
:102740004FF49670012104F18902029001910092E8
:102750000123012200F020F900F023F900F044F9F0
:1027600000F01FF900F0F7F800950123012200F0B6
:102770000EF900F016F94FF49670082102900191BD
:10278000009500F01CF900F00CF964259FEDD19A3A
:102790009FEDD18B4FF49670082104F1080202904E
:1027A0000191009200F00BF9207A617A009541EADC
:1027B0000021A182012304F18802702104F1180094
:1027C000FDF79AFD00F0EDF80095062322467021F2
:1027D00004F11800FDF72BFEE678227961793004C8
:1027E00000F4702040EA0220084300F091FA002231
:1027F000BB4B00F09BFA53EC182B00F097FA00F05B
:102800006BFBA178090100EE100A6078DFEDB50AD4
:1028100041EA003170EE200A41EA1616C4ED200AA2
:10282000304600F075FA0022B04B00F07FFA53EC0E
:10283000182B00F07BFA00F04FFBC4F88400E66729
:102840004FF47A7000F07CFB642194ED200A00F0D4
:1028500088F820676421C4ED1B0A0A2694ED210A3A
:1028600000F07FF8A067C4ED1D0A0021002000F0F1
:1028700033FA08A800F020FAA08A42F2107190FB07
:10288000F1F000F093F8A08A4FF47A7190FBF1F028
:1028900000F08CF8A08A90FBF5F000F087F8A08A91
:1028A00000F082F8A08A00F069F8A07AE17A41EAA3
:1028B0000021E1820920002100F00EFA07A800F0B3
:1028C000FBF9E08A4FF47A7190FBF1F000F06EF8BA
:1028D000E08A90FBF5F000F069F8E08A00F064F817
:1028E000E08A00F04BF80121002000F0F5F905A87E
:1028F00000F0E2F9E06E00F057F8E06E00F03EF80C
:102900002E2000F0CFF9206F00F04EF8206F00F07D
:1029100035F80121092000F0DFF906A800F0CCF914
:10292000606F00F041F8606F00F028F82E2000F092
:10293000B9F9A06F00F038F8A06F0A2190FBF1F10F
:1029400006FB11063036F0B200F0ACF94FF4FA7025
:1029500000F0F6FA1EE74FF4967001210290019103
:102960007047FDEEC00A20EE090ABDEEC00A10EE67
:10297000100A90FBF1F105FB110070470A2190FB52
:10298000F1F106FB11003030C0B200F08BB9B42178
:1029900004F11800FDF70BBFB42104F11800FDF796
:1029A0006BBE642000F0CCBA90FBF6F00A2290FBDC
:1029B000F2F206FB12003030C0B200F073B901230E
:1029C0000222B42104F11800FDF7F1BE00910122AA
:1029D00001920021029103220392694670470991F6
:1029E00009990992036870474FF49670012102908B
:1029F0000191009501230022B42104F11800FDF794
:102A0000D6BE00B593B03422002106A8FFF751F9D5
:102A10001422002101A8FFF74CF9002000900123A7
:102A20003148016841F0805101600021006800F0E8
:102A30008050009000982E480091026842F4404275
:102A400002600222006800F44040009006A800994D
:102A5000069210210A910C92002108220D910E92EB
:102A6000B421022209930F91109211921292FFF752
:102A7000D6FA08B100F03EF800F076FA08B172B666
:102A8000FEE702210291002203920F204FF4A05191
:102A9000019004914FF480520592052101A8FFF79F
:102AA00043F808B172B6FEE713B000BD000402405F
:102AB0000018024000080240000C024000000240E2
:102AC0003038024000001110000000200054004087
:102AD000A08601000000C842000000000000B03ED7
:102AE00000006940000048C24038024000005940E0
:102AF0000070004072B6FEE7433A0000563A00000C
:102B0000483A0000543A000080B50B48016841F48F
:102B100000710160026842F480620260016841F461
:102B2000807101600320FFF7DCF80020FFF7F6FB5F
:102B3000FEF730FF002002BD003C024010B5282007
:102B400000F0FEF9534C00224FF480712046FFF74D
:102B5000F8F9032000F04AF800F042F800F071F8AC
:102B6000002200F03EF800F038F8032000F03EF8B4
:102B700000F036F800F065F8002200F032F800F0BE
:102B80002CF8032000F032F800F02AF800F059F891
:102B9000002200F026F800F020F8282000F052F87B
:102BA00000F01BF8282000F04DF800F016F80C207B
:102BB00000F048F800F011F8012000F043F802207E
:102BC00000F0BEF9062000F03DF800F006F8022003
:102BD00000F038F8BDE810406BE0012000F0B0B91B
:102BE00001224FF400712046FFF7ABB958B50446F7
:102BF000C4F3C000274E002814BF01220022802108
:102C00003046FFF79EF9C4F38000002814BF01226C
:102C1000002240213046FFF794F9C4F34000002819
:102C200014BF0122002220213046FFF78AF9E00775
:102C30004CBF012200223046BDE858401021FFF76A
:102C400080B9704738B50446124D002203E038B50C
:102C50000446104D01224FF480712846FFF771F9A8
:102C60002009FFF7C3FF00F017F8FFF7EAFF002283
:102C700000F013F82046FFF7B9FF00F00DF8FFF75A
:102C8000E0FF2846BDE8384000224FF40071FFF70E
:102C900058B90000000C024001224FF40071284690
:102CA000FFF74FB980B5FFF7D2FFFFF7CAFFBDE8C6
:102CB0000240022000F044B938B50446002505E082
:102CC000FFF7C5FF022000F03BF96D1CE8B2205C65
:102CD0000028F5D131BD0000032900D9704780B527
:102CE000DFE801F00205070940F0800007E040300E
:102CF00002E0143000E0543040F08000C0B2FFF732
:102D0000A1FFBDE80240012000F01AB901BD00009A
:102D100050B1B0FA80F18840C91CC1F58461090541
:102D200001EBD021400570470146704730B540F2B5
:102D3000FF7C1CEA11541DBF1CEA13556445654510
:102D40003FE0641981EA030C6FF35F530CF0004C11
:102D500043F48013C90241F0004141EA505EC502CC
:102D60001100A5FB020200284FF00000EEFB01203D
:102D70004FF00001E3FB052118BF42F001024018AB
:102D800000214941E3FB0E01A4F580640D0302D24A
:102D900092184041494154F1010470DD450872F137
:102DA000004250F1000051EB0451A1F5801102D412
:102DB00041EA0C0130BD40F2FF7E4CEA0E5100208A
:102DC00030BD0CEA1355644518BF654581EA030C14
:102DD0000CF0004C41D050EA410E1CBF52EA430EA9
:102DE00002E06146002030BD24422C441BD15FEA42
:102DF000050EF6D0090302BF01460020AEF1140E05
:102E0000B1FA81F5AEEB050401FA05FE0C35C5F10A
:102E1000200100FA05F5C8404EEA000E6FF35F533B
:102E200043F480139CE733F00043B3FA83F504BF07
:102E3000B2FA82FE75440B3D641BB5F1200E2FBF24
:102E400002FA0EF3AB40C5F1200E22FA0EFE38BF97
:102E500043EA0E03AA40641C7CE750EA410E14BF0B
:102E600052EA430E6FF000014FF4001515EB430FCB
:102E70008EBF194615EB410F9DE7B4D830BDD4F194
:102E80000104B4F120050FDAC4F12005520828BF6F
:102E900042F0010210FA05FE01FA05F57244E2BFA4
:102EA000E0402843E1400FE0352C9ADCC5F12004D6
:102EB00052EA400220FA05F218BF42F0010231FA4C
:102EC00005F0A1400A43002172F1004250F10000D8
:102ED00051EB0C0130BD000001F000428B1AA3F150
:102EE0006051B1F5801F0ADBB1F17F6F1FD242EA5A
:102EF000C102C10071F1004142EB507070470B15E7
:102F0000C3F10903212B10D2890241EA90518002BA
:102F10000128494141F0004121FA03F0C3F12003A7
:102F2000994071F1004150417047100070476FF0B7
:102F3000000013EB103F5CBF000E42EAC050704728
:102F400038B50446FEF790FE14F1010F054602D095
:102F5000044801786418FEF787FE401BA042FAD3AC
:102F600031BD00BF9C000020F8B500F027F801211A
:102F700000F01EF83160FEF777FE07462868C103AF
:102F800006D4FEF771FEC01BA042F7D30320F2BDAA
:102F900001207060FEF768FE06462868810305D4AC
:102FA000FEF762FE801BA042F7D3EFE70020F2BDE0
:102FB000006800F08050009000987047002000905A
:102FC00040F2E9340448054E0168024D41F0805159
:102FD00001607047047000404038024040000E42DB
:102FE000FEE7FEE7FEE7FEE7FEE770477047704743
:102FF00000F00CB80248FDF717BD0148FEF7EAB82B
:10300000180000204FF40050FEF79FBF02484168AF
:1030100002788A18426070479C0000200448054AE4
:10302000016841F4700101604FF00060106070476A
:1030300088ED00E008ED00E0000000000000000066
:10304000010203040607080910B50749794418313D
:10305000064C7C44163404E00A68081D1144884775
:103060000146A142F8D110BD2C000000380000003C
:103070004EF68851CEF20001086840F470000860F6
:10308000BFF34F8FBFF36F8F4FF00170E1EE100A67
:1030900070470000C7E8FFFFD401000036000000C1
:1030A0000000002000F00DF8002801D0FFF7CCFF51
:1030B000AFF300800020AFF30080FFF709FA00F0C3
:1030C00002F80120704700F001B8000007463846BA
:1030D00000F002F8FBE7000080B5AFF30080024A81
:1030E00011001820ABBEFBE7260002000548014690
:1030F00003B4684680F30988AFF30080FFF7B8FF98
:10310000FFF7D0FFA5EDF5FE0148804701480047D5
:103110001D300008ED30000800000000010203042B
:10312000FFF7FEBFFFF7FEBFFFF7FEBFFFF7FEBFD3
:10313000FFF7FEBFFFF7FEBFFFF7FEBFFFF7FEBFC3
:10314000FFF7FEBFFFF7FEBFFFF7FEBFFFF7FEBFB3
:10315000FFF7FEBFFFF7FEBFFFF7FEBFFFF7FEBFA3
:10316000FFF7FEBFFFF7FEBFFFF7FEBFFFF7FEBF93
:10317000FFF7FEBFFFF7FEBFFFF7FEBFFFF7FEBF83
:10318000FFF7FEBFFFF7FEBFFFF7FEBFFFF7FEBF73
:10319000FFF7FEBFFFF7FEBFFFF7FEBFFFF7FEBF63
:1031A000FFF7FEBFFFF7FEBFFFF7FEBFFFF7FEBF53
:1031B000FFF7FEBFFFF7FEBFFFF7FEBFFFF7FEBF43
:1031C000FFF7FEBFFFF7FEBFFFF7FEBFFFF7FEBF33
:1031D000FFF7FEBFFFF7FEBFFFF7FEBFFFF7FEBF23
:1031E000FFF7FEBFFFF7FEBFFFF7FEBFFFF7FEBF13
:1031F000FFF7FEBFFFF7FEBFFFF7FEBFFFF7FEBF03
:10320000FFF7FEBFFFF7FEBFFFF7FEBFFFF7FEBFF2
:10321000FFF7FEBFFFF7FEBFFFF7FEBFFFF7FEBFE2
:10322000FFF7FEBFFFF7FEBFFFF7FEBFFFF7FEBFD2
:10323000FFF7FEBFFFF7FEBFFFF7FEBFFFF7FEBFC2
:10324000FFF7FEBFFFF7FEBFFFF7FEBFFFF7FEBFB2
:10325000FFF7FEBFFFF7FEBFFFF7FEBFFFF7FEBFA2
:10326000FFF7FEBFFFF7FEBFFFF7FEBF8100F700CD
:1032700007AC40000011E5728AF4000001F900007B
:0732800010FC000224F40021
:04000005080030EDD2
:00000001FF
