:020000040800F2
:10000000A0080020113C0008E93A0008EB3A00087B
:10001000ED3A0008EF3A0008F13A0008000000004D
:10002000000000000000000000000000F33A00089B
:10003000F53A000800000000F73A0008F93A000815
:10004000213C0008253C0008293C00082D3C000804
:10005000313C0008353C0008393C00083D3C0008B4
:10006000413C0008453C0008493C00084D3C000864
:10007000513C0008553C0008593C00085D3C000814
:10008000613C0008653C0008693C00086D3C0008C4
:10009000713C0008753C0008793C00087D3C000874
:1000A000813C0008853C0008893C00088D3C000824
:1000B000913C0008953C0008993C0008FD3A000876
:1000C000033B00089D3C0008A13C0008A53C00083B
:1000D000A93C0008AD3C0008B13C0008B53C000854
:1000E0000D3B0008B93C0008BD3C0008C13C0008BD
:1000F000C53C0008C93C0008CD3C0008D13C0008C4
:10010000D53C0008D93C0008DD3C0008E13C000873
:10011000E53C0008E93C0008ED3C0008F13C000823
:10012000F53C0008F93C0008FD3C0008013D0008D2
:10013000053D00080000000000000000093D000827
:100140000D3D0008113D0008153D0008193D00084F
:100150001D3D0008213D0008253D0008293D0008FF
:100160002D3D0008313D0008353D0008393D0008AF
:100170003D3D0008413D0008453D000800000000ED
:1001800000000000493D00080000000000000000E1
:100190004D3D00080000000000000000513D000837
:1001A000000000000000000000000000553D0008B5
:1001B000593D00085D3D0008613D0008653D0008AF
:1001C000693D00082DE9F14FB0B0924604910DF160
:1001D00042013A9A2B9199464A7000200AE01AF897
:1001E000011B0498309A90470028049000F06A861A
:1001F0000D98401C0D909AF8000050B12528EED1C2
:10020000002100220791089209910A920B910C9209
:1002100004E00D9800F058BE41F001011AF8010FFA
:100220002028F9D023280CD02B2804D02D2805D045
:10023000302809D00BE041F00201EFE741F0040162
:10024000ECE741F00801E9E741F01001E6E72A2870
:100250000FD1D9F8002052F8040BC9F8002000286B
:100260000F9003D540420F9041F004010AF1010ABA
:1002700014E00F92DFF8583C0AE00F98984205DA34
:1002800000EB800402EB4402303A0F920AF1010ABB
:100290009AF80020A2F130000A28EED39AF8000064
:1002A0002E2803D04FF0FF320E9229E01AF8010FEA
:1002B0002A2809D1D9F8000050F8042BC9F8000009
:1002C0000E920AF1010A1BE02D280CBF0AF1010A67
:1002D000002000220E92DFF8F84B0BE040B90E9A96
:1002E000A24205DA02EB820503EB4503303B0E9395
:1002F0000AF1010A9AF80030A3F130020A2AEDD37C
:10030000ADF840100FF6CC309AF8001000F006FF60
:1003100008B11AF8010B8DF842009DF842006828D8
:1003200005D19AF8000068280CD1622106E06C28FB
:1003300004BF9AF800006C2804D171218DF8421096
:100340000AF1010A12A806901AF801BBBBF12501B7
:100350002CD01C3900F0D681091F022940F2D2812D
:10036000133900F0E184093900F0CC81891E00F0D6
:100370007685491E00F02385491E022940F2C2817C
:10038000091F00F01C85491F00F03181491E00F053
:10039000CB84491E00F0D880C91E0DD0891E00F004
:1003A000C384C91E00F0C08400F064BD25238DF80D
:1003B0004830012100F069BDD9F8000050F8044B25
:1003C000C9F80000002C059440F0AB802B994878C8
:1003D000002800F0A1804FF0FF340FF6003000F04D
:1003E000ADFE201A40F06E8500F050BD01236A4634
:1003F00002A9304600F042FE002840F063856D1EE1
:10040000F4D13096079D12AF75B1309E17F8012BCD
:1004100002A9304600F022FE002801D46D1EF5D15D
:100420000028309640F04E850A9D3020002D8DF832
:1004300000000CDD309E01236A4602A9304600F020
:100440001DFE002840F03E856D1EF4D13096059FBC
:10045000089D75B1309E17F8012B02A9304600F0B7
:10046000FDFD002801D46D1EF5D10028309640F026
:1004700029850B9D3020002D8DF800000CDD309E6D
:1004800001236A4602A9304600F0F8FD002840F03A
:1004900019856D1EF4D1309605980899099D471865
:1004A00075B1309E17F8012B02A9304600F0D6FD39
:1004B000002801D46D1EF5D10028309640F0028549
:1004C0000C9D3020002D8DF800000CDD309E0123A6
:1004D0006A4602A9304600F0D1FD002840F0F284BF
:1004E0006D1EF4D130969DF8400041077FF583AE34
:1004F0002020002C8DF800007FF77DAE309D012379
:100500006A4602A9284600F0B9FD002840F0DA84C6
:10051000641EF4D130956EE60FF6C030059000F001
:10052000B5BC0E9D002D04D5204600F027FE0446E4
:1005300007E02A46204600F03DFE002814BF041BB9
:100540002C46089400F0A2BCD9F8001051F8040B16
:10055000C9F8001020F00004002121F0FF3512AB93
:10056000CDE902450593DDE9022306993C2413B940
:100570000AB90E98A0B102F00F05641E30353A2D6D
:1005800008DA12090D5542EA03721B0908BF002A56
:1005900002D105E02735F4E705980D19A842EAD302
:1005A00008190590C4F13C020E98089282420ADABA
:1005B000BDF84010821A4FF6EF7001400A92ADF874
:1005C000401000F063BC002840F160849DF84000BA
:1005D00000F01400102840F059840F9B07990A98E6
:1005E0005B1A1B1A9A1A002A40F350849AE32B993B
:1005F000487820B14FF0FF340FF6B020EFE69DF8B9
:100600004200622860D0682817D06A283FD06C2842
:1006100006D0712847D074282CD07A281DD062E0EB
:10062000D9F8001051F8040BC9F80010002866D161
:100630004FF0FF340FF68C20D1E6D9F8001051F8B6
:10064000040BC9F8001020B94FF0FF340FF67420E6
:10065000C5E60D99018000F019BCD9F8001051F8D9
:10066000040BC9F80010002849D14FF0FF340FF6F1
:100670005420B4E6D9F8001051F8040BC9F8001062
:1006800000283CD14FF0FF340FF63820A7E6D9F808
:10069000001051F8040BC9F8001080B94FF0FF3476
:1006A0000FF620209BE6D9F8001051F8040BC9F88A
:1006B000001020B94FF0FF340FF608208FE60D9A96
:1006C000D317C0E90023E1E3D9F8001051F8040B77
:1006D000C9F8001020B94FF0FF340FF6E8107EE69D
:1006E0000D990170D2E3D9F8001051F8040BC9F844
:1006F000001020B94FF0FF340FF6C8106FE60D99C7
:100700000160C3E3D9F80020D21D22F00702C9F826
:100710000020D2E900010832C9F80020CDE9020129
:10072000C80F02D007982D210AE0BDF840008107CC
:1007300002D507982B2103E0C00705D50798202193
:1007400012AA1154401C079012A80799DDE902452E
:1007500043184BF020006128059321AE0BD00E9872
:10076000002802D506200E9005E001BF4BF02000C6
:10077000672801210E91DDE9020148004015401C67
:100780000A460DD109030BD0ABF1610703201A2FE4
:10079000089002D20FF648110DE00FF648110AE05A
:1007A00070B912030CD1ABF1610703201A2F089026
:1007B0001CD30FF638110322184600F027FD65E31D
:1007C000DDE902016A4600F075FDCDE902014BF05A
:1007D0002000612811D1059830210170821C0592FA
:1007E000BBF1610F0CBF7821582102E00FF6F80130
:1007F000E1E741700798801C0790DDE9020120F0D5
:10080000000231F0004308BF002A02D10025002475
:1008100045E14BF02008B8F1610F40F095800E984B
:10082000002847BF21210191401C0190019F7F1C9E
:100830002046294600220023DDE9024500F072FD32
:1008400038BF85F0004500998DF88420091F002FDE
:1008500000910DF1850034DD064620462946002230
:10086000002300F079FD2BD21C2200F08FFD0446FE
:100870000D4600F029FEFF1F002F804609DD00F025
:100880003FFE02460B462046294600F009FF04467B
:100890000D46F01D0721B8F1000F0CDD491E5EBFAB
:1008A00008F00F0200F8012D4FEA2818F3D502E0F6
:1008B000002200F8012D491EFAD5C61D002FCCDC00
:1008C00030460DF18501401A01990DF18506054666
:1008D0008842C8BF0D46002D2FD4854206DA0DF19F
:1008E0008500415D0829A8BF0F2000DA00202946B5
:1008F00021AA0A4400E06D1E12F80139491E834204
:10090000F9D00F2804D10DF18500425C521C4254ED
:10091000002904D50098001D21AE6D1C0090681EB2
:100920000BD431180A783032D3B23A2BA4BF5A44D0
:100930003A3A401E01F80129F4D50E98002840F1FA
:10094000AD80691E0E91A9E00099DFF8002747F2FB
:100950009750414391FBF2F2009225F00045C2F11D
:100960000702002A04DD2046294600F04BFB0BE07D
:1009700052420020DFF8D81600F044FB02460B4636
:100980002046294600F0FEFE04460D46B8F1660FEB
:1009900006BF009F0A3706270E983F18142FC8BFBE
:1009A000142730208DF884000DF1850000E03046DA
:1009B000002F35DD06462046294601F007F801469E
:1009C0000A4606F1080304200A26B2FBF6F606EBF7
:1009D000860EA2EB4E02303203F8012C0A22B6FB3F
:1009E000F2F202EB820EA6EB4E063036401E03F802
:1009F000026DE9D1083F002F03F10806D7DD084654
:100A000000F0F6FF02460B462046294600F048FE5D
:100A10000022DFF8403600F0F9FF04460D46CAE731
:100A20000DF18501401A0DF1850604E00099491E7B
:100A3000401E0091761C31783029F7D0B8F1660F4E
:100A400002D10099491C04E0B8F1650F0CBF0121E7
:100A500000210E9D4D19A842B8BF451E002D1DD482
:100A6000854204DA705D3428C8BF392000DC3020AC
:100A70002946721E531800E06D1E13F80149491EE5
:100A80008442F9D0392802D1705C401C705400298E
:100A900004D50098401C16466D1C0090009C01F087
:100AA0008BF8406A0778DDF8388028B2002802DC2D
:100AB00001250FF23C664BF02000662808BF641C3D
:100AC00016D0672846D120B210F1040F48DB40450C
:100AD00046DA9DF84000641C010703D428B2404563
:100AE000D8BF804620B2B8EB000848BF4FF00008DE
:100AF0000FFA84FBBBF1000F00F3B5800898411C8E
:100B00000891302205990A54B8F1000F03DC9DF8D2
:100B10004000010704D50898411C089105990F541D
:100B200018EB0B0FB8BFC8F1000424B26042A04418
:100B30002AB20B909045B8BF4546059B08982DB248
:100B400009952A463146184400F060FBA8EB0500E1
:100B50000C90D2E0BBF1610F17D14FF0700B19E090
:100B600028B2404504DA9DF840100A0758BF804675
:100B7000B8F1010848BF4FF00008BBF1670F14BF80
:100B80004FF0450B4FF0650B04E0BBF1410F08BF80
:100B90004FF0500B0898411C0891B8F1000F0599CF
:100BA00016F8012B0A5403DC9DF8400001071AD502
:100BB0000898411C0891B8F1000F05990F5412DDF7
:100BC0006D1E28B28045B8BF45460598089B2AB2DD
:100BD0003146184400F01AFB08992DB269180891A3
:100BE000A8EB05000B9005980899084421B200294C
:100BF00080F800B003D42B224270821C04E02D2226
:100C000042700C46821C644200212CAB20460AE054
:100C100004460A2094FBF0F000EB8005A4EB4504A9
:100C200003F8014B491C00B20028F1DC012906DC65
:100C30004BF02000652804BF302002F8010B00298A
:100C40002CAB08D1302002F8010B06E0491E585C9D
:100C5000303002F8010B0029F8DC059908980844A7
:100C6000121A099249E028B221B288421CDA05988A
:100C7000089B2AB23146184400F0C8FA08992DB2F0
:100C800069180891ABEB0500B8F1000F0B9003DC7D
:100C90009DF84000020704D5059847540999491C5E
:100CA0000991CDF8308028E00598089B22B23146A2
:100CB000184400F0ABFA08982D1B5844B8F1000F07
:100CC000089003DC9DF840100A0703D5411C0891E9
:100CD00005990F5428B28045B8BF45460598089B32
:100CE0002AB206EB0B01184400F090FA08982DB2D6
:100CF00028180890A8EB05000B909DF8400000F024
:100D00001400102840F0C280079A08990B988A189E
:100D1000099982180C988A1882180F98824280F2DA
:100D2000B580821A0A92B1E09DF84200622808D08C
:100D300068280ED06A2814D06C281FD0712810D0D3
:100D40001CE0D9F8001051F8040BC9F80010C0B22B
:100D50001AE0D9F8001051F8040BC9F8001080B25D
:100D600012E0D9F80020D21D22F00702C9F80020B5
:100D7000D2E900010832C9F8002006E0D9F80010D5
:100D800051F8040BC9F800100021CDE902019DF8CB
:100D9000400001075AD5DDE90223002B08BF002AD5
:100DA00054D04BF02000782850D1079812A9302257
:100DB0000A54401C431C079301F800B046E09DF81C
:100DC0004200622808D068280ED06A2814D06C2807
:100DD0001FD0712810D01CE0D9F8001051F8040B76
:100DE000C9F8001040B21AE0D9F8001051F8040B0D
:100DF000C9F8001000B212E0D9F80020D21D22F08C
:100E00000702C9F80020D2E900010832C9F8002021
:100E100006E0D9F8001051F8040BC9F80010C1170A
:100E2000CDE90201002902D507982D210AE0BDF87D
:100E30004000810702D507982B2103E0C00705D5A4
:100E40000798202112AA1154401C079012A8079954
:100E50000144059102A8594600F04EF816E0012021
:100E60000790D9F8000050F8041BC9F800008DF86D
:100E700048100BE025210122BBF1000F8DF848102E
:100E8000079203D08DF849B0022107910F9A079875
:100E90000A990C9C121A0898521A0B99121A09985E
:100EA000521A121A9DF84000141B41073FF5AAAAD6
:100EB0002020002C8DF800007FF7A4AA309E254644
:100EC000FFF794BA4FF0FF3031B0BDE8F08F00006B
:100ED000CBCCCC0C686A6C747A4C00007072696E72
:100EE00074665F733A2062616420257320617267C3
:100EF000756D656E740000002DE9FC4304466F2992
:100F0000256908BF082605D041F02000782814BFC5
:100F10000A261026D4E900233C27904699466429E6
:100F200018BF692905D1002B03D5D8F1000869EB5A
:100F30004909B9F1000F08BFB8F1000F0CD1206BBF
:100F400050B9082E3AD194F83800010736D5302030
:100F50003B2785F83B0031E08DF8001040464946BC
:100F60003246F31700F02CFE3032D0B27F1E3A2802
:100F700001970EDAEA55404649463246F31700F02B
:100F80001FFE80465FEA010908BFB8F1000F05D1D6
:100F900008E09DF800001218513AEBE7E068E91903
:100FA0008842DBD3082E09D194F83800010705D513
:100FB000E85D302802D07F1E3020E855C7F13C02A2
:100FC000A261E919E160206B824208DA821A22628A
:100FD0004FF6EF70218F01402187BDE8F383002891
:100FE0000ED594F8380000F01400102808D1636B77
:100FF0006169206A5B1A1B1A9A1A002AC8BF22620A
:10100000BDE8F3832DE9D04306460F4614464FF062
:101010000008DFF8449012E0E00707D542464B464F
:101020003046394600F0F2FC06460F464046494637
:1010300042464B4600F0EAFC641080468946002C8C
:10104000EAD130463946BDE8D0830000A0860100D1
:101050000000F03F84D797410000244010B50346BC
:101060000C461146A0689847A06020B1E06A401C79
:10107000E062002010BD4FF0FF3010BDF8B505460E
:101080000E4617461C4600205CB117F8011BB068DD
:10109000A847B06030B1F06A401CF0620020641EC6
:1010A000F3D1F2BD4FF0FF30F2BD00007072696EF7
:1010B00074665F733A20256E20646973616C6C6F8F
:1010C000776564007072696E74663A2062616420AC
:1010D000256E20617267756D656E740000000000FA
:1010E0006E616E004E414E00696E6600494E4600CC
:1010F00030000EE002684368024408305FEAC37CB7
:1011000044BF4B445B1E52F804CB43F804CB091F89
:10111000F9D150F8041B0029ECD17047C9B202780C
:101120008A421AB11CBF10F8012FF9E718BF00203E
:1011300070470268531C03601170704780B500B996
:1011400006A005490B681BB122220021984701E047
:1011500000F0B9FD222002BD9C000020636F6E7379
:10116000747261696E742068616E646C65723A2095
:10117000626164206D6573736167650000F101034E
:10118000810704D010F8011B820781B1FAD10268EF
:10119000A2F10131914311F0803104BF50F8042FC6
:1011A000F6E709BAB1FA81F100EBD100401CC01A90
:1011B00070472E00C9B2830706D0521E22D310F802
:1011C000013B9942F7D11FE0083A13D302F1040220
:1011D00041EA012141EA014150F8043B121F21BFBD
:1011E0004B40A3F1013C2CEA030C1CF0803FF3D0F0
:1011F000C9B2001F083210F8013B521E28BF91EA05
:10120000030FF8D818BF0120401E704762B38B0748
:1012100008D0521E11F8013B00F8013B00F0248079
:101220008B07F6D1830740F0208000BF103A07D328
:1012300030B4B1E83810103AA0E83810F9D230BC18
:10124000530724BFB1E80810A0E8081044BF51F8C4
:10125000043B40F8043BD20724BF31F8022B20F8AE
:10126000022B44BF0B7803707047121F17D35B002B
:1012700009D151F8043B20F8023B1B0C121F20F847
:10128000023BF6D20BE051F8043B00F8013B1B0A8D
:1012900020F8023B1B0C121F00F8013BF3D238BFB1
:1012A000121D521E24BF11F8013B00F8013BF8D873
:1012B0007047000010B5144600F002F8226010BD1F
:1012C000C1F30A5343B14A0012F5001F28D2A3F21A
:1012D000FE32A1EB0251704750EA410C20D001F0E0
:1012E000004C31EA0C01B1FA81F204BFB0FA80F38C
:1012F000D2180B3AB2F120032CBF00FA03F191404F
:1013000041EA0C013EBFC2F1200C20FA0CF3194354
:101310009040524240F2FD33D21A01EB0351704724
:101320000022704741EA030C50EA4C0C52EA0C0CC4
:101330004FF4001C09D307D01CEB410F9CBF1CEBE2
:10134000430F8B4208BF824270471CEB430FFBD810
:10135000994208BF9042704741EA030C50EA4C0C96
:1013600052EA0C0C4FF4001C09D307D01CEB410FC0
:101370009CBF1CEB430F994208BF904270471CEB87
:10138000410FFBD88B4208BF82427047124254D4AF
:1013900040F2FF7C1CEA11530FD0634531D09B18FB
:1013A00063453CBF01EB0251704701F0004141EA47
:1013B0000C510020AFF30080704750EA410320D069
:1013C00001F0004C91EA0C011CD0B1FA81F30B3B07
:1013D0009A420DD9D21A994051EA0C01C3F1200C5E
:1013E00020FA0CFC61449840531C40F2FF7CD7E784
:1013F000914041EA0C01C2F1200C20FA0CF3194390
:1014000090407047B0FA80F31533202BE0D3202AA8
:10141000EED3203A203B9A4209D9D21A00FA03F1BE
:1014200041EA0C010020531C40F2FF7CB8E700FAAF
:1014300002F141EA0C0100207047524240F2FF7C69
:101440001CEA11530DD06345DBD0B2EB030C3CBF5B
:10145000A1EB025170470CF1010221EA035141F462
:10146000801150EA410CCCD001F0004C352A27DC29
:1014700030B481EA0C01B2F1200309DAC2F1200391
:10148000044601FA03F5D0402843D1409C400CE0CB
:10149000C3F12002450020FA03F418BF44F0010410
:1014A00021FA03F091400C43002174F1004550F102
:1014B000000051EB0C01244230BC7FF47BAF70473D
:1014C0006146002076E70000C1F30A5340F21E4255
:1014D000D31A0CDDCA0283F3070342EA505242F0EA
:1014E0000042DA4002EBE17282EAE17070476FEA93
:1014F000E17203F2E13008B182F000407047000071
:1015000010F0004160B148BF4042B0FA80F2904014
:10151000D21CC2F5846241EA025202EBD02140059E
:101520007047000070B491EA030F4FF0004540F19E
:10153000BF806B40841A71EB030604D26E40001B1F
:10154000B141121973414FF4001C1CEB410F34BF21
:101550007CEB430683E00C0DA4EB1356362E00F310
:101560007C80012E45EAC32341DC43EA525312BF7B
:10157000D20292025B08240545EAC12141EA50519A
:10158000D2EBC020994125D407D1B0FA80F610FAE9
:1015900006F162D00020203608E0B1FA81F6B140B1
:1015A000C6F1200220FA02F21143B0404FEAF4746F
:1015B000B4EB465434F001064FEA74040AD8D6F569
:1015C0000016760D04F00044F04061FA06F2504037
:1015D000F1404840C00A40EA415021F0004128BF94
:1015E0005FEA500550F1000044EBD12135E0DB0A01
:1015F00045EAC121C90AB6F120050EDD42EA0242E0
:10160000120CC5F1200603FA06F6EB4042EA060585
:101610006D42984161F100010DE062FA06F5F24079
:10162000554063FA06FC82EA0C02F3405A406D42D0
:10163000904161EB030111F4801F05D1641E620526
:1016400002D06D004041494121F48011430875F1F9
:10165000004350F1000041EB045170BC70471CEB9B
:10166000410F15D223F0004352EA43060BD04FEA54
:101670004C0CBCEB410F04D80C0D661E342EB7DDAC
:10168000EBE7801A994150EA410608BF0021E4E7E0
:1016900008BF1CEB430F28BF6FF00001DDE700001F
:1016A00070B491EA030F4FF000457FF543AF6B40F4
:1016B000841A71EB030603D2001BB1411219734166
:1016C0004FF4001C1CEB410F34BF7CEB430442E0A1
:1016D0000C0DA4EB1356352E4FDC45EAC323DB0A71
:1016E00045EAC121C912B6F120050DDD63FA05F600
:1016F000EB4086EA0305124218BF45F00105C01809
:1017000051F100010CD213E062FA06F5F2405540A7
:10171000F3415A40B340F3405A408018594107D32F
:1017200049085FEA30005FEA350528BF45F001054A
:1017300001F58011420875F1004250F1000041EBC3
:1017400004514E0016F5001F70BC38BF70470020D2
:10175000090D090570471CEB410F10D252EA4306F0
:101760000BD0BCEB410F05D80C0DAB43661E342EDD
:10177000B6DD02E0AB438018594170BC704770BCC5
:1017800070470000F0B540F2FF7581EA030C0CF0E1
:10179000004C15EA11541DBF15EA1357AC42AF4275
:1017A000E5E0BC41C1F31301C3F31303801A99416F
:1017B00043F4801304D2641E001849418018594133
:1017C000C90241EA5051B1FBF3F603FB1611A2FB2B
:1017D0000675D7EBC020A94102D2761E8018594168
:1017E000C90241EA5051B1FBF3FE03FB1E11A2FBFB
:1017F0000E75D7EBC020A94103D2AEF1010E8018BF
:101800005941890241EA9051760546EA8E2EB1FB94
:10181000F3F603FB1611A2FB0675D7EB8020A94156
:1018200002D2761E80185941C90241EA50514EEA4F
:10183000060EB1FBF3F603FB1611A2FB0675D7EB00
:10184000C020A94102D2761E80185941C90241EA3E
:101850005051B1FBF3F703FB1711A2FB0735D3EB94
:10186000C020A94167F100070CBF004247F0010703
:1018700066F3D5274FEA1E31B80814F5806412DDEF
:10188000BD0775F1004250EB0E5051EB045111F5BC
:10189000801F5CBF41EA0C01F0BD4CF07F6141F05C
:1018A000E0410020F0BDBD076D0840EA0E5041F454
:1018B0008011D4F10104B4F120060ADAC4F1200643
:1018C0000200E04001FA06F3E1401843B24015433C
:1018D0000EE0342C13DCC6F1200445EA40056D0807
:1018E00020FA06F2154321FA06F0A1400D4300212B
:1018F00075F1004250F1000051EB0C01F0BD0020E9
:101900005FEA0C01F0BDCFB992185B41B3FA83F7DF
:1019100004BFB2FA82F6BF190B3FB7F120062FBF02
:1019200002FA06F3BB40C7F1200622FA06F638BFDA
:101930003343BA401CB1E419641E33E77F4231F0EF
:101940000041B1FA81F404BFB0FA80F6A4190B3C4F
:10195000B4F120062FBF00FA06F1A140C4F1200621
:1019600020FA06F638BF3143A0403C1B1AE7AC42D0
:101970001ABF05EA1357AF4212E050EA41061CBFF6
:1019800052EA4306BFE750EA4107304661461CBFB2
:1019900041EA0551F0BD52EA430C08BFC143F0BD16
:1019A00000204FF4001616EB410F98BF16EB430FC3
:1019B00008BF16EB410F24BFC14305E016EB430FF0
:1019C0000CBF61464CEA0551F0BD0000400D40F2ED
:1019D0001E4C40EAC120BCEB115C40F0004003D437
:1019E0008CF30701C84070476FEAE1707047000050
:1019F00050B1B0FA80F18840C91CC1F58461090575
:101A000001EBD021400570470146704730B540F2E8
:101A1000FF7C1CEA11541DBF1CEA13556445654543
:101A20003FE0641981EA030C6FF35F530CF0004C44
:101A300043F48013C90241F0004141EA505EC502FF
:101A40001100A5FB020200284FF00000EEFB012070
:101A50004FF00001E3FB052118BF42F001024018DE
:101A600000214941E3FB0E01A4F580640D0302D27D
:101A700092184041494154F1010470DD450872F16A
:101A8000004250F1000051EB0451A1F5801102D445
:101A900041EA0C0130BD40F2FF7E4CEA0E510020BD
:101AA00030BD0CEA1355644518BF654581EA030C47
:101AB0000CF0004C41D050EA410E1CBF52EA430EDC
:101AC00002E06146002030BD24422C441BD15FEA75
:101AD000050EF6D0090302BF01460020AEF1140E38
:101AE000B1FA81F5AEEB050401FA05FE0C35C5F13E
:101AF000200100FA05F5C8404EEA000E6FF35F536F
:101B000043F480139CE733F00043B3FA83F504BF3A
:101B1000B2FA82FE75440B3D641BB5F1200E2FBF57
:101B200002FA0EF3AB40C5F1200E22FA0EFE38BFCA
:101B300043EA0E03AA40641C7CE750EA410E14BF3E
:101B400052EA430E6FF000014FF4001515EB430FFE
:101B50008EBF194615EB410F9DE7B4D830BDD4F1C7
:101B60000104B4F120050FDAC4F12005520828BFA2
:101B700042F0010210FA05FE01FA05F57244E2BFD7
:101B8000E0402843E1400FE0352C9ADCC5F1200409
:101B900052EA400220FA05F218BF42F0010231FA7F
:101BA00005F0A1400A43002172F1004250F100000B
:101BB00051EB0C0130BD00000048704710000020C0
:101BC000D3BBD9B1B2F5803F5BD2022A1ED98C4675
:101BD000B1FBF2F102FB11C31B0443EA1043B3FB58
:101BE000F2FC02FB1C3380B240EA0343B3FBF2F089
:101BF00002FB103240EA0C4000237047022A05D94C
:101C00008446B0FBF2F002FB10C270474AB105D126
:101C100000F0010249085FEA30007047002200230B
:101C2000704700F053B80B000200002100207047FD
:101C3000F7D3002200237047904271EB030CF2D3DC
:101C400070B5B1FA81F4B3FA83F52C1BA340C4F14B
:101C5000200532FA05F63343A2405FF00046E64025
:101C600002E05B085FEA3202841A71EB030524BFCD
:101C7000204629467641F4D302000B0030000021B3
:101C800070BD70B5B1FA81F4B2FA82F5C4F12004E6
:101C90006419B4F12006DAD3B2405FF00044F44096
:101CA000002502E052085FEA3303C61A71EB020E08
:101CB00024BF3046714664416D41F3D302000B00EE
:101CC0002000290070BD012000F002B8704700001C
:101CD00080B5AFF30080024A11001820ABBEFBE7CD
:101CE00026000200026842F4006202607047009819
:101CF000401E009000987047416841F48051416057
:101D000070472DE9FC41044604F13C052268DFF8E8
:101D1000B86A5168E06AAB7895F801C00027102BCB
:101D200018BF402B40F041829769D2F814C05FEA97
:101D3000CC7E05D4B0F52A0F18BFB0F12A4F47D09A
:101D40005FEACC7045D5880543D5E06AB0F52A0F27
:101D500008BF012104D0E06AB0F12A4F01D1082167
:101D6000E162A878402809D168690028A8681ABFEC
:101D700040F00100C0B200F0FE0028E02069B0F59C
:101D8000804F16D168782128A8680EBF00F0FE00A9
:101D900040F00100C0B21061606B00281CBFC06B36
:101DA00000282BD1A06B00281CBFC06B00280FD0CF
:101DB00024E0686920B900F0FDFA40F0F00006E088
:101DC0006869012804D100F0F5FA40F0F1001061D3
:101DD000EBE25FEA0C7016D5880514D5A868C0B28E
:101DE0001061616B002904BFA06B0028F0D0C86BA4
:101DF000002802BFA16BC86B0028E9D020684168A9
:101E000041F4006126E15FEA8C7000D5880540F15D
:101E1000A380AB78E16A276B6878222840F0948031
:101E20006869002808BF402B07D100210091536941
:101E3000009391690091009AB7E26869002804BF95
:101E40002069B0F5404F08D100F0D6FA40F4807018
:101E500010606869401C6861A7E2608D28B900F0D5
:101E6000CBFA40F4007010606BE0608D012835D132
:101E7000B14212D11146086820F4806010602168D8
:101E80004868020504D50846024600F0C8FA23E077
:101E9000002200924B6900930CE0082918BF20290A
:101EA00003D0122F0CD101290FD000F0B7FA116026
:101EB00000F0F6FA89690091009800F0A8FA40E075
:101EC00004291CBF0229102902D000F0A7FA03E060
:101ED0001046016841F4806111602DE0628D022A94
:101EE00015D104291CBF0229102909D020680268D5
:101EF000034622F480621A602068FFF7F3FE0CE0CC
:101F000020680268034642F480621A6005E0226895
:101F10001368104643F48063036020684268130529
:101F20000AD5B14218BF012904D008291CBF1029C5
:101F3000202901D1FFF7E0FE00F0B2FA8969009193
:101F400000980021696130E20023009351690091FB
:101F500092690092009928E27F070CF0040060D596
:101F6000D2F804E05FEA0E57F5D45FEA0C6732D589
:101F70004F0530D500282ED16978AB78E76A208DDF
:101F8000002808BF212917D1082F1CBF202FB742D6
:101F900004D000F01AFA0022AA7033E000F06CFAC4
:101FA000A878402806D10021A9702046BDE8F64156
:101FB00000F07CBC00202AE0212903D0402B08BF80
:101FC000222903D1608D10B900F0FAF9EDE1A8786B
:101FD000402822D0B7E10028F8D08805F6D5102B8C
:101FE0001BD1E16A68782128F0D1608D08B100F03A
:101FF000AAB908291CBF2029B14206D000F0E5F992
:102000000020A8702021697002E000F035FAA87065
:102010002046BDE8F64100F04ABC2046BDE8F64146
:10202000DBE253681E0516D45FEA4C6369D54E05A2
:1020300067D5002865D1687822280CD1608D0428E6
:102040000AD300F0CFF9608D032804D120684168DD
:1020500021F480614160A8E1E16A0229FBD00128F6
:1020600018BF0028F7D10020DFF844130090192092
:102070000B68B3FBF0F04FF47A76B0FBF6F606EBA4
:10208000860600962146FFF732FE20B10B681868DD
:102090008405F8D41AE0686840F020006860506851
:1020A00020F4E06050600A6810694A6A1070486A5B
:1020B000431C4B622023488D421E4A856B700020D2
:1020C000A8700846BDE8F64100F0F2BB18460C4681
:1020D0000168024621F48061116000F05FFB00F0AE
:1020E000C3F9202200F084F96A70A878402853D1FF
:1020F0000021A970002020632046BDE8F64100F0D1
:10210000D8BB0028A7D08805A5D5E06A618D042931
:1021100004D100F055F9216808693FE1618D032978
:1021200010D1516821F480615160042818BF022841
:1021300001D000F093F920680169606A0170616A5A
:102140004A1C2FE1618D022940F02781012818BF28
:1021500010280DD0042818BF022804D010460168AA
:1021600041F4007106E01046016841F4806101E02D
:1021700000F054F9116000F077F900F039F92268A5
:1021800000F030F92068416821F44071416020205E
:102190006870A9784029ABD00020A8701221216373
:1021A0002046BDE8F64100F085BB686800B9976934
:1021B0005369980722D5880520D5686800B19769CA
:1021C0006878002100F02800282811D100F0F8F8E4
:1021D000780758BF0121380654BFE268A269002081
:1021E000287002B02046BDE8F04192B200F063BB17
:1021F0006FF00201516100202870D6E0DF0674D52F
:10220000880572D56F78506820F4E0605060002136
:102210000091206841690091206800F004F900F005
:102220001DF921684868020528D50FF2AD58222F04
:1022300018BF2A2F10D0606B00F0FCF8606B00F024
:102240004DFB01281AD0606BC0F85080606B00F025
:1022500033FB98B1606B0FE0A06B00F0EBF8A06B64
:1022600000F03CFB012809D0A06BC0F85080A06BA7
:1022700000F022FB10B1A06B016D8847608D98B112
:10228000206841694A0702D5006900F0ACF820686F
:1022900041694A0602D5006900F0A5F8608D18B1C1
:1022A000686840F004006860686818B12046BDE8BE
:1022B000F641EFE12A2F05D12063282169702046DD
:1022C00000F00FFB6878282807D1E66200F0E2F8FA
:1022D0002046BDE8F64100F005BB206B222818BF60
:1022E000222F62D100F0D6F84DE003F00400BCF1DB
:1022F000210F18BFBCF1290F2CD11B061CD54E0590
:102300001AD5C8B96978608D00284ED0606A037804
:102310001361606A421C626200F05EF808BF2929FE
:1023200043D100F095F821202063282169702046D0
:10233000BDE8F64100F0D7BA002836D0890534D57B
:10234000608D002831D0606A01781161606A411C9B
:10235000616228E05B061BD54E0519D5C0B96978C6
:10236000608D10B31069626A1070606A431C63620A
:1023700000F032F808BF2A2917D100F069F82220AE
:102380002063282169702046BDE8F64100F0A9BA13
:1023900058B1890509D5608D38B11069616A087036
:1023A000606A421C626200F023F8BDE8F38100001D
:1023B0000C000020A8680004C00D00F00600704763
:1023C000506820F4806050607047506820F4E060EE
:1023D0005060112121637047608D421E6285608DBF
:1023E000002870471069616A0870606A421C626266
:1023F000608D411E618570470021009153690093F3
:1024000091690091009A216808680A46704721681E
:102410000A68084642F4007202607047104601687C
:1024200021F4806170470268014642F001020A60AF
:1024300000987047026853686385608D18B16868BA
:1024400040F004006860486820F40060486070470D
:102450002068416821F4806141607047206801680C
:1024600021F480610160704720680169606A017031
:10247000616A4A1C62627047506820F4E0605060F4
:102480002068016841F40071016000202063202170
:10249000697070470020206320216970A870704720
:1024A0000020009021684A6900927047F8B50546FF
:1024B00005F13D0029684E694F6842780024F30514
:1024C00005D5FB0503D56FF4807301244B61B1057D
:1024D00007D5FB0505D52B686FF4007144F00204A5
:1024E0005961710560D5FB055ED56B8D90F800C014
:1024F000D5F830E06FF48061202A08BF002B48D166
:10250000BCF1210F18BFBCF1290F05D0BCF1280F79
:1025100008BFBEF1210F3CD10278EB6ADFF8A8C2F8
:10252000082B14BF202B282A17D1C5F82CC02A68E5
:10253000536823F4E06353602A68516120222968BC
:102540000B6823F480630B60002129630270002371
:102550004370284600F0C6F926E0212A16D1C5F8B6
:102560002CC02A63202303704FF0000C80F801C0B8
:102570002868426822F4E062426028684161286865
:1025800000F026F8284600F0AEF90DE02868416119
:102590000AE02B6844F004045961102A18BF402A4D
:1025A00002D1286800F013F9300507D5F90505D5E3
:1025B00029686FF4006044F00804486134B1286C65
:1025C00004432C642846BDE8F24063E0F1BD306866
:1025D000016821F480610160704710B500F13D038E
:1025E00000F148021C78916889B900685168012996
:1025F00005D11368DBB203619068801C05E01168A7
:102600000904090E01619068401C906010BD91683A
:10261000012907D113680068DBB203619168491C86
:10262000916010BD916802292DD1222C03D101683F
:1026300000F02AF810BD418D61B1212C0AD1416A08
:1026400003680A781A61416A4A1C4262418D4A1E37
:10265000428510BD418D002908BF212C13D101688E
:102660004A6822F4E0624A60002401680A6842F481
:1026700000720A600021016320221A705C70BDE8BC
:10268000104000F013B910BD0A68084642F4807289
:102690000260704738B5044604F13D052878697832
:1026A000102914BF4029222804D121680A6822F485
:1026B00000620A6000F02801282903D1002020636D
:1026C00029700BE0226851680A0505D4602803D000
:1026D0002020287000216970002020632068416854
:1026E0000A0523D5416821F400614160606B0FF257
:1026F000E90190F83520012A09D00165606B00F0EE
:10270000DBF8002825D000F056F8606B0BE0A06BDA
:102710000165A06B00F0D0F8D8B1206800F034F863
:1027200000F049F8A06B016D884712E02A78602A12
:102730000AD1202129700022226400F025F800F03F
:1027400033F800F0D1F804E000F01EF8204600F065
:10275000AFF8206C10F00F0F01D000F01FF82878B0
:10276000216C4A070ED528280CD11748E0620021B9
:1027700021632020287000226A702046BDE8324084
:1027800000F0B0B831BD000041694A0605D50069C6
:10279000616A0870606A421C626270472068416822
:1027A00021F4E061416070472068016849084900F0
:1027B00001602046704720680168490849000160AF
:1027C00020202870704700000000FFFF306801687B
:1027D00041F40071016070477CB50021009119251A
:1027E000816B314801F13D024FF47A761378046829
:1027F000B4FBF5F5B5FBF6F62320464300960098AA
:1028000038B10098401E00900C6820688505F6D409
:1028100003E0086C40F020000864486B08B1002415
:10282000C463886B08B10024C4630868046824F496
:102830008064046000204885486B08B1002404656A
:10284000886B08B1002404650868046864086400A3
:102850000460107860280AD120231370002454707B
:1028600000220A640846BDE8764000F03DB803F057
:102870002803282B0ED10868036843F00103036086
:1028800028230868046844F4806404600020086316
:10289000137003E020201070002454700846BDE837
:1028A000764000F005B800000C000020704770472B
:1028B000704770477047704790F83510022903D071
:1028C0008022426501207047052180F8351000689C
:1028D00002685208520002600020704790F83500EC
:1028E00070477047704770477047000000200860CD
:1028F00000F0C4B92DE95041DFF87443DFF8686394
:102900006068DFF8688300F00C00042804D0082811
:1029100004D00C2815D027E0404626E000F027F828
:1029200047BFC0F38816A8FB0601C0F38818A6FBB2
:102930000801FFF745F92168C1F30141491C49002D
:102940000FE000F014F847BFC0F38816A8FB06019B
:10295000C0F38818A6FB0801FFF732F92168C1F31C
:102960000271B0FBF1F000E03046BDE85081002379
:10297000226820684102206802F03F0270472DE97A
:10298000F8430646B24D3078C1074FD500F064F9E0
:1029900004280DD000F060F9082802D168684102CF
:1029A00006D400F059F90C280AD16868410207D50D
:1029B000286881033AD57068002837D1012044E1A6
:1029C0007068B0F5803F04D1286840F480302860FA
:1029D00011E0B0F5A02F286806D140F480202860CF
:1029E000296841F4803105E020F4803028602968AE
:1029F00021F480212960706860B100F03FF904463D
:102A00002868810312D400F039F9001B6528F7D338
:102A100003201AE100F032F904462868810305D545
:102A200000F02CF9001B6528F7D3F1E73078914FBF
:102A300081071ED5A86810F00C0F0DD000F00CF91E
:102A4000082802D16868410206D500F005F90C2873
:102A500023D16868410220D42868810702D5F06834
:102A60000128ABD12968306921F0F80141EAC001A1
:102A700029603178080741D570697F4990B30122F8
:102A80000A6000F0FBF80446686F810736D400F056
:102A9000F5F8001B0228F7D9BAE7F068A8B10121C0
:102AA000396000F0EBF804462868810705D400F08F
:102AB000E5F8001B0228F7D9AAE72868316920F059
:102AC000F80040EAC1002860D3E7386000F0D6F88B
:102AD000044629688807CCD500F0D0F8001B0228EE
:102AE000F7D995E7FFF703FF0446686F810705D51F
:102AF00000F0C4F8001B0228F7D989E730784107B5
:102B000060D5286C0024C1000BD400200090012463
:102B1000296C41F080512964286C00F080500090AD
:102B20000098DFF83081D8F80000C10513D4D8F838
:102B3000000040F48070C8F8000000F09FF8814663
:102B4000D8F80000C10506D400F098F8A0EB090001
:102B50000228F5D95CE7B068012805D00528286F60
:102B600006D140F004002867286F40F0010005E01E
:102B7000400840002867286F20F00400286741F2D1
:102B80008938B06860B100F079F88146286F810714
:102B900013D400F073F8A0EB09004045F6D337E7F3
:102BA00000F06CF88146286F810706D500F066F8C2
:102BB000A0EB09004045F6D32AE71CB1286C20F0B1
:102BC00080502864B06900283ED0A96801F00C014B
:102BD00008293FF4F3AE02282AD100F041F8044658
:102BE0002868810105D500F049F8001B0228F7D9B3
:102BF0000EE7F069316A726A0843B16A490840EA2F
:102C00008210491E40EA0140F16A326B40EA0160DD
:102C100040EA02706860012000F023F8044628684A
:102C2000810111D400F02AF8001B0228F7D9EFE641
:102C300000F016F804462868810105D500F01EF85A
:102C4000001B0228F7D9E3E60020BDE8F28300006C
:102C50000038024000700040A86800F00C00704787
:102C60000020386600F00AB80024F40000127A0050
:102C70000438024000004742800E47420148406845
:102C8000704700BF000000202DE9F84386B000F037
:102C900057F914220021684600F06CF900200590D5
:102CA00044F281059C489D4C01689D4E9D4FDFF884
:102CB0007882DFF8789241F004010160026802F046
:102CC00004020592002205990592036843F020034F
:102CD0000360016801F0200100F0C4F843F08003B4
:102CE0000360016801F0800100F0BCF843F00103CB
:102CF0000360016801F0010100F0B4F843F0020341
:102D00000360016801F0020100F0ACF843F04003F9
:102D10000360016801F040010591059905921C21AD
:102D2000036843F008030360006800F008000590A2
:102D30000598204600F003FA00222946304600F0AC
:102D4000FEF900224021384600F0F9F900224FF444
:102D5000E071404600F0F3F900224FF47C714846E0
:102D600000F0EDF94FF400507149009001910022FC
:102D700002926946404600F007F91C2100910122A9
:102D8000019200210291022203926946204600F03E
:102D9000FBF80120019000220292039200956946FF
:102DA000304600F0F1F8402100910122002102910B
:102DB000039101926946384600F0E6F88020002130
:102DC0000090019102913846694600F0DDF84FF419
:102DD000E07100F03EF8404600F0D6F84FF4007085
:102DE00000210090019102912046694600F0CCF844
:102DF00002210191002202924FF4E0500321009041
:102E000003910A2204926946204600F0BDF84FF46F
:102E10007C7100F01EF8484600F0B6F80022002150
:102E2000282000F0CBF9282000F0E5F900F01FF889
:102E300000F00CFA00F0FBFA00F0C6FB00F0E8FB33
:102E40004FF47A7000F0A0FC4FF47A7000F09CFC14
:102E5000F4E70091012201920021029103220392E2
:102E6000694670470591059905920368704700B55A
:102E700093B03422002106A800F07CF8142200212F
:102E800001A800F077F8002000900123294801688C
:102E900041F0805101600021006800F080500090F6
:102EA000009825480091026842F4404202600222E4
:102EB000006800F44040009006A800990692102196
:102EC0000A910C92002108220D910E92B421022247
:102ED00009930F91109211921292FFF750FD08B1D1
:102EE00000F02CF800F064FC08B172B6FEE7022195
:102EF0000291002203920F204FF4A05101900491FF
:102F00004FF480520592052101A800F08DFC08B114
:102F100072B6FEE713B000BD303802400000024038
:102F2000000402400018024000080240000C024069
:102F300000001110403802400070004072B6FEE7F9
:102F400080B50B48016841F400710160026842F4E9
:102F500080620260016841F480710160032000F02A
:102F600020F9002000F0F0FC00F00EFD002002BD72
:102F7000003C024010B5044610460A460146204671
:102F800000F01EFD204610BD2DE9F84F0D4600262D
:102F90007249734A0F23044601202F68B04000EAAB
:102FA0000708804540F0C5804FEA460C032707FA22
:102FB0000CF76FEA070E6F68012F18BF022F03D0BE
:102FC000112F18BF122F12D1A768D5F80C900EEA56
:102FD000070709FA0CF949EA0707A760676827EAB3
:102FE00000006F68C7F30017B74038436060E068BF
:102FF000AF680EEA000007FA0CF73843E060B00053
:103000006F68022F18BF122F12D1F70804EB870741
:1030100000F01C09D7F820A003FA09FB2AEA0B0AE2
:10302000D5F810B00BFA09F949EA0A09C7F8209057
:1030300027680EEA070E2F7907F0030707FA0CF747
:1030400047EA0E0CC4F800C06F68FF0071D5002776
:1030500000974FEA960CD2F800E04EF4804EC2F88A
:1030600000E000F00C00176807F480470097DDF8D7
:1030700000E03C4F57F82C7003FA00FE27EA0E0ED2
:10308000394FBC4208BF00271DD0384FBC4208BF93
:10309000012718D0364FBC4208BF022713D0354F46
:1030A000BC4208BF03270ED0334FBC4208BF0427E1
:1030B00009D0324FBC4208BF052704D0304FBC4274
:1030C0000CBF0627072707FA00F040EA0E00DFF8DA
:1030D00094E04EF82C006FEA0800D1F800C06F6849
:1030E00000EA0C0CFF0348BF48EA0C0CC1F800C012
:1030F000D1F804C06F6800EA0C0CBF0348BF48EA6F
:103100000C0CC1F804C0D1F808C06F6800EA0C0CC0
:10311000FF0248BF48EA0C0CC1F808C0D1F80CC047
:1031200000EA0C0C6868800248BF48EA0C0CC1F841
:103130000CC0761C0F2E7FF62FAFBDE8F18F02B9C1
:103140000904816170470F4A136801460B421CBF96
:10315000116000F068BC704700000000003C0140B6
:103160004438024008380140000002400004024098
:1031700000080240000C024000100240001402400F
:1031800000180240143C01400901020002D4294801
:1031900081547047284B02F00F021A4402F8041CB5
:1031A0007047264B19684FF6FF020002114000F4E9
:1031B000E0600843224908431860704770B51F4B10
:1031C0001C68C4F302230124C3F10705052D2EBF9B
:1031D0000F2504FA05F56D1E1E1D072E34BF0023B2
:1031E000DB1E2940994004FA03F3BDE870405B1EE2
:1031F0001A401143C8E7010007D4012200F01F0163
:10320000104B8A40400943F82020704710B5401EFB
:10321000B0F1807F01D3012010BD0B4C60600F2105
:103220004FF0FF30FFF7B0FF0021A16007202060C2
:10323000002010BD00E400E018ED00E00CED00E01F
:103240000000FA0500E100E010E000E010B52820E1
:1032500000F09AFA534C00224FF480712046FFF799
:103260006EFF032000F04AF800F042F800F071F819
:10327000002200F03EF800F038F8032000F03EF89D
:1032800000F036F800F065F8002200F032F800F0A7
:103290002CF8032000F032F800F02AF800F059F87A
:1032A000002200F026F800F020F8282000F052F864
:1032B00000F01BF8282000F04DF800F016F80C2064
:1032C00000F048F800F011F8012000F043F8022067
:1032D00000F05AFA062000F03DF800F006F802204F
:1032E00000F038F8BDE8104064E0012000F04CBA6E
:1032F00001224FF400712046FFF721BF58B5044664
:10330000C4F3C000274E002814BF012200228021F0
:103310003046FFF714FFC4F38000002814BF0122D9
:10332000002240213046FFF70AFFC4F34000002886
:1033300014BF0122002220213046FFF700FFE007E2
:103340004CBF012200223046BDE858401021FFF753
:10335000F6BE704738B50446124D002203E038B57A
:103360000446104D01224FF480712846FFF7E7FE16
:103370002009FFF7C3FF00F017F8FFF7EAFF00226C
:1033800000F013F82046FFF7B9FF00F00DF8FFF743
:10339000E0FF2846BDE8384000224FF40071FFF7F7
:1033A000CEBE0000000C024001224FF400712846FE
:1033B000FFF7C5BE022000F0E7B938B50446002586
:1033C00005E0FFF7CCFF022000F0DEF96D1CE8B24B
:1033D000205C0028F5D131BD00000000032900D990
:1033E000704780B5DFE801F00205070940F0800072
:1033F00007E0403002E0143000E0543040F080003C
:10340000C0B2FFF7A7FFBDE80240012000F0BCB941
:1034100001BD00000901020002D4654881547047D3
:10342000644B02F00F021A4402F8041C704710B5F6
:103430006148624C016841F00401016060490A681A
:1034400022F470220A600B6843F420230B604A6A5E
:1034500042F044024A628A6822F470228A608A68D2
:1034600042F470228A600A6922F440720A610A6991
:1034700042F440720A61016941F4001101610120C6
:1034800000F082F92068400840002060E16941F0C6
:10349000E101E161606840F02D006060206A40F069
:1034A0002E002062E06840084000E060216821F0C2
:1034B00040012160206820F4003020602020216835
:1034C0004908490021600021FFF7A4FF01211F20C6
:1034D000FFF7A0FF3B48012141604FF0004202602E
:1034E000206840F001002060216841F48061216083
:1034F00010BD10B5314A136823F4006313601468DB
:1035000044F480641460136843F480731360536957
:10351000DC07FCD553690346136153699C07FCD54E
:1035200053699469116151690B06FCD5116841F426
:10353000807111605169CB07FCD5401C5169106145
:1035400050698107FCD550699169136823F4806341
:103550001360106840F40070106050694106FCD59B
:103560001069C0B210BD30B5144B1C6824F400645F
:103570001C601D6845F480651D601C6844F48074FF
:103580001C605C69E507FCD55C69186158698407B3
:10359000FCD558699C69196158690106FCD51A6106
:1035A00058690106FCD5186840F40070186030BDF9
:1035B00000E400E018ED00E0303802400054004024
:1035C0000004024000E100E080B5B622E021EE20D8
:1035D000FFF7C9FFD021EE20FFF78BFFC0B25828BC
:1035E00008D100210020FFF7F9FE00BF5DA0FFF722
:1035F000E4FE06E000210020FFF7F0FE5CA0FFF7EC
:10360000DCFEBDE808402322F421EE20FFF7ABBF2B
:103610002DE9F84F2DED048B86B01122002168466C
:10362000FFF7A8FCFA2100F099F8C4B2FB2100F0E2
:1036300095F805068921EE202D0DFFF75AFF45EA82
:103640000435C4B2882100F089F8C0B240EA0428E9
:103650008B2100F083F8C4B28A2100F07FF8C0B259
:1036600040EA04248D2100F079F806468C2100F010
:1036700075F807464046FEF7BBF941EC180B2846A3
:10368000FDF73EFF0022304BFEF7C0F982468B4625
:1036900053EC182B00202D49FEF7B8F902460B46D3
:1036A00050465946FDF7FCFF41EC190B2846FDF743
:1036B00027FF0022264BFEF7A9F90546894653EC61
:1036C000182B00202349FEF7A1F902460B46284695
:1036D0004946FDF7E5FF0546894620B2FDF710FF94
:1036E0002A464B46FEF792F98046894653EC192B41
:1036F00051EC190BFEF78AF9F6B2FFB2044647EA1D
:1037000006270D4638B2FDF7FBFE22462B46FEF794
:103710007DF942464B46FDF705FF00220E4BFEF7B2
:1037200031F802464FEA010314A1684600F07CF923
:1037300001210120FFF752FE6846FFF73EFE06B06A
:10374000BDEC048BBDE8F18F0000E03E0000203F9F
:103750000000103F0000503F0000B440EE20FFF793
:10376000C8BE0000424D50203D204F4B00000000DD
:10377000424D50203D204552524F520069203D207D
:1037800025302E346600000038B50446FFF776FA7F
:1037900014F1010F054602D0044801786418FFF7C0
:1037A0006DFA401BA042FAD331BD00BF00000020DB
:1037B000F8B500F027F8012100F01EF83160FFF79E
:1037C0005DFA07462868C10306D4FFF757FAC01B05
:1037D000A042F7D30320F2BD01207060FFF74EFA3C
:1037E00006462868810305D4FFF748FA801BA042EB
:1037F000F7D3EFE70020F2BD006800F080500090A2
:10380000009870470020009040F2E9340448054ECB
:103810000168024D41F08051016070470470004022
:103820004038024040000E422DE9F04104000F46AE
:1038300054D0404E306800F00F00B84202D200F081
:1038400073F84BD120683C4D810712D5400703D552
:10385000A96841F4E051A9602078010703D5A86860
:1038600040F46040A860A968A06821F0F00101431D
:10387000A9602178C80729D56068012802D1296884
:103880008A0305E0022818BF032803D129688A01AA
:1038900003D423E029688A0720D5A968890840EA6B
:1038A0008100A860FFF7EAF98046A868616800F027
:1038B0000C00B0EB810F09D0FFF7E0F9A0EB080096
:1038C00041F289318842F0D303202BE0306800F0C8
:1038D0000F00874204D200F027F801D0012021E038
:1038E0002078410705D5AA68E06822F4E052024337
:1038F000AA602178080706D5A968206921F46041EB
:1039000041EAC001A960FEF7F5FFAA680B490C4B1C
:10391000C2F30312895CC84018600A48006800F0CE
:1039200013F80020BDE8F0813770316801F00F0115
:10393000B9427047003C024000380240403B00085A
:103940000C0000200800002038B50D4D0D4B2A78E2
:1039500004464FF47A711868B1FBF2F2B0FBF2F052
:10396000FFF754FC50B9102C08D2002221464FF02A
:10397000FF30FFF723FCAC60002032BD012032BDD8
:10398000000000200C00002081B0002000900022E8
:103990000A48416841F480414160416801F4804136
:1039A000009100990092036843F08053036000681F
:1039B00000F080500090009801B0704740380240FD
:1039C00062F30F2262F31F42401810F0030308D085
:1039D000C91A1FD3DB0748BF00F8012D28BF20F804
:1039E000022D130030B414461546103928BF20E9C3
:1039F0003C00FAD8490728BF20E90C0048BF40F82E
:103A0000042D890028BF20F8022D48BF00F8012DA1
:103A100030BC7047C91818BF00F8012DCB0728BF6C
:103A200000F8012D704770470CB430B583B00A46DA
:103A300006A90291044600250194009502AB01A954
:103A4000084878441E30FCF7BDFB019A1570002829
:103A50004EBF04460198041B204603B030BC5DF8FD
:103A60000CFB00BFCFD6FFFF0100000000000000EC
:103A7000100000000024F400B2120008B212000886
:103A8000B2120008B2120008B2120008B212000806
:103A9000B2120008FFFFFFFFFFFFFFFFB211000897
:103AA000B2120008B2120008FFFFFFFFFFFF000084
:103AB00030B4002512E050F8042BD30744BF4A4429
:103AC000521E091F042942F8045BFAD213468C07E0
:103AD00044BF15809B1CC90748BF1D7050F8041BCC
:103AE0000029E8D130BC7047FEE7FEE7FEE7FEE7BD
:103AF000FEE770477047704700F00CB80248FEF7C9
:103B000000B90148FEF7D2BC480000204FF4005035
:103B1000FFF719BB0248416802788A184260704773
:103B2000000000200448054A016841F4700101606A
:103B30004FF000601060704788ED00E008ED00E095
:103B4000000000000000000001020304060708094D
:103B500010B5074979441831064C7C44163404E00A
:103B60000A68081D114488470146A142F8D110BDDA
:103B70002C0000004C0000004EF68851CEF20001EF
:103B8000086840F470000860BFF34F8FBFF36F8F79
:103B90004FF00170E1EE100A7047000015FFFFFFC3
:103BA00058000000480000200000000047D5FFFF3B
:103BB00048000000B4FEFFFF0000002000000000ED
:103BC00000F00DF8002801D0FFF7C2FFAFF300802E
:103BD0000020AFF30080FFF757F800F002F8012053
:103BE000704700F001B8000007463846FEF770F84D
:103BF000FBE700000548014603B4684680F30988E6
:103C0000AFF30080FFF7B8FFFFF7DAFFA5EDF5FE91
:103C10000148804701480047253B0008F53B000864
:103C2000FFF7FEBFFFF7FEBFFFF7FEBFFFF7FEBFC8
:103C3000FFF7FEBFFFF7FEBFFFF7FEBFFFF7FEBFB8
:103C4000FFF7FEBFFFF7FEBFFFF7FEBFFFF7FEBFA8
:103C5000FFF7FEBFFFF7FEBFFFF7FEBFFFF7FEBF98
:103C6000FFF7FEBFFFF7FEBFFFF7FEBFFFF7FEBF88
:103C7000FFF7FEBFFFF7FEBFFFF7FEBFFFF7FEBF78
:103C8000FFF7FEBFFFF7FEBFFFF7FEBFFFF7FEBF68
:103C9000FFF7FEBFFFF7FEBFFFF7FEBFFFF7FEBF58
:103CA000FFF7FEBFFFF7FEBFFFF7FEBFFFF7FEBF48
:103CB000FFF7FEBFFFF7FEBFFFF7FEBFFFF7FEBF38
:103CC000FFF7FEBFFFF7FEBFFFF7FEBFFFF7FEBF28
:103CD000FFF7FEBFFFF7FEBFFFF7FEBFFFF7FEBF18
:103CE000FFF7FEBFFFF7FEBFFFF7FEBFFFF7FEBF08
:103CF000FFF7FEBFFFF7FEBFFFF7FEBFFFF7FEBFF8
:103D0000FFF7FEBFFFF7FEBFFFF7FEBFFFF7FEBFE7
:103D1000FFF7FEBFFFF7FEBFFFF7FEBFFFF7FEBFD7
:103D2000FFF7FEBFFFF7FEBFFFF7FEBFFFF7FEBFC7
:103D3000FFF7FEBFFFF7FEBFFFF7FEBFFFF7FEBFB7
:103D4000FFF7FEBFFFF7FEBFFFF7FEBFFFF7FEBFA7
:103D5000FFF7FEBFFFF7FEBFFFF7FEBFFFF7FEBF97
:0C3D6000FFF7FEBFFFF7FEBFFFF7FEBF3E
:0400000508003BF5BF
:00000001FF
